{
  "contractName": "Personas",
  "abi": [
    {
      "inputs": [],
      "stateMutability": "nonpayable",
      "type": "constructor"
    },
    {
      "inputs": [],
      "name": "owner",
      "outputs": [
        {
          "internalType": "address",
          "name": "",
          "type": "address"
        }
      ],
      "stateMutability": "view",
      "type": "function",
      "constant": true
    },
    {
      "inputs": [
        {
          "internalType": "string",
          "name": "_nombres",
          "type": "string"
        },
        {
          "internalType": "string",
          "name": "_apellidos",
          "type": "string"
        },
        {
          "internalType": "string",
          "name": "_cedula",
          "type": "string"
        },
        {
          "internalType": "enum Personas.Genero",
          "name": "_genero",
          "type": "uint8"
        },
        {
          "internalType": "uint256",
          "name": "_fechaNacimiento",
          "type": "uint256"
        },
        {
          "internalType": "string",
          "name": "_lugarNacimiento",
          "type": "string"
        },
        {
          "internalType": "string",
          "name": "_estadoCivil",
          "type": "string"
        },
        {
          "internalType": "string",
          "name": "_direccion",
          "type": "string"
        },
        {
          "internalType": "string",
          "name": "_telefono",
          "type": "string"
        },
        {
          "internalType": "string",
          "name": "_profesion",
          "type": "string"
        }
      ],
      "name": "registrarOActualizarPersona",
      "outputs": [],
      "stateMutability": "nonpayable",
      "type": "function"
    },
    {
      "inputs": [
        {
          "internalType": "string",
          "name": "_ci",
          "type": "string"
        }
      ],
      "name": "obtenerIdPorCi",
      "outputs": [
        {
          "internalType": "uint256",
          "name": "",
          "type": "uint256"
        }
      ],
      "stateMutability": "view",
      "type": "function",
      "constant": true
    },
    {
      "inputs": [
        {
          "internalType": "string",
          "name": "_cedula",
          "type": "string"
        }
      ],
      "name": "obtenerNombresApellidos",
      "outputs": [
        {
          "internalType": "string",
          "name": "",
          "type": "string"
        },
        {
          "internalType": "string",
          "name": "",
          "type": "string"
        }
      ],
      "stateMutability": "view",
      "type": "function",
      "constant": true
    },
    {
      "inputs": [
        {
          "internalType": "string",
          "name": "_cedula",
          "type": "string"
        }
      ],
      "name": "obtenerPersonaPorCI",
      "outputs": [
        {
          "components": [
            {
              "internalType": "string",
              "name": "nombres",
              "type": "string"
            },
            {
              "internalType": "string",
              "name": "apellidos",
              "type": "string"
            },
            {
              "internalType": "string",
              "name": "cedula",
              "type": "string"
            },
            {
              "internalType": "enum Personas.Genero",
              "name": "genero",
              "type": "uint8"
            },
            {
              "internalType": "uint256",
              "name": "fechaNacimiento",
              "type": "uint256"
            },
            {
              "internalType": "string",
              "name": "lugarNacimiento",
              "type": "string"
            },
            {
              "internalType": "string",
              "name": "estadoCivil",
              "type": "string"
            },
            {
              "internalType": "string",
              "name": "direccion",
              "type": "string"
            },
            {
              "internalType": "string",
              "name": "telefono",
              "type": "string"
            },
            {
              "internalType": "string",
              "name": "profesion",
              "type": "string"
            },
            {
              "internalType": "bool",
              "name": "estaRegistrada",
              "type": "bool"
            }
          ],
          "internalType": "struct Personas.Persona",
          "name": "",
          "type": "tuple"
        }
      ],
      "stateMutability": "view",
      "type": "function",
      "constant": true
    }
  ],
  "bytecode": "0x6080604052600160005534801561001557600080fd5b5033600160006101000a81548173ffffffffffffffffffffffffffffffffffffffff021916908373ffffffffffffffffffffffffffffffffffffffff160217905550611ad6806100666000396000f3fe608060405234801561001057600080fd5b50600436106100575760003560e01c80633c0c5b6f1461005c5780638aa64c5e1461008d5780638da5cb5b146100bd57806391d25140146100db578063d4ccd109146100f7575b600080fd5b610076600480360381019061007191906111ff565b610127565b604051610084929190611701565b60405180910390f35b6100a760048036038101906100a291906111ff565b610705565b6040516100b491906117ba565b60405180910390f35b6100c561072d565b6040516100d291906116e6565b60405180910390f35b6100f560048036038101906100f09190611240565b610753565b005b610111600480360381019061010c91906111ff565b610a64565b60405161011e9190611798565b60405180910390f35b606080600060038460405161013c91906116cf565b90815260200160405180910390205490506000811415610191576040517f08c379a000000000000000000000000000000000000000000000000000000000815260040161018890611758565b60405180910390fd5b600060026000838152602001908152602001600020604051806101600160405290816000820180546101c29061191d565b80601f01602080910402602001604051908101604052809291908181526020018280546101ee9061191d565b801561023b5780601f106102105761010080835404028352916020019161023b565b820191906000526020600020905b81548152906001019060200180831161021e57829003601f168201915b505050505081526020016001820180546102549061191d565b80601f01602080910402602001604051908101604052809291908181526020018280546102809061191d565b80156102cd5780601f106102a2576101008083540402835291602001916102cd565b820191906000526020600020905b8154815290600101906020018083116102b057829003601f168201915b505050505081526020016002820180546102e69061191d565b80601f01602080910402602001604051908101604052809291908181526020018280546103129061191d565b801561035f5780601f106103345761010080835404028352916020019161035f565b820191906000526020600020905b81548152906001019060200180831161034257829003601f168201915b505050505081526020016003820160009054906101000a900460ff1660028111156103b3577f4e487b7100000000000000000000000000000000000000000000000000000000600052602160045260246000fd5b60028111156103eb577f4e487b7100000000000000000000000000000000000000000000000000000000600052602160045260246000fd5b8152602001600482015481526020016005820180546104099061191d565b80601f01602080910402602001604051908101604052809291908181526020018280546104359061191d565b80156104825780601f1061045757610100808354040283529160200191610482565b820191906000526020600020905b81548152906001019060200180831161046557829003601f168201915b5050505050815260200160068201805461049b9061191d565b80601f01602080910402602001604051908101604052809291908181526020018280546104c79061191d565b80156105145780601f106104e957610100808354040283529160200191610514565b820191906000526020600020905b8154815290600101906020018083116104f757829003601f168201915b5050505050815260200160078201805461052d9061191d565b80601f01602080910402602001604051908101604052809291908181526020018280546105599061191d565b80156105a65780601f1061057b576101008083540402835291602001916105a6565b820191906000526020600020905b81548152906001019060200180831161058957829003601f168201915b505050505081526020016008820180546105bf9061191d565b80601f01602080910402602001604051908101604052809291908181526020018280546105eb9061191d565b80156106385780601f1061060d57610100808354040283529160200191610638565b820191906000526020600020905b81548152906001019060200180831161061b57829003601f168201915b505050505081526020016009820180546106519061191d565b80601f016020809104026020016040519081016040528092919081815260200182805461067d9061191d565b80156106ca5780601f1061069f576101008083540402835291602001916106ca565b820191906000526020600020905b8154815290600101906020018083116106ad57829003601f168201915b50505050508152602001600a820160009054906101000a900460ff161515151581525050905080600001518160200151935093505050915091565b600060038260405161071791906116cf565b9081526020016040518091039020549050919050565b600160009054906101000a900473ffffffffffffffffffffffffffffffffffffffff1681565b600160009054906101000a900473ffffffffffffffffffffffffffffffffffffffff1673ffffffffffffffffffffffffffffffffffffffff163373ffffffffffffffffffffffffffffffffffffffff16146107e3576040517f08c379a00000000000000000000000000000000000000000000000000000000081526004016107da90611778565b60405180910390fd5b60006003896040516107f591906116cf565b9081526020016040518091039020549050600081141561084f5760005490506000808154809291906108269061194f565b91905055508060038a60405161083c91906116cf565b9081526020016040518091039020819055505b6040518061016001604052808c81526020018b81526020018a81526020018960028111156108a6577f4e487b7100000000000000000000000000000000000000000000000000000000600052602160045260246000fd5b815260200188815260200187815260200186815260200185815260200184815260200183815260200160011515815250600260008381526020019081526020016000206000820151816000019080519060200190610905929190611036565b506020820151816001019080519060200190610922929190611036565b50604082015181600201908051906020019061093f929190611036565b5060608201518160030160006101000a81548160ff02191690836002811115610991577f4e487b7100000000000000000000000000000000000000000000000000000000600052602160045260246000fd5b02179055506080820151816004015560a08201518160050190805190602001906109bc929190611036565b5060c08201518160060190805190602001906109d9929190611036565b5060e08201518160070190805190602001906109f6929190611036565b50610100820151816008019080519060200190610a14929190611036565b50610120820151816009019080519060200190610a32929190611036565b5061014082015181600a0160006101000a81548160ff0219169083151502179055509050505050505050505050505050565b610a6c6110bc565b6000600383604051610a7e91906116cf565b90815260200160405180910390205490506000811415610ad3576040517f08c379a0000000000000000000000000000000000000000000000000000000008152600401610aca90611738565b60405180910390fd5b6002600082815260200190815260200160002060405180610160016040529081600082018054610b029061191d565b80601f0160208091040260200160405190810160405280929190818152602001828054610b2e9061191d565b8015610b7b5780601f10610b5057610100808354040283529160200191610b7b565b820191906000526020600020905b815481529060010190602001808311610b5e57829003601f168201915b50505050508152602001600182018054610b949061191d565b80601f0160208091040260200160405190810160405280929190818152602001828054610bc09061191d565b8015610c0d5780601f10610be257610100808354040283529160200191610c0d565b820191906000526020600020905b815481529060010190602001808311610bf057829003601f168201915b50505050508152602001600282018054610c269061191d565b80601f0160208091040260200160405190810160405280929190818152602001828054610c529061191d565b8015610c9f5780601f10610c7457610100808354040283529160200191610c9f565b820191906000526020600020905b815481529060010190602001808311610c8257829003601f168201915b505050505081526020016003820160009054906101000a900460ff166002811115610cf3577f4e487b7100000000000000000000000000000000000000000000000000000000600052602160045260246000fd5b6002811115610d2b577f4e487b7100000000000000000000000000000000000000000000000000000000600052602160045260246000fd5b815260200160048201548152602001600582018054610d499061191d565b80601f0160208091040260200160405190810160405280929190818152602001828054610d759061191d565b8015610dc25780601f10610d9757610100808354040283529160200191610dc2565b820191906000526020600020905b815481529060010190602001808311610da557829003601f168201915b50505050508152602001600682018054610ddb9061191d565b80601f0160208091040260200160405190810160405280929190818152602001828054610e079061191d565b8015610e545780601f10610e2957610100808354040283529160200191610e54565b820191906000526020600020905b815481529060010190602001808311610e3757829003601f168201915b50505050508152602001600782018054610e6d9061191d565b80601f0160208091040260200160405190810160405280929190818152602001828054610e999061191d565b8015610ee65780601f10610ebb57610100808354040283529160200191610ee6565b820191906000526020600020905b815481529060010190602001808311610ec957829003601f168201915b50505050508152602001600882018054610eff9061191d565b80601f0160208091040260200160405190810160405280929190818152602001828054610f2b9061191d565b8015610f785780601f10610f4d57610100808354040283529160200191610f78565b820191906000526020600020905b815481529060010190602001808311610f5b57829003601f168201915b50505050508152602001600982018054610f919061191d565b80601f0160208091040260200160405190810160405280929190818152602001828054610fbd9061191d565b801561100a5780601f10610fdf5761010080835404028352916020019161100a565b820191906000526020600020905b815481529060010190602001808311610fed57829003601f168201915b50505050508152602001600a820160009054906101000a900460ff161515151581525050915050919050565b8280546110429061191d565b90600052602060002090601f01602090048101928261106457600085556110ab565b82601f1061107d57805160ff19168380011785556110ab565b828001600101855582156110ab579182015b828111156110aa57825182559160200191906001019061108f565b5b5090506110b89190611150565b5090565b60405180610160016040528060608152602001606081526020016060815260200160006002811115611117577f4e487b7100000000000000000000000000000000000000000000000000000000600052602160045260246000fd5b81526020016000815260200160608152602001606081526020016060815260200160608152602001606081526020016000151581525090565b5b80821115611169576000816000905550600101611151565b5090565b600061118061117b84611806565b6117d5565b90508281526020810184848401111561119857600080fd5b6111a38482856118db565b509392505050565b6000813590506111ba81611a79565b92915050565b600082601f8301126111d157600080fd5b81356111e184826020860161116d565b91505092915050565b6000813590506111f981611a89565b92915050565b60006020828403121561121157600080fd5b600082013567ffffffffffffffff81111561122b57600080fd5b611237848285016111c0565b91505092915050565b6000806000806000806000806000806101408b8d03121561126057600080fd5b60008b013567ffffffffffffffff81111561127a57600080fd5b6112868d828e016111c0565b9a505060208b013567ffffffffffffffff8111156112a357600080fd5b6112af8d828e016111c0565b99505060408b013567ffffffffffffffff8111156112cc57600080fd5b6112d88d828e016111c0565b98505060606112e98d828e016111ab565b97505060806112fa8d828e016111ea565b96505060a08b013567ffffffffffffffff81111561131757600080fd5b6113238d828e016111c0565b95505060c08b013567ffffffffffffffff81111561134057600080fd5b61134c8d828e016111c0565b94505060e08b013567ffffffffffffffff81111561136957600080fd5b6113758d828e016111c0565b9350506101008b013567ffffffffffffffff81111561139357600080fd5b61139f8d828e016111c0565b9250506101208b013567ffffffffffffffff8111156113bd57600080fd5b6113c98d828e016111c0565b9150509295989b9194979a5092959850565b6113e48161186e565b82525050565b6113f381611880565b82525050565b611402816118c9565b82525050565b600061141382611836565b61141d8185611841565b935061142d8185602086016118ea565b61143681611a54565b840191505092915050565b600061144c82611836565b6114568185611852565b93506114668185602086016118ea565b61146f81611a54565b840191505092915050565b600061148582611836565b61148f8185611863565b935061149f8185602086016118ea565b80840191505092915050565b60006114b8601583611852565b91507f506572736f6e61206e6f20656e636f6e747261646100000000000000000000006000830152602082019050919050565b60006114f8602783611852565b91507f506572736f6e61206e6f20656e636f6e747261646120656e205265676973747260008301527f6f20436976696c000000000000000000000000000000000000000000000000006020830152604082019050919050565b600061155e601b83611852565b91507f4e6f207469656e6573207065726d69736f732064652041646d696e00000000006000830152602082019050919050565b60006101608301600083015184820360008601526115af8282611408565b915050602083015184820360208601526115c98282611408565b915050604083015184820360408601526115e38282611408565b91505060608301516115f860608601826113f9565b50608083015161160b60808601826116b1565b5060a083015184820360a08601526116238282611408565b91505060c083015184820360c086015261163d8282611408565b91505060e083015184820360e08601526116578282611408565b9150506101008301518482036101008601526116738282611408565b91505061012083015184820361012086015261168f8282611408565b9150506101408301516116a66101408601826113ea565b508091505092915050565b6116ba816118bf565b82525050565b6116c9816118bf565b82525050565b60006116db828461147a565b915081905092915050565b60006020820190506116fb60008301846113db565b92915050565b6000604082019050818103600083015261171b8185611441565b9050818103602083015261172f8184611441565b90509392505050565b60006020820190508181036000830152611751816114ab565b9050919050565b60006020820190508181036000830152611771816114eb565b9050919050565b6000602082019050818103600083015261179181611551565b9050919050565b600060208201905081810360008301526117b28184611591565b905092915050565b60006020820190506117cf60008301846116c0565b92915050565b6000604051905081810181811067ffffffffffffffff821117156117fc576117fb611a25565b5b8060405250919050565b600067ffffffffffffffff82111561182157611820611a25565b5b601f19601f8301169050602081019050919050565b600081519050919050565b600082825260208201905092915050565b600082825260208201905092915050565b600081905092915050565b60006118798261189f565b9050919050565b60008115159050919050565b600081905061189a82611a65565b919050565b600073ffffffffffffffffffffffffffffffffffffffff82169050919050565b6000819050919050565b60006118d48261188c565b9050919050565b82818337600083830152505050565b60005b838110156119085780820151818401526020810190506118ed565b83811115611917576000848401525b50505050565b6000600282049050600182168061193557607f821691505b60208210811415611949576119486119f6565b5b50919050565b600061195a826118bf565b91507fffffffffffffffffffffffffffffffffffffffffffffffffffffffffffffffff82141561198d5761198c611998565b5b600182019050919050565b7f4e487b7100000000000000000000000000000000000000000000000000000000600052601160045260246000fd5b7f4e487b7100000000000000000000000000000000000000000000000000000000600052602160045260246000fd5b7f4e487b7100000000000000000000000000000000000000000000000000000000600052602260045260246000fd5b7f4e487b7100000000000000000000000000000000000000000000000000000000600052604160045260246000fd5b6000601f19601f8301169050919050565b60038110611a7657611a756119c7565b5b50565b60038110611a8657600080fd5b50565b611a92816118bf565b8114611a9d57600080fd5b5056fea2646970667358221220ebd98b6cb7923801c80b99661f2378f345eb6c7aab6d35850aea8812d9bb94d064736f6c63430008000033",
  "immutableReferences": {},
  "source": "// SPDX-License-Identifier: MIT\r\npragma solidity ^0.8.0;\r\n\r\ncontract Personas {\r\n    enum Genero { Masculino, Femenino, Otro }\r\n\r\n    struct Persona {\r\n        string nombres; \r\n        string apellidos; \r\n        string cedula; \r\n        Genero genero; \r\n        uint256 fechaNacimiento; \r\n        string lugarNacimiento; \r\n        string estadoCivil; \r\n        string direccion; \r\n        string telefono; \r\n        string profesion;\r\n        bool estaRegistrada; // Un \"flag\" para saber si el ID existe rpido\r\n    }\r\n\r\n    uint256 private nextId = 1;\r\n    address public owner; // Variable para seguridad\r\n\r\n    mapping(uint256 => Persona) private personas;\r\n    mapping(string => uint256) private ciAIdPersona;\r\n\r\n    // MODIFIER: Solo el admin puede registrar gente\r\n    modifier onlyOwner() {\r\n        require(msg.sender == owner, \"No tienes permisos de Admin\");\r\n        _;\r\n    }\r\n\r\n    constructor() {\r\n        owner = msg.sender;\r\n    }\r\n\r\n    // --- REGISTRO UNIFICADO ---\r\n    // Hemos eliminado el parametro '_id' manual. El contrato lo calcula.\r\n    function registrarOActualizarPersona(\r\n        string memory _nombres,\r\n        string memory _apellidos,\r\n        string memory _cedula,\r\n        Genero _genero,\r\n        uint256 _fechaNacimiento,\r\n        string memory _lugarNacimiento,\r\n        string memory _estadoCivil,\r\n        string memory _direccion,\r\n        string memory _telefono,\r\n        string memory _profesion\r\n    ) public onlyOwner {\r\n        \r\n        // Verificamos si la cedula ya tiene un ID asociado\r\n        uint256 idToUse = ciAIdPersona[_cedula];\r\n\r\n        // Si el ID es 0, significa que es una persona NUEVA\r\n        if (idToUse == 0) {\r\n            idToUse = nextId;\r\n            nextId++;\r\n            ciAIdPersona[_cedula] = idToUse;\r\n        }\r\n\r\n        // Guardamos o Actualizamos los datos\r\n        personas[idToUse] = Persona({\r\n            nombres: _nombres,\r\n            apellidos: _apellidos,\r\n            cedula: _cedula,\r\n            genero: _genero,\r\n            fechaNacimiento: _fechaNacimiento,\r\n            lugarNacimiento: _lugarNacimiento,\r\n            estadoCivil: _estadoCivil,\r\n            direccion: _direccion,\r\n            telefono: _telefono,\r\n            profesion: _profesion,\r\n            estaRegistrada: true\r\n        });\r\n    }\r\n\r\n    // Funciones de Lectura (Estas no gastan Gas al llamarlas desde el Frontend)\r\n\r\n    function obtenerIdPorCi(string memory _ci) public view returns (uint256) {\r\n        return ciAIdPersona[_ci];\r\n    }\r\n\r\n    function obtenerNombresApellidos(string memory _cedula) public view returns (string memory, string memory) {\r\n        uint256 id = ciAIdPersona[_cedula];\r\n        // En Solidity moderno, devolver strings vacios es mejor que fallar con error en algunos casos,\r\n        // pero para tu logica actual, el require est bien.\r\n        require(id != 0, \"Persona no encontrada en Registro Civil\");\r\n        \r\n        Persona memory p = personas[id];\r\n        return (p.nombres, p.apellidos);\r\n    }\r\n\r\n    // Helper para obtener todo el objeto en React\r\n    function obtenerPersonaPorCI(string memory _cedula) public view returns (Persona memory) {\r\n        uint256 id = ciAIdPersona[_cedula];\r\n        require(id != 0, \"Persona no encontrada\");\r\n        return personas[id];\r\n    }\r\n}",
  "sourcePath": "/home/anders/Escritorio/Solidarity/BACK/smart-contracts/contracts/Persona.sol",
  "compiler": {
    "name": "solc",
    "version": "0.8.0+commit.c7dfd78e.Emscripten.clang"
  },
  "schemaVersion": "3.4.16",
  "updatedAt": "2025-12-17T03:11:07.580Z",
  "networkType": "ethereum",
  "devdoc": {
    "kind": "dev",
    "methods": {},
    "version": 1
  },
  "userdoc": {
    "kind": "user",
    "methods": {},
    "version": 1
  }
}