{
  "contractName": "Donaciones",
  "abi": [
    {
      "inputs": [],
      "name": "registroCivilAddress",
      "outputs": [
        {
          "internalType": "address",
          "name": "",
          "type": "address"
        }
      ],
      "stateMutability": "view",
      "type": "function",
      "constant": true
    },
    {
      "inputs": [],
      "name": "totalRecaudado",
      "outputs": [
        {
          "internalType": "uint256",
          "name": "",
          "type": "uint256"
        }
      ],
      "stateMutability": "view",
      "type": "function",
      "constant": true
    },
    {
      "inputs": [
        {
          "internalType": "address",
          "name": "_address",
          "type": "address"
        }
      ],
      "name": "setRegistroCivilAddress",
      "outputs": [],
      "stateMutability": "nonpayable",
      "type": "function"
    },
    {
      "inputs": [
        {
          "internalType": "string",
          "name": "_cedula",
          "type": "string"
        },
        {
          "internalType": "uint256",
          "name": "_montoDonacion",
          "type": "uint256"
        }
      ],
      "name": "RegistrarDonantes",
      "outputs": [],
      "stateMutability": "nonpayable",
      "type": "function"
    },
    {
      "inputs": [
        {
          "internalType": "string",
          "name": "_cedula",
          "type": "string"
        }
      ],
      "name": "obtenerPersonaPorCI",
      "outputs": [
        {
          "components": [
            {
              "internalType": "string",
              "name": "Nombres",
              "type": "string"
            },
            {
              "internalType": "string",
              "name": "Apellidos",
              "type": "string"
            },
            {
              "internalType": "string",
              "name": "Cedula",
              "type": "string"
            },
            {
              "internalType": "uint256",
              "name": "Monto_Donacion",
              "type": "uint256"
            }
          ],
          "internalType": "struct Donaciones.Donacion",
          "name": "",
          "type": "tuple"
        }
      ],
      "stateMutability": "view",
      "type": "function",
      "constant": true
    }
  ],
  "bytecode": "0x6080604052600160005534801561001557600080fd5b50611242806100256000396000f3fe608060405234801561001057600080fd5b50600436106100575760003560e01c8063093d68c31461005c57806322a2421e1461007857806380acceb3146100965780639bd51209146100b2578063d4ccd109146100d0575b600080fd5b61007660048036038101906100719190610b26565b610100565b005b610080610456565b60405161008d9190610f2d565b60405180910390f35b6100b060048036038101906100ab9190610abc565b61045c565b005b6100ba6104a0565b6040516100c79190610e6e565b60405180910390f35b6100ea60048036038101906100e59190610ae5565b6104c6565b6040516100f79190610f0b565b60405180910390f35b60006003836040516101129190610e57565b90815260200160405180910390205414610161576040517f08c379a000000000000000000000000000000000000000000000000000000000815260040161015890610ecb565b60405180910390fd5b600073ffffffffffffffffffffffffffffffffffffffff16600460009054906101000a900473ffffffffffffffffffffffffffffffffffffffff1673ffffffffffffffffffffffffffffffffffffffff1614156101f3576040517f08c379a00000000000000000000000000000000000000000000000000000000081526004016101ea90610eeb565b60405180910390fd5b6000600460009054906101000a900473ffffffffffffffffffffffffffffffffffffffff1673ffffffffffffffffffffffffffffffffffffffff16638aa64c5e846040518263ffffffff1660e01b81526004016102509190610e89565b60206040518083038186803b15801561026857600080fd5b505afa15801561027c573d6000803e3d6000fd5b505050506040513d601f19601f820116820180604052508101906102a09190610bbb565b90506000600460009054906101000a900473ffffffffffffffffffffffffffffffffffffffff1673ffffffffffffffffffffffffffffffffffffffff166322c9c8bc836040518263ffffffff1660e01b81526004016102ff9190610f2d565b60006040518083038186803b15801561031757600080fd5b505afa15801561032b573d6000803e3d6000fd5b505050506040513d6000823e3d601f19601f820116820180604052508101906103549190610b7a565b90506000805490508060038660405161036d9190610e57565b90815260200160405180910390208190555060405180608001604052808360000151815260200183602001518152602001868152602001858152506002600083815260200190815260200160002060008201518160000190805190602001906103d792919061071b565b5060208201518160010190805190602001906103f492919061071b565b50604082015181600201908051906020019061041192919061071b565b506060820151816003015590505083600160008282546104319190610fe1565b9250508190555060008081548092919061044a906110e7565b91905055505050505050565b60015481565b80600460006101000a81548173ffffffffffffffffffffffffffffffffffffffff021916908373ffffffffffffffffffffffffffffffffffffffff16021790555050565b600460009054906101000a900473ffffffffffffffffffffffffffffffffffffffff1681565b6104ce6107a1565b60006003836040516104e09190610e57565b90815260200160405180910390205490506000811415610535576040517f08c379a000000000000000000000000000000000000000000000000000000000815260040161052c90610eab565b60405180910390fd5b60026000828152602001908152602001600020604051806080016040529081600082018054610563906110b5565b80601f016020809104026020016040519081016040528092919081815260200182805461058f906110b5565b80156105dc5780601f106105b1576101008083540402835291602001916105dc565b820191906000526020600020905b8154815290600101906020018083116105bf57829003601f168201915b505050505081526020016001820180546105f5906110b5565b80601f0160208091040260200160405190810160405280929190818152602001828054610621906110b5565b801561066e5780601f106106435761010080835404028352916020019161066e565b820191906000526020600020905b81548152906001019060200180831161065157829003601f168201915b50505050508152602001600282018054610687906110b5565b80601f01602080910402602001604051908101604052809291908181526020018280546106b3906110b5565b80156107005780601f106106d557610100808354040283529160200191610700565b820191906000526020600020905b8154815290600101906020018083116106e357829003601f168201915b50505050508152602001600382015481525050915050919050565b828054610727906110b5565b90600052602060002090601f0160209004810192826107495760008555610790565b82601f1061076257805160ff1916838001178555610790565b82800160010185558215610790579182015b8281111561078f578251825591602001919060010190610774565b5b50905061079d91906107c9565b5090565b6040518060800160405280606081526020016060815260200160608152602001600081525090565b5b808211156107e25760008160009055506001016107ca565b5090565b60006107f96107f484610f79565b610f48565b90508281526020810184848401111561081157600080fd5b61081c848285611073565b509392505050565b600061083761083284610f79565b610f48565b90508281526020810184848401111561084f57600080fd5b61085a848285611082565b509392505050565b600081359050610871816111ce565b92915050565b600081519050610886816111e5565b92915050565b600082601f83011261089d57600080fd5b81356108ad8482602086016107e6565b91505092915050565b600082601f8301126108c757600080fd5b81516108d7848260208601610824565b91505092915050565b600061014082840312156108f357600080fd5b6108fe610140610f48565b9050600082015167ffffffffffffffff81111561091a57600080fd5b610926848285016108b6565b600083015250602082015167ffffffffffffffff81111561094657600080fd5b610952848285016108b6565b602083015250604082015167ffffffffffffffff81111561097257600080fd5b61097e848285016108b6565b604083015250606061099284828501610877565b60608301525060806109a684828501610aa7565b60808301525060a082015167ffffffffffffffff8111156109c657600080fd5b6109d2848285016108b6565b60a08301525060c082015167ffffffffffffffff8111156109f257600080fd5b6109fe848285016108b6565b60c08301525060e082015167ffffffffffffffff811115610a1e57600080fd5b610a2a848285016108b6565b60e08301525061010082015167ffffffffffffffff811115610a4b57600080fd5b610a57848285016108b6565b6101008301525061012082015167ffffffffffffffff811115610a7957600080fd5b610a85848285016108b6565b6101208301525092915050565b600081359050610aa1816111f5565b92915050565b600081519050610ab6816111f5565b92915050565b600060208284031215610ace57600080fd5b6000610adc84828501610862565b91505092915050565b600060208284031215610af757600080fd5b600082013567ffffffffffffffff811115610b1157600080fd5b610b1d8482850161088c565b91505092915050565b60008060408385031215610b3957600080fd5b600083013567ffffffffffffffff811115610b5357600080fd5b610b5f8582860161088c565b9250506020610b7085828601610a92565b9150509250929050565b600060208284031215610b8c57600080fd5b600082015167ffffffffffffffff811115610ba657600080fd5b610bb2848285016108e0565b91505092915050565b600060208284031215610bcd57600080fd5b6000610bdb84828501610aa7565b91505092915050565b610bed81611037565b82525050565b6000610bfe82610fa9565b610c088185610fb4565b9350610c18818560208601611082565b610c21816111bd565b840191505092915050565b6000610c3782610fa9565b610c418185610fc5565b9350610c51818560208601611082565b610c5a816111bd565b840191505092915050565b6000610c7082610fa9565b610c7a8185610fd6565b9350610c8a818560208601611082565b80840191505092915050565b6000610ca3603383610fc5565b91507f506572736f6e6120636f6e206573612063c3a964756c61206e6f20656e636f6e60008301527f747261646120656e20446f6e6163696f6e6573000000000000000000000000006020830152604082019050919050565b6000610d09602183610fc5565b91507f4573746120636564756c6120796120646f6e6f20616e746572696f726d656e7460008301527f65000000000000000000000000000000000000000000000000000000000000006020830152604082019050919050565b6000610d6f602d83610fc5565b91507f46616c746120636f6e656374617220656c20636f6e747261746f2064656c205260008301527f6567697374726f20436976696c000000000000000000000000000000000000006020830152604082019050919050565b60006080830160008301518482036000860152610de58282610bf3565b91505060208301518482036020860152610dff8282610bf3565b91505060408301518482036040860152610e198282610bf3565b9150506060830151610e2e6060860182610e39565b508091505092915050565b610e4281611069565b82525050565b610e5181611069565b82525050565b6000610e638284610c65565b915081905092915050565b6000602082019050610e836000830184610be4565b92915050565b60006020820190508181036000830152610ea38184610c2c565b905092915050565b60006020820190508181036000830152610ec481610c96565b9050919050565b60006020820190508181036000830152610ee481610cfc565b9050919050565b60006020820190508181036000830152610f0481610d62565b9050919050565b60006020820190508181036000830152610f258184610dc8565b905092915050565b6000602082019050610f426000830184610e48565b92915050565b6000604051905081810181811067ffffffffffffffff82111715610f6f57610f6e61118e565b5b8060405250919050565b600067ffffffffffffffff821115610f9457610f9361118e565b5b601f19601f8301169050602081019050919050565b600081519050919050565b600082825260208201905092915050565b600082825260208201905092915050565b600081905092915050565b6000610fec82611069565b9150610ff783611069565b9250827fffffffffffffffffffffffffffffffffffffffffffffffffffffffffffffffff0382111561102c5761102b611130565b5b828201905092915050565b600061104282611049565b9050919050565b600073ffffffffffffffffffffffffffffffffffffffff82169050919050565b6000819050919050565b82818337600083830152505050565b60005b838110156110a0578082015181840152602081019050611085565b838111156110af576000848401525b50505050565b600060028204905060018216806110cd57607f821691505b602082108114156110e1576110e061115f565b5b50919050565b60006110f282611069565b91507fffffffffffffffffffffffffffffffffffffffffffffffffffffffffffffffff82141561112557611124611130565b5b600182019050919050565b7f4e487b7100000000000000000000000000000000000000000000000000000000600052601160045260246000fd5b7f4e487b7100000000000000000000000000000000000000000000000000000000600052602260045260246000fd5b7f4e487b7100000000000000000000000000000000000000000000000000000000600052604160045260246000fd5b6000601f19601f8301169050919050565b6111d781611037565b81146111e257600080fd5b50565b600381106111f257600080fd5b50565b6111fe81611069565b811461120957600080fd5b5056fea2646970667358221220c531432984630ed4f71821453a261901957ac9413d68fe9a746153fb9b4a27a264736f6c63430008000033",
  "immutableReferences": {},
  "source": "// SPDX-License-Identifier: MIT\r\npragma solidity ^0.8.0;\r\n\r\n// --- 1. INTERFAZ DEL CONTRATO DEL PROFE ---\r\n// Esto sirve para que tu contrato sepa cmo \"hablar\" con el otro.\r\n// Copiamos sus estructuras y funciones clave.\r\ninterface IPersonas {\r\n    enum Genero { Masculino, Femenino, Otro }\r\n\r\n    struct Persona {\r\n        string nombres;\r\n        string apellidos;\r\n        string cedula;\r\n        Genero genero;\r\n        uint256 fechaNacimiento;\r\n        string lugarNacimiento;\r\n        string estadoCivil;\r\n        string direccion;\r\n        string telefono;\r\n        string profesion;\r\n    }\r\n\r\n    // Necesitamos estas dos funciones del profe\r\n    function obtenerIdPorCi(string memory _ci) external view returns (uint256);\r\n    function obtenerDatosPersona(uint256 _id) external view returns (Persona memory);\r\n}\r\n\r\ncontract Donaciones {\r\n\r\n    struct Donacion {\r\n        string Nombres;\r\n        string Apellidos;\r\n        string Cedula;\r\n        uint256 Monto_Donacion;\r\n    }\r\n\r\n    uint256 private nextId = 1;\r\n    uint256 public totalRecaudado;\r\n\r\n    mapping(uint256 => Donacion) private donaciones;\r\n    mapping(string => uint256) private ci2Donacion;\r\n\r\n    // --- 2. VARIABLE PARA GUARDAR LA DIRECCIN DEL OTRO CONTRATO ---\r\n    address public registroCivilAddress;\r\n\r\n    // Funcin para conectar los contratos (La usaremos en Truffle)\r\n    function setRegistroCivilAddress(address _address) public {\r\n        registroCivilAddress = _address;\r\n    }\r\n\r\n    // --- 3. REGISTRO MODIFICADO (MGICO) ---\r\n    // Ya no pedimos nombres ni apellidos, los buscamos solos.\r\n    function RegistrarDonantes(\r\n        string memory _cedula,\r\n        uint256 _montoDonacion\r\n    ) public {\r\n        require(ci2Donacion[_cedula] == 0, \"Esta cedula ya dono anteriormente\");\r\n        require(registroCivilAddress != address(0), \"Falta conectar el contrato del Registro Civil\");\r\n\r\n        // A. Llamamos al contrato del profe para buscar el ID por la Cdula\r\n        // Usamos la interfaz IPersonas\r\n        uint256 idPersonaEnRegistro = IPersonas(registroCivilAddress).obtenerIdPorCi(_cedula);\r\n        \r\n        // Si el ID es 0 o da error, el contrato del profe fallar all mismo.\r\n        \r\n        // B. Con el ID, pedimos los datos completos\r\n        IPersonas.Persona memory datosPersona = IPersonas(registroCivilAddress).obtenerDatosPersona(idPersonaEnRegistro);\r\n\r\n        // C. Guardamos la donacin con los datos que nos dio el profe\r\n        uint256 id = nextId;\r\n        ci2Donacion[_cedula] = id;\r\n\r\n        donaciones[id] = Donacion({\r\n            Nombres: datosPersona.nombres,   // <-- Dato trado del otro contrato\r\n            Apellidos: datosPersona.apellidos, // <-- Dato trado del otro contrato\r\n            Cedula: _cedula,\r\n            Monto_Donacion: _montoDonacion\r\n        });\r\n\r\n        totalRecaudado += _montoDonacion; \r\n        nextId++;\r\n    }\r\n\r\n    // Funciones de lectura (igual que antes)\r\n    function obtenerPersonaPorCI(string memory _cedula) public view returns (Donacion memory) {\r\n        uint256 id = ci2Donacion[_cedula];\r\n        require(id != 0, unicode\"Persona con esa cdula no encontrada en Donaciones\");\r\n        return donaciones[id];\r\n    }\r\n}",
  "sourcePath": "C:\\Users\\Ezequiel\\Desktop\\Solidarity\\BACK\\smart-contracts\\contracts\\Donations.sol",
  "compiler": {
    "name": "solc",
    "version": "0.8.0+commit.c7dfd78e.Emscripten.clang"
  },
  "schemaVersion": "3.4.16",
  "updatedAt": "2025-12-15T03:20:43.111Z",
  "networkType": "ethereum",
  "devdoc": {
    "kind": "dev",
    "methods": {},
    "version": 1
  },
  "userdoc": {
    "kind": "user",
    "methods": {},
    "version": 1
  }
}