{
  "contractName": "Donaciones",
  "abi": [
    {
      "inputs": [
        {
          "internalType": "address",
          "name": "_registroCivilAddress",
          "type": "address"
        }
      ],
      "stateMutability": "nonpayable",
      "type": "constructor"
    },
    {
      "anonymous": false,
      "inputs": [
        {
          "indexed": true,
          "internalType": "string",
          "name": "cedula",
          "type": "string"
        },
        {
          "indexed": false,
          "internalType": "string",
          "name": "nombres",
          "type": "string"
        },
        {
          "indexed": false,
          "internalType": "string",
          "name": "apellidos",
          "type": "string"
        },
        {
          "indexed": false,
          "internalType": "uint256",
          "name": "monto",
          "type": "uint256"
        }
      ],
      "name": "NuevaDonacion",
      "type": "event"
    },
    {
      "inputs": [],
      "name": "registroCivilAddress",
      "outputs": [
        {
          "internalType": "address",
          "name": "",
          "type": "address"
        }
      ],
      "stateMutability": "view",
      "type": "function",
      "constant": true
    },
    {
      "inputs": [],
      "name": "totalRecaudado",
      "outputs": [
        {
          "internalType": "uint256",
          "name": "",
          "type": "uint256"
        }
      ],
      "stateMutability": "view",
      "type": "function",
      "constant": true
    },
    {
      "inputs": [
        {
          "internalType": "address",
          "name": "_address",
          "type": "address"
        }
      ],
      "name": "setRegistroCivilAddress",
      "outputs": [],
      "stateMutability": "nonpayable",
      "type": "function"
    },
    {
      "inputs": [
        {
          "internalType": "string",
          "name": "_cedula",
          "type": "string"
        },
        {
          "internalType": "uint256",
          "name": "_montoDonacion",
          "type": "uint256"
        }
      ],
      "name": "RegistrarDonantes",
      "outputs": [],
      "stateMutability": "payable",
      "type": "function",
      "payable": true
    },
    {
      "inputs": [
        {
          "internalType": "string",
          "name": "_cedula",
          "type": "string"
        }
      ],
      "name": "obtenerPersonaPorCI",
      "outputs": [
        {
          "internalType": "string",
          "name": "Nombres",
          "type": "string"
        },
        {
          "internalType": "string",
          "name": "Apellidos",
          "type": "string"
        },
        {
          "internalType": "uint256",
          "name": "Monto_Donacion",
          "type": "uint256"
        }
      ],
      "stateMutability": "view",
      "type": "function",
      "constant": true
    }
  ],
  "bytecode": "0x608060405260016000553480156200001657600080fd5b50604051620013e4380380620013e483398181016040528101906200003c91906200009b565b80600260006101000a81548173ffffffffffffffffffffffffffffffffffffffff021916908373ffffffffffffffffffffffffffffffffffffffff1602179055505062000115565b6000815190506200009581620000fb565b92915050565b600060208284031215620000ae57600080fd5b6000620000be8482850162000084565b91505092915050565b6000620000d482620000db565b9050919050565b600073ffffffffffffffffffffffffffffffffffffffff82169050919050565b6200010681620000c7565b81146200011257600080fd5b50565b6112bf80620001256000396000f3fe60806040526004361061004a5760003560e01c8063093d68c31461004f57806322a2421e1461006b57806380acceb3146100965780639bd51209146100bf578063d4ccd109146100ea575b600080fd5b61006960048036038101906100649190610a15565b610129565b005b34801561007757600080fd5b50610080610582565b60405161008d9190610fcb565b60405180910390f35b3480156100a257600080fd5b506100bd60048036038101906100b891906109ec565b610588565b005b3480156100cb57600080fd5b506100d46105cc565b6040516100e19190610e65565b60405180910390f35b3480156100f657600080fd5b50610111600480360381019061010c9190610a6d565b6105f2565b60405161012093929190610ec6565b60405180910390f35b60006004848460405161013d929190610e35565b9081526020016040518091039020541461018c576040517f08c379a000000000000000000000000000000000000000000000000000000000815260040161018390610f4b565b60405180910390fd5b600073ffffffffffffffffffffffffffffffffffffffff16600260009054906101000a900473ffffffffffffffffffffffffffffffffffffffff1673ffffffffffffffffffffffffffffffffffffffff16141561021e576040517f08c379a000000000000000000000000000000000000000000000000000000000815260040161021590610f6b565b60405180910390fd5b60008111610261576040517f08c379a000000000000000000000000000000000000000000000000000000000815260040161025890610f8b565b60405180910390fd5b8034146102a3576040517f08c379a000000000000000000000000000000000000000000000000000000000815260040161029a90610fab565b60405180910390fd5b6000600260009054906101000a900473ffffffffffffffffffffffffffffffffffffffff16905060008173ffffffffffffffffffffffffffffffffffffffff16638aa64c5e86866040518363ffffffff1660e01b8152600401610307929190610e80565b60206040518083038186803b15801561031f57600080fd5b505afa158015610333573d6000803e3d6000fd5b505050506040513d601f19601f820116820180604052508101906103579190610b1a565b9050600081141561039d576040517f08c379a000000000000000000000000000000000000000000000000000000000815260040161039490610f0b565b60405180910390fd5b6000808373ffffffffffffffffffffffffffffffffffffffff16633c0c5b6f88886040518363ffffffff1660e01b81526004016103db929190610e80565b60006040518083038186803b1580156103f357600080fd5b505afa158015610407573d6000803e3d6000fd5b505050506040513d6000823e3d601f19601f820116820180604052508101906104309190610aae565b91509150600080549050806004898960405161044d929190610e35565b908152602001604051809103902081905550604051806040016040528089898080601f016020809104026020016040519081016040528093929190818152602001838380828437600081840152601f19601f820116905080830192505050505050508152602001878152506003600083815260200190815260200160002060008201518160000190805190602001906104e79291906107f0565b50602082015181600101559050508560016000828254610507919061106e565b9250508190555060008081548092919061052090611174565b91905055508787604051610535929190610e35565b60405180910390207f4b21bb023fb461e35b3b2a2734252972eca6933bd7904e9f8819a9d7515c740c84848960405161057093929190610ec6565b60405180910390a25050505050505050565b60015481565b80600260006101000a81548173ffffffffffffffffffffffffffffffffffffffff021916908373ffffffffffffffffffffffffffffffffffffffff16021790555050565b600260009054906101000a900473ffffffffffffffffffffffffffffffffffffffff1681565b6060806000806004856040516106089190610e4e565b9081526020016040518091039020549050600081141561065d576040517f08c379a000000000000000000000000000000000000000000000000000000000815260040161065490610f2b565b60405180910390fd5b60006003600083815260200190815260200160002060405180604001604052908160008201805461068d90611142565b80601f01602080910402602001604051908101604052809291908181526020018280546106b990611142565b80156107065780601f106106db57610100808354040283529160200191610706565b820191906000526020600020905b8154815290600101906020018083116106e957829003601f168201915b5050505050815260200160018201548152505090506000600260009054906101000a900473ffffffffffffffffffffffffffffffffffffffff1690506000808273ffffffffffffffffffffffffffffffffffffffff16633c0c5b6f8a6040518263ffffffff1660e01b815260040161077e9190610ea4565b60006040518083038186803b15801561079657600080fd5b505afa1580156107aa573d6000803e3d6000fd5b505050506040513d6000823e3d601f19601f820116820180604052508101906107d39190610aae565b915091508181856020015197509750975050505050509193909250565b8280546107fc90611142565b90600052602060002090601f01602090048101928261081e5760008555610865565b82601f1061083757805160ff1916838001178555610865565b82800160010185558215610865579182015b82811115610864578251825591602001919060010190610849565b5b5090506108729190610876565b5090565b5b8082111561088f576000816000905550600101610877565b5090565b60006108a66108a184611017565b610fe6565b9050828152602081018484840111156108be57600080fd5b6108c9848285611100565b509392505050565b60006108e46108df84611017565b610fe6565b9050828152602081018484840111156108fc57600080fd5b61090784828561110f565b509392505050565b60008135905061091e8161125b565b92915050565b60008083601f84011261093657600080fd5b8235905067ffffffffffffffff81111561094f57600080fd5b60208301915083600182028301111561096757600080fd5b9250929050565b600082601f83011261097f57600080fd5b813561098f848260208601610893565b91505092915050565b600082601f8301126109a957600080fd5b81516109b98482602086016108d1565b91505092915050565b6000813590506109d181611272565b92915050565b6000815190506109e681611272565b92915050565b6000602082840312156109fe57600080fd5b6000610a0c8482850161090f565b91505092915050565b600080600060408486031215610a2a57600080fd5b600084013567ffffffffffffffff811115610a4457600080fd5b610a5086828701610924565b93509350506020610a63868287016109c2565b9150509250925092565b600060208284031215610a7f57600080fd5b600082013567ffffffffffffffff811115610a9957600080fd5b610aa58482850161096e565b91505092915050565b60008060408385031215610ac157600080fd5b600083015167ffffffffffffffff811115610adb57600080fd5b610ae785828601610998565b925050602083015167ffffffffffffffff811115610b0457600080fd5b610b1085828601610998565b9150509250929050565b600060208284031215610b2c57600080fd5b6000610b3a848285016109d7565b91505092915050565b610b4c816110c4565b82525050565b6000610b5e8385611052565b9350610b6b838584611100565b610b748361124a565b840190509392505050565b6000610b8b8385611063565b9350610b98838584611100565b82840190509392505050565b6000610baf82611047565b610bb98185611052565b9350610bc981856020860161110f565b610bd28161124a565b840191505092915050565b6000610be882611047565b610bf28185611063565b9350610c0281856020860161110f565b80840191505092915050565b6000610c1b602883611052565b91507f4c6120636564756c61206e6f2065786973746520656e20656c2052656769737460008301527f726f20436976696c0000000000000000000000000000000000000000000000006020830152604082019050919050565b6000610c81601783611052565b91507f4e6f20736520656e636f6e74726f20646f6e6163696f6e0000000000000000006000830152602082019050919050565b6000610cc1602183611052565b91507f4573746120636564756c6120796120646f6e6f20616e746572696f726d656e7460008301527f65000000000000000000000000000000000000000000000000000000000000006020830152604082019050919050565b6000610d27602483611052565b91507f436f6e747261746f20526567697374726f20436976696c206e6f20636f6e656360008301527f7461646f000000000000000000000000000000000000000000000000000000006020830152604082019050919050565b6000610d8d601e83611052565b91507f4c6120646f6e6163696f6e206465626520736572206d61796f722061203000006000830152602082019050919050565b6000610dcd603083611052565b91507f456c206d6f6e746f20656e766961646f206e6f20636f696e6369646520636f6e60008301527f20656c2076616c6f7220656e20455448000000000000000000000000000000006020830152604082019050919050565b610e2f816110f6565b82525050565b6000610e42828486610b7f565b91508190509392505050565b6000610e5a8284610bdd565b915081905092915050565b6000602082019050610e7a6000830184610b43565b92915050565b60006020820190508181036000830152610e9b818486610b52565b90509392505050565b60006020820190508181036000830152610ebe8184610ba4565b905092915050565b60006060820190508181036000830152610ee08186610ba4565b90508181036020830152610ef48185610ba4565b9050610f036040830184610e26565b949350505050565b60006020820190508181036000830152610f2481610c0e565b9050919050565b60006020820190508181036000830152610f4481610c74565b9050919050565b60006020820190508181036000830152610f6481610cb4565b9050919050565b60006020820190508181036000830152610f8481610d1a565b9050919050565b60006020820190508181036000830152610fa481610d80565b9050919050565b60006020820190508181036000830152610fc481610dc0565b9050919050565b6000602082019050610fe06000830184610e26565b92915050565b6000604051905081810181811067ffffffffffffffff8211171561100d5761100c61121b565b5b8060405250919050565b600067ffffffffffffffff8211156110325761103161121b565b5b601f19601f8301169050602081019050919050565b600081519050919050565b600082825260208201905092915050565b600081905092915050565b6000611079826110f6565b9150611084836110f6565b9250827fffffffffffffffffffffffffffffffffffffffffffffffffffffffffffffffff038211156110b9576110b86111bd565b5b828201905092915050565b60006110cf826110d6565b9050919050565b600073ffffffffffffffffffffffffffffffffffffffff82169050919050565b6000819050919050565b82818337600083830152505050565b60005b8381101561112d578082015181840152602081019050611112565b8381111561113c576000848401525b50505050565b6000600282049050600182168061115a57607f821691505b6020821081141561116e5761116d6111ec565b5b50919050565b600061117f826110f6565b91507fffffffffffffffffffffffffffffffffffffffffffffffffffffffffffffffff8214156111b2576111b16111bd565b5b600182019050919050565b7f4e487b7100000000000000000000000000000000000000000000000000000000600052601160045260246000fd5b7f4e487b7100000000000000000000000000000000000000000000000000000000600052602260045260246000fd5b7f4e487b7100000000000000000000000000000000000000000000000000000000600052604160045260246000fd5b6000601f19601f8301169050919050565b611264816110c4565b811461126f57600080fd5b50565b61127b816110f6565b811461128657600080fd5b5056fea264697066735822122020e95d46d2f3af8e72241d9db6a9757c497ad66974daa3323c271c4db0fc898c64736f6c63430008000033",
  "immutableReferences": {},
  "source": "// SPDX-License-Identifier: MIT\r\npragma solidity ^0.8.0;\r\n\r\ninterface IPersonas {\r\n    function obtenerIdPorCi(string memory _ci) external view returns (uint256);\r\n    function obtenerNombresApellidos(string memory _cedula) external view returns (string memory, string memory);\r\n}\r\n\r\ncontract Donaciones {\r\n\r\n    struct Donacion {\r\n        string Cedula;\r\n        uint256 Monto; \r\n    }\r\n\r\n    event NuevaDonacion(\r\n        string indexed cedula, \r\n        string nombres, \r\n        string apellidos, \r\n        uint256 monto\r\n    );\r\n\r\n    uint256 private nextId = 1;\r\n    uint256 public totalRecaudado;\r\n    address public registroCivilAddress; // Direccin del otro contrato\r\n\r\n    mapping(uint256 => Donacion) private donaciones;\r\n    mapping(string => uint256) private ci2Donacion;\r\n\r\n    // 1. CONSTRUCTOR: Se ejecuta una sola vez al desplegar.\r\n    // Recibe la direccin del contrato de Personas para conectarse automticamente.\r\n    constructor(address _registroCivilAddress) {\r\n        registroCivilAddress = _registroCivilAddress;\r\n    }\r\n\r\n    // Funcin extra por si necesitas cambiar la direccin en el futuro\r\n    function setRegistroCivilAddress(address _address) public {\r\n        registroCivilAddress = _address;\r\n    }\r\n\r\n    // 2. PAYABLE: La palabra clave que faltaba!\r\n    // Ahora esta funcin acepta dinero real (ETH).\r\n    function RegistrarDonantes(string calldata _cedula, uint256 _montoDonacion) public payable {\r\n        \r\n        // Validaciones lgicas\r\n        require(ci2Donacion[_cedula] == 0, \"Esta cedula ya dono anteriormente\");\r\n        require(registroCivilAddress != address(0), \"Contrato Registro Civil no conectado\");\r\n        require(_montoDonacion > 0, \"La donacion debe ser mayor a 0\");\r\n\r\n        // 3. SEGURIDAD FINANCIERA:\r\n        // Verificamos que los ETH enviados (msg.value) sean IGUALES al monto que dices donar.\r\n        require(msg.value == _montoDonacion, \"El monto enviado no coincide con el valor en ETH\");\r\n\r\n        // PASO A: Validamos existencia en el otro contrato\r\n        IPersonas registroCivil = IPersonas(registroCivilAddress);\r\n        \r\n        // Si la cdula no existe, el otro contrato podra fallar o devolver 0.\r\n        // Es bueno envolver esto en un try/catch o asegurar que la llamada sea segura,\r\n        // pero por ahora confiamos en la lgica bsica.\r\n        uint256 idPersonaEnRegistro = registroCivil.obtenerIdPorCi(_cedula);\r\n        require(idPersonaEnRegistro != 0, \"La cedula no existe en el Registro Civil\");\r\n\r\n        // PASO B: Obtenemos Nombres y Apellidos\r\n        (string memory nombre, string memory apellido) = registroCivil.obtenerNombresApellidos(_cedula);\r\n\r\n        // PASO C: Guardar Donacin en la Blockchain\r\n        uint256 id = nextId;\r\n        ci2Donacion[_cedula] = id;\r\n\r\n        donaciones[id] = Donacion({\r\n            Cedula: _cedula,\r\n            Monto: _montoDonacion\r\n        });\r\n\r\n        totalRecaudado += _montoDonacion; \r\n        nextId++;\r\n\r\n        // PASO D: Emitir Evento\r\n        emit NuevaDonacion(_cedula, nombre, apellido, _montoDonacion);\r\n    }\r\n\r\n    // Funcin auxiliar para ver los datos desde React\r\n    function obtenerPersonaPorCI(string memory _cedula) public view returns (string memory Nombres, string memory Apellidos, uint256 Monto_Donacion) {\r\n        uint256 id = ci2Donacion[_cedula];\r\n        require(id != 0, \"No se encontro donacion\");\r\n        \r\n        Donacion memory d = donaciones[id];\r\n        \r\n        // Volvemos a consultar los nombres al registro para mostrarlos frescos\r\n        IPersonas registroCivil = IPersonas(registroCivilAddress);\r\n        (string memory nom, string memory ape) = registroCivil.obtenerNombresApellidos(_cedula);\r\n        \r\n        return (nom, ape, d.Monto);\r\n    }\r\n}",
  "sourcePath": "C:\\Users\\Usuario\\Desktop\\Solidity\\BACK\\smart-contracts\\contracts\\Donations.sol",
  "compiler": {
    "name": "solc",
    "version": "0.8.0+commit.c7dfd78e.Emscripten.clang"
  },
  "schemaVersion": "3.4.16",
  "updatedAt": "2025-12-16T01:44:14.974Z",
  "networkType": "ethereum",
  "devdoc": {
    "kind": "dev",
    "methods": {},
    "version": 1
  },
  "userdoc": {
    "kind": "user",
    "methods": {},
    "version": 1
  }
}