{
  "contractName": "Donaciones",
  "abi": [
    {
      "inputs": [
        {
          "internalType": "address",
          "name": "_registroCivilAddress",
          "type": "address"
        },
        {
          "internalType": "address payable",
          "name": "_cuentaBeneficiaria",
          "type": "address"
        }
      ],
      "stateMutability": "nonpayable",
      "type": "constructor"
    },
    {
      "anonymous": false,
      "inputs": [
        {
          "indexed": true,
          "internalType": "string",
          "name": "cedula",
          "type": "string"
        },
        {
          "indexed": false,
          "internalType": "string",
          "name": "nombres",
          "type": "string"
        },
        {
          "indexed": false,
          "internalType": "string",
          "name": "apellidos",
          "type": "string"
        },
        {
          "indexed": false,
          "internalType": "uint256",
          "name": "monto",
          "type": "uint256"
        }
      ],
      "name": "NuevaDonacion",
      "type": "event"
    },
    {
      "inputs": [],
      "name": "cuentaBeneficiaria",
      "outputs": [
        {
          "internalType": "address payable",
          "name": "",
          "type": "address"
        }
      ],
      "stateMutability": "view",
      "type": "function",
      "constant": true
    },
    {
      "inputs": [],
      "name": "registroCivilAddress",
      "outputs": [
        {
          "internalType": "address",
          "name": "",
          "type": "address"
        }
      ],
      "stateMutability": "view",
      "type": "function",
      "constant": true
    },
    {
      "inputs": [],
      "name": "totalRecaudado",
      "outputs": [
        {
          "internalType": "uint256",
          "name": "",
          "type": "uint256"
        }
      ],
      "stateMutability": "view",
      "type": "function",
      "constant": true
    },
    {
      "inputs": [
        {
          "internalType": "address",
          "name": "_address",
          "type": "address"
        }
      ],
      "name": "setRegistroCivilAddress",
      "outputs": [],
      "stateMutability": "nonpayable",
      "type": "function"
    },
    {
      "inputs": [
        {
          "internalType": "address payable",
          "name": "_nuevaCuenta",
          "type": "address"
        }
      ],
      "name": "cambiarCuentaBeneficiaria",
      "outputs": [],
      "stateMutability": "nonpayable",
      "type": "function"
    },
    {
      "inputs": [
        {
          "internalType": "string",
          "name": "_cedula",
          "type": "string"
        },
        {
          "internalType": "uint256",
          "name": "_montoDonacion",
          "type": "uint256"
        }
      ],
      "name": "RegistrarDonantes",
      "outputs": [],
      "stateMutability": "payable",
      "type": "function",
      "payable": true
    },
    {
      "inputs": [
        {
          "internalType": "string",
          "name": "_cedula",
          "type": "string"
        }
      ],
      "name": "obtenerPersonaPorCI",
      "outputs": [
        {
          "internalType": "string",
          "name": "Nombres",
          "type": "string"
        },
        {
          "internalType": "string",
          "name": "Apellidos",
          "type": "string"
        },
        {
          "internalType": "uint256",
          "name": "Monto_Donacion",
          "type": "uint256"
        }
      ],
      "stateMutability": "view",
      "type": "function",
      "constant": true
    }
  ],
  "bytecode": "0x608060405260016000553480156200001657600080fd5b50604051620016c1380380620016c183398181016040528101906200003c9190620000f4565b81600260006101000a81548173ffffffffffffffffffffffffffffffffffffffff021916908373ffffffffffffffffffffffffffffffffffffffff16021790555080600360006101000a81548173ffffffffffffffffffffffffffffffffffffffff021916908373ffffffffffffffffffffffffffffffffffffffff1602179055505050620001b1565b600081519050620000d7816200017d565b92915050565b600081519050620000ee8162000197565b92915050565b600080604083850312156200010857600080fd5b60006200011885828601620000c6565b92505060206200012b85828601620000dd565b9150509250929050565b600062000142826200015d565b9050919050565b600062000156826200015d565b9050919050565b600073ffffffffffffffffffffffffffffffffffffffff82169050919050565b620001888162000135565b81146200019457600080fd5b50565b620001a28162000149565b8114620001ae57600080fd5b50565b61150080620001c16000396000f3fe6080604052600436106100705760003560e01c80639bd512091161004e5780639bd51209146100e5578063a0791a1414610110578063ba68879514610139578063d4ccd1091461016457610070565b8063093d68c31461007557806322a2421e1461009157806380acceb3146100bc575b600080fd5b61008f600480360381019061008a9190610ba3565b6101a3565b005b34801561009d57600080fd5b506100a6610668565b6040516100b391906111d8565b60405180910390f35b3480156100c857600080fd5b506100e360048036038101906100de9190610b51565b61066e565b005b3480156100f157600080fd5b506100fa6106b2565b6040516101079190611057565b60405180910390f35b34801561011c57600080fd5b5061013760048036038101906101329190610b7a565b6106d8565b005b34801561014557600080fd5b5061014e61071c565b60405161015b9190611072565b60405180910390f35b34801561017057600080fd5b5061018b60048036038101906101869190610bfb565b610742565b60405161019a939291906110d3565b60405180910390f35b600073ffffffffffffffffffffffffffffffffffffffff16600260009054906101000a900473ffffffffffffffffffffffffffffffffffffffff1673ffffffffffffffffffffffffffffffffffffffff161415610235576040517f08c379a000000000000000000000000000000000000000000000000000000000815260040161022c90611178565b60405180910390fd5b60008111610278576040517f08c379a000000000000000000000000000000000000000000000000000000000815260040161026f90611198565b60405180910390fd5b8034146102ba576040517f08c379a00000000000000000000000000000000000000000000000000000000081526004016102b1906111b8565b60405180910390fd5b6000600260009054906101000a900473ffffffffffffffffffffffffffffffffffffffff16905060008173ffffffffffffffffffffffffffffffffffffffff16638aa64c5e86866040518363ffffffff1660e01b815260040161031e92919061108d565b60206040518083038186803b15801561033657600080fd5b505afa15801561034a573d6000803e3d6000fd5b505050506040513d601f19601f8201168201806040525081019061036e9190610ca8565b905060008114156103b4576040517f08c379a00000000000000000000000000000000000000000000000000000000081526004016103ab90611158565b60405180910390fd5b6000808373ffffffffffffffffffffffffffffffffffffffff16633c0c5b6f88886040518363ffffffff1660e01b81526004016103f292919061108d565b60006040518083038186803b15801561040a57600080fd5b505afa15801561041e573d6000803e3d6000fd5b505050506040513d6000823e3d601f19601f820116820180604052508101906104479190610c3c565b915091506000805490508060058989604051610464929190611012565b908152602001604051809103902081905550604051806040016040528089898080601f016020809104026020016040519081016040528093929190818152602001838380828437600081840152601f19601f820116905080830192505050505050508152602001878152506004600083815260200190815260200160002060008201518160000190805190602001906104fe929190610940565b5060208201518160010155905050856001600082825461051e9190611286565b925050819055506000808154809291906105379061139e565b91905055506000600360009054906101000a900473ffffffffffffffffffffffffffffffffffffffff1673ffffffffffffffffffffffffffffffffffffffff163460405161058490611042565b60006040518083038185875af1925050503d80600081146105c1576040519150601f19603f3d011682016040523d82523d6000602084013e6105c6565b606091505b505090508061060a576040517f08c379a000000000000000000000000000000000000000000000000000000000815260040161060190611118565b60405180910390fd5b888860405161061a929190611012565b60405180910390207f4b21bb023fb461e35b3b2a2734252972eca6933bd7904e9f8819a9d7515c740c85858a604051610655939291906110d3565b60405180910390a2505050505050505050565b60015481565b80600260006101000a81548173ffffffffffffffffffffffffffffffffffffffff021916908373ffffffffffffffffffffffffffffffffffffffff16021790555050565b600260009054906101000a900473ffffffffffffffffffffffffffffffffffffffff1681565b80600360006101000a81548173ffffffffffffffffffffffffffffffffffffffff021916908373ffffffffffffffffffffffffffffffffffffffff16021790555050565b600360009054906101000a900473ffffffffffffffffffffffffffffffffffffffff1681565b606080600080600585604051610758919061102b565b908152602001604051809103902054905060008114156107ad576040517f08c379a00000000000000000000000000000000000000000000000000000000081526004016107a490611138565b60405180910390fd5b6000600460008381526020019081526020016000206040518060400160405290816000820180546107dd9061136c565b80601f01602080910402602001604051908101604052809291908181526020018280546108099061136c565b80156108565780601f1061082b57610100808354040283529160200191610856565b820191906000526020600020905b81548152906001019060200180831161083957829003601f168201915b5050505050815260200160018201548152505090506000600260009054906101000a900473ffffffffffffffffffffffffffffffffffffffff1690506000808273ffffffffffffffffffffffffffffffffffffffff16633c0c5b6f8a6040518263ffffffff1660e01b81526004016108ce91906110b1565b60006040518083038186803b1580156108e657600080fd5b505afa1580156108fa573d6000803e3d6000fd5b505050506040513d6000823e3d601f19601f820116820180604052508101906109239190610c3c565b915091508181856020015197509750975050505050509193909250565b82805461094c9061136c565b90600052602060002090601f01602090048101928261096e57600085556109b5565b82601f1061098757805160ff19168380011785556109b5565b828001600101855582156109b5579182015b828111156109b4578251825591602001919060010190610999565b5b5090506109c291906109c6565b5090565b5b808211156109df5760008160009055506001016109c7565b5090565b60006109f66109f184611224565b6111f3565b905082815260208101848484011115610a0e57600080fd5b610a1984828561132a565b509392505050565b6000610a34610a2f84611224565b6111f3565b905082815260208101848484011115610a4c57600080fd5b610a57848285611339565b509392505050565b600081359050610a6e81611485565b92915050565b600081359050610a838161149c565b92915050565b60008083601f840112610a9b57600080fd5b8235905067ffffffffffffffff811115610ab457600080fd5b602083019150836001820283011115610acc57600080fd5b9250929050565b600082601f830112610ae457600080fd5b8135610af48482602086016109e3565b91505092915050565b600082601f830112610b0e57600080fd5b8151610b1e848260208601610a21565b91505092915050565b600081359050610b36816114b3565b92915050565b600081519050610b4b816114b3565b92915050565b600060208284031215610b6357600080fd5b6000610b7184828501610a5f565b91505092915050565b600060208284031215610b8c57600080fd5b6000610b9a84828501610a74565b91505092915050565b600080600060408486031215610bb857600080fd5b600084013567ffffffffffffffff811115610bd257600080fd5b610bde86828701610a89565b93509350506020610bf186828701610b27565b9150509250925092565b600060208284031215610c0d57600080fd5b600082013567ffffffffffffffff811115610c2757600080fd5b610c3384828501610ad3565b91505092915050565b60008060408385031215610c4f57600080fd5b600083015167ffffffffffffffff811115610c6957600080fd5b610c7585828601610afd565b925050602083015167ffffffffffffffff811115610c9257600080fd5b610c9e85828601610afd565b9150509250929050565b600060208284031215610cba57600080fd5b6000610cc884828501610b3c565b91505092915050565b610cda816112ee565b82525050565b610ce9816112dc565b82525050565b6000610cfb838561126a565b9350610d0883858461132a565b610d1183611474565b840190509392505050565b6000610d28838561127b565b9350610d3583858461132a565b82840190509392505050565b6000610d4c82611254565b610d56818561126a565b9350610d66818560208601611339565b610d6f81611474565b840191505092915050565b6000610d8582611254565b610d8f818561127b565b9350610d9f818560208601611339565b80840191505092915050565b6000610db860248361126a565b91507f46616c6c6f20656c20656e76696f206465204554482061206c612066756e646160008301527f63696f6e000000000000000000000000000000000000000000000000000000006020830152604082019050919050565b6000610e1e60308361126a565b91507f4e6f20736520656e636f6e74726f206e696e67756e6120646f6e6163696f6e2060008301527f70617261206573746120636564756c61000000000000000000000000000000006020830152604082019050919050565b6000610e8460288361126a565b91507f4c6120636564756c61206e6f2065786973746520656e20656c2052656769737460008301527f726f20436976696c0000000000000000000000000000000000000000000000006020830152604082019050919050565b6000610eea60248361126a565b91507f436f6e747261746f20526567697374726f20436976696c206e6f20636f6e656360008301527f7461646f000000000000000000000000000000000000000000000000000000006020830152604082019050919050565b6000610f5060008361125f565b9150600082019050919050565b6000610f6a601e8361126a565b91507f4c6120646f6e6163696f6e206465626520736572206d61796f722061203000006000830152602082019050919050565b6000610faa60308361126a565b91507f456c206d6f6e746f20656e766961646f206e6f20636f696e6369646520636f6e60008301527f20656c2076616c6f7220656e20455448000000000000000000000000000000006020830152604082019050919050565b61100c81611320565b82525050565b600061101f828486610d1c565b91508190509392505050565b60006110378284610d7a565b915081905092915050565b600061104d82610f43565b9150819050919050565b600060208201905061106c6000830184610ce0565b92915050565b60006020820190506110876000830184610cd1565b92915050565b600060208201905081810360008301526110a8818486610cef565b90509392505050565b600060208201905081810360008301526110cb8184610d41565b905092915050565b600060608201905081810360008301526110ed8186610d41565b905081810360208301526111018185610d41565b90506111106040830184611003565b949350505050565b6000602082019050818103600083015261113181610dab565b9050919050565b6000602082019050818103600083015261115181610e11565b9050919050565b6000602082019050818103600083015261117181610e77565b9050919050565b6000602082019050818103600083015261119181610edd565b9050919050565b600060208201905081810360008301526111b181610f5d565b9050919050565b600060208201905081810360008301526111d181610f9d565b9050919050565b60006020820190506111ed6000830184611003565b92915050565b6000604051905081810181811067ffffffffffffffff8211171561121a57611219611445565b5b8060405250919050565b600067ffffffffffffffff82111561123f5761123e611445565b5b601f19601f8301169050602081019050919050565b600081519050919050565b600081905092915050565b600082825260208201905092915050565b600081905092915050565b600061129182611320565b915061129c83611320565b9250827fffffffffffffffffffffffffffffffffffffffffffffffffffffffffffffffff038211156112d1576112d06113e7565b5b828201905092915050565b60006112e782611300565b9050919050565b60006112f982611300565b9050919050565b600073ffffffffffffffffffffffffffffffffffffffff82169050919050565b6000819050919050565b82818337600083830152505050565b60005b8381101561135757808201518184015260208101905061133c565b83811115611366576000848401525b50505050565b6000600282049050600182168061138457607f821691505b6020821081141561139857611397611416565b5b50919050565b60006113a982611320565b91507fffffffffffffffffffffffffffffffffffffffffffffffffffffffffffffffff8214156113dc576113db6113e7565b5b600182019050919050565b7f4e487b7100000000000000000000000000000000000000000000000000000000600052601160045260246000fd5b7f4e487b7100000000000000000000000000000000000000000000000000000000600052602260045260246000fd5b7f4e487b7100000000000000000000000000000000000000000000000000000000600052604160045260246000fd5b6000601f19601f8301169050919050565b61148e816112dc565b811461149957600080fd5b50565b6114a5816112ee565b81146114b057600080fd5b50565b6114bc81611320565b81146114c757600080fd5b5056fea2646970667358221220bd7ccb53b425faacd681ca3b0e38a1f967ccc5b3768c0494ca7e1af2e6fead1f64736f6c63430008000033",
  "immutableReferences": {},
  "source": "// SPDX-License-Identifier: MIT\r\npragma solidity ^0.8.0;\r\n\r\ninterface IPersonas {\r\n    function obtenerIdPorCi(string memory _ci) external view returns (uint256);\r\n    function obtenerNombresApellidos(string memory _cedula) external view returns (string memory, string memory);\r\n}\r\n\r\ncontract Donaciones {\r\n\r\n    struct Donacion {\r\n        string Cedula;\r\n        uint256 Monto; \r\n    }\r\n\r\n    event NuevaDonacion(\r\n        string indexed cedula, \r\n        string nombres, \r\n        string apellidos, \r\n        uint256 monto\r\n    );\r\n\r\n    uint256 private nextId = 1;\r\n    uint256 public totalRecaudado;\r\n    \r\n    address public registroCivilAddress; \r\n    address payable public cuentaBeneficiaria; \r\n\r\n    mapping(uint256 => Donacion) private donaciones;\r\n    // Este mapping guardar el ID de la LTIMA donacin hecha por esa cdula\r\n    mapping(string => uint256) private ci2Donacion;\r\n\r\n    constructor(address _registroCivilAddress, address payable _cuentaBeneficiaria) {\r\n        registroCivilAddress = _registroCivilAddress;\r\n        cuentaBeneficiaria = _cuentaBeneficiaria;\r\n    }\r\n\r\n    function setRegistroCivilAddress(address _address) public {\r\n        registroCivilAddress = _address;\r\n    }\r\n\r\n    function cambiarCuentaBeneficiaria(address payable _nuevaCuenta) public {\r\n        cuentaBeneficiaria = _nuevaCuenta;\r\n    }\r\n\r\n    function RegistrarDonantes(string calldata _cedula, uint256 _montoDonacion) public payable {\r\n        \r\n        // 1. CHECKS (Validaciones)\r\n        //  ELIMINAMOS LA RESTRICCIN DE DONACIN NICA\r\n        // require(ci2Donacion[_cedula] == 0, \"Esta cedula ya dono anteriormente\"); <--- ADIS A ESTO\r\n        \r\n        require(registroCivilAddress != address(0), \"Contrato Registro Civil no conectado\");\r\n        require(_montoDonacion > 0, \"La donacion debe ser mayor a 0\");\r\n        require(msg.value == _montoDonacion, \"El monto enviado no coincide con el valor en ETH\");\r\n\r\n        IPersonas registroCivil = IPersonas(registroCivilAddress);\r\n        uint256 idPersonaEnRegistro = registroCivil.obtenerIdPorCi(_cedula);\r\n        require(idPersonaEnRegistro != 0, \"La cedula no existe en el Registro Civil\");\r\n\r\n        (string memory nombre, string memory apellido) = registroCivil.obtenerNombresApellidos(_cedula);\r\n\r\n        // 2. EFFECTS\r\n        uint256 id = nextId;\r\n        \r\n        // Actualizamos el registro: Ahora esta cdula apunta a este NUEVO id (su donacin ms reciente)\r\n        ci2Donacion[_cedula] = id; \r\n\r\n        donaciones[id] = Donacion({\r\n            Cedula: _cedula,\r\n            Monto: _montoDonacion\r\n        });\r\n\r\n        totalRecaudado += _montoDonacion; \r\n        nextId++;\r\n\r\n        // 3. INTERACTIONS (Soltamos el dinero a la Fundacin)\r\n        (bool success, ) = cuentaBeneficiaria.call{value: msg.value}(\"\");\r\n        require(success, \"Fallo el envio de ETH a la fundacion\");\r\n\r\n        // 4. EVENTO (Esto es lo que alimentar tu lista de historial)\r\n        emit NuevaDonacion(_cedula, nombre, apellido, _montoDonacion);\r\n    }\r\n\r\n    // Esta funcin devolver los datos de la donacin MS RECIENTE\r\n    function obtenerPersonaPorCI(string memory _cedula) public view returns (string memory Nombres, string memory Apellidos, uint256 Monto_Donacion) {\r\n        uint256 id = ci2Donacion[_cedula];\r\n        require(id != 0, \"No se encontro ninguna donacion para esta cedula\");\r\n        \r\n        Donacion memory d = donaciones[id];\r\n        IPersonas registroCivil = IPersonas(registroCivilAddress);\r\n        (string memory nom, string memory ape) = registroCivil.obtenerNombresApellidos(_cedula);\r\n        return (nom, ape, d.Monto);\r\n    }\r\n}",
  "sourcePath": "C:\\Users\\Usuario\\Desktop\\Solidity\\BACK\\smart-contracts\\contracts\\Donations.sol",
  "compiler": {
    "name": "solc",
    "version": "0.8.0+commit.c7dfd78e.Emscripten.clang"
  },
  "schemaVersion": "3.4.16",
  "updatedAt": "2025-12-16T03:56:56.590Z",
  "networkType": "ethereum",
  "devdoc": {
    "kind": "dev",
    "methods": {},
    "version": 1
  },
  "userdoc": {
    "kind": "user",
    "methods": {},
    "version": 1
  }
}