{
  "contractName": "Donaciones",
  "abi": [
    {
      "inputs": [],
      "name": "totalRecaudado",
      "outputs": [
        {
          "internalType": "uint256",
          "name": "",
          "type": "uint256"
        }
      ],
      "stateMutability": "view",
      "type": "function",
      "constant": true
    },
    {
      "inputs": [
        {
          "internalType": "string",
          "name": "_cedula",
          "type": "string"
        },
        {
          "internalType": "string",
          "name": "_nombres",
          "type": "string"
        },
        {
          "internalType": "string",
          "name": "_correo",
          "type": "string"
        },
        {
          "internalType": "string",
          "name": "_apellidos",
          "type": "string"
        },
        {
          "internalType": "uint256",
          "name": "_montoDonacion",
          "type": "uint256"
        }
      ],
      "name": "RegistrarDonantes",
      "outputs": [],
      "stateMutability": "nonpayable",
      "type": "function"
    },
    {
      "inputs": [
        {
          "internalType": "string",
          "name": "_cedula",
          "type": "string"
        }
      ],
      "name": "obtenerPersonaPorCI",
      "outputs": [
        {
          "components": [
            {
              "internalType": "string",
              "name": "Nombres",
              "type": "string"
            },
            {
              "internalType": "string",
              "name": "Apellidos",
              "type": "string"
            },
            {
              "internalType": "string",
              "name": "Cedula",
              "type": "string"
            },
            {
              "internalType": "string",
              "name": "Correo",
              "type": "string"
            },
            {
              "internalType": "uint256",
              "name": "Monto_Donacion",
              "type": "uint256"
            }
          ],
          "internalType": "struct Donaciones.Donacion",
          "name": "",
          "type": "tuple"
        }
      ],
      "stateMutability": "view",
      "type": "function",
      "constant": true
    },
    {
      "inputs": [
        {
          "internalType": "uint256",
          "name": "_id",
          "type": "uint256"
        }
      ],
      "name": "obtenerDatosPersona",
      "outputs": [
        {
          "components": [
            {
              "internalType": "string",
              "name": "Nombres",
              "type": "string"
            },
            {
              "internalType": "string",
              "name": "Apellidos",
              "type": "string"
            },
            {
              "internalType": "string",
              "name": "Cedula",
              "type": "string"
            },
            {
              "internalType": "string",
              "name": "Correo",
              "type": "string"
            },
            {
              "internalType": "uint256",
              "name": "Monto_Donacion",
              "type": "uint256"
            }
          ],
          "internalType": "struct Donaciones.Donacion",
          "name": "",
          "type": "tuple"
        }
      ],
      "stateMutability": "view",
      "type": "function",
      "constant": true
    }
  ],
  "bytecode": "0x6080604052600160005534801561001557600080fd5b50611002806100256000396000f3fe608060405234801561001057600080fd5b506004361061004c5760003560e01c806322a2421e1461005157806322c9c8bc1461006f578063812894531461009f578063d4ccd109146100bb575b600080fd5b6100596100eb565b6040516100669190610d46565b60405180910390f35b61008960048036038101906100849190610a8b565b6100f1565b6040516100969190610d24565b60405180910390f35b6100b960048036038101906100b491906109b4565b6103c0565b005b6100d560048036038101906100d09190610973565b61053d565b6040516100e29190610d24565b60405180910390f35b60015481565b6100f9610824565b6000548210801561010a5750600082115b610149576040517f08c379a000000000000000000000000000000000000000000000000000000000815260040161014090610d04565b60405180910390fd5b600260008381526020019081526020016000206040518060a001604052908160008201805461017790610e9c565b80601f01602080910402602001604051908101604052809291908181526020018280546101a390610e9c565b80156101f05780601f106101c5576101008083540402835291602001916101f0565b820191906000526020600020905b8154815290600101906020018083116101d357829003601f168201915b5050505050815260200160018201805461020990610e9c565b80601f016020809104026020016040519081016040528092919081815260200182805461023590610e9c565b80156102825780601f1061025757610100808354040283529160200191610282565b820191906000526020600020905b81548152906001019060200180831161026557829003601f168201915b5050505050815260200160028201805461029b90610e9c565b80601f01602080910402602001604051908101604052809291908181526020018280546102c790610e9c565b80156103145780601f106102e957610100808354040283529160200191610314565b820191906000526020600020905b8154815290600101906020018083116102f757829003601f168201915b5050505050815260200160038201805461032d90610e9c565b80601f016020809104026020016040519081016040528092919081815260200182805461035990610e9c565b80156103a65780601f1061037b576101008083540402835291602001916103a6565b820191906000526020600020905b81548152906001019060200180831161038957829003601f168201915b505050505081526020016004820154815250509050919050565b60006003866040516103d29190610cad565b90815260200160405180910390205414610421576040517f08c379a000000000000000000000000000000000000000000000000000000000815260040161041890610ce4565b60405180910390fd5b600080549050806003876040516104389190610cad565b9081526020016040518091039020819055506040518060a00160405280868152602001848152602001878152602001858152602001838152506002600083815260200190815260200160002060008201518160000190805190602001906104a0929190610853565b5060208201518160010190805190602001906104bd929190610853565b5060408201518160020190805190602001906104da929190610853565b5060608201518160030190805190602001906104f7929190610853565b506080820151816004015590505081600160008282546105179190610dfa565b9250508190555060008081548092919061053090610ece565b9190505550505050505050565b610545610824565b60006003836040516105579190610cad565b908152602001604051809103902054905060008114156105ac576040517f08c379a00000000000000000000000000000000000000000000000000000000081526004016105a390610cc4565b60405180910390fd5b600260008281526020019081526020016000206040518060a00160405290816000820180546105da90610e9c565b80601f016020809104026020016040519081016040528092919081815260200182805461060690610e9c565b80156106535780601f1061062857610100808354040283529160200191610653565b820191906000526020600020905b81548152906001019060200180831161063657829003601f168201915b5050505050815260200160018201805461066c90610e9c565b80601f016020809104026020016040519081016040528092919081815260200182805461069890610e9c565b80156106e55780601f106106ba576101008083540402835291602001916106e5565b820191906000526020600020905b8154815290600101906020018083116106c857829003601f168201915b505050505081526020016002820180546106fe90610e9c565b80601f016020809104026020016040519081016040528092919081815260200182805461072a90610e9c565b80156107775780601f1061074c57610100808354040283529160200191610777565b820191906000526020600020905b81548152906001019060200180831161075a57829003601f168201915b5050505050815260200160038201805461079090610e9c565b80601f01602080910402602001604051908101604052809291908181526020018280546107bc90610e9c565b80156108095780601f106107de57610100808354040283529160200191610809565b820191906000526020600020905b8154815290600101906020018083116107ec57829003601f168201915b50505050508152602001600482015481525050915050919050565b6040518060a0016040528060608152602001606081526020016060815260200160608152602001600081525090565b82805461085f90610e9c565b90600052602060002090601f01602090048101928261088157600085556108c8565b82601f1061089a57805160ff19168380011785556108c8565b828001600101855582156108c8579182015b828111156108c75782518255916020019190600101906108ac565b5b5090506108d591906108d9565b5090565b5b808211156108f25760008160009055506001016108da565b5090565b600061090961090484610d92565b610d61565b90508281526020810184848401111561092157600080fd5b61092c848285610e5a565b509392505050565b600082601f83011261094557600080fd5b81356109558482602086016108f6565b91505092915050565b60008135905061096d81610fb5565b92915050565b60006020828403121561098557600080fd5b600082013567ffffffffffffffff81111561099f57600080fd5b6109ab84828501610934565b91505092915050565b600080600080600060a086880312156109cc57600080fd5b600086013567ffffffffffffffff8111156109e657600080fd5b6109f288828901610934565b955050602086013567ffffffffffffffff811115610a0f57600080fd5b610a1b88828901610934565b945050604086013567ffffffffffffffff811115610a3857600080fd5b610a4488828901610934565b935050606086013567ffffffffffffffff811115610a6157600080fd5b610a6d88828901610934565b9250506080610a7e8882890161095e565b9150509295509295909350565b600060208284031215610a9d57600080fd5b6000610aab8482850161095e565b91505092915050565b6000610abf82610dc2565b610ac98185610dcd565b9350610ad9818560208601610e69565b610ae281610fa4565b840191505092915050565b6000610af882610dc2565b610b028185610def565b9350610b12818560208601610e69565b80840191505092915050565b6000610b2b602583610dde565b91507f506572736f6e6120636f6e206573612063c3a964756c61206e6f20656e636f6e60008301527f74726164610000000000000000000000000000000000000000000000000000006020830152604082019050919050565b6000610b91601483610dde565b91507f436564756c6120796120726567697374726164610000000000000000000000006000830152602082019050919050565b6000610bd1601583610dde565b91507f506572736f6e61206e6f207265676973747261646100000000000000000000006000830152602082019050919050565b600060a0830160008301518482036000860152610c218282610ab4565b91505060208301518482036020860152610c3b8282610ab4565b91505060408301518482036040860152610c558282610ab4565b91505060608301518482036060860152610c6f8282610ab4565b9150506080830151610c846080860182610c8f565b508091505092915050565b610c9881610e50565b82525050565b610ca781610e50565b82525050565b6000610cb98284610aed565b915081905092915050565b60006020820190508181036000830152610cdd81610b1e565b9050919050565b60006020820190508181036000830152610cfd81610b84565b9050919050565b60006020820190508181036000830152610d1d81610bc4565b9050919050565b60006020820190508181036000830152610d3e8184610c04565b905092915050565b6000602082019050610d5b6000830184610c9e565b92915050565b6000604051905081810181811067ffffffffffffffff82111715610d8857610d87610f75565b5b8060405250919050565b600067ffffffffffffffff821115610dad57610dac610f75565b5b601f19601f8301169050602081019050919050565b600081519050919050565b600082825260208201905092915050565b600082825260208201905092915050565b600081905092915050565b6000610e0582610e50565b9150610e1083610e50565b9250827fffffffffffffffffffffffffffffffffffffffffffffffffffffffffffffffff03821115610e4557610e44610f17565b5b828201905092915050565b6000819050919050565b82818337600083830152505050565b60005b83811015610e87578082015181840152602081019050610e6c565b83811115610e96576000848401525b50505050565b60006002820490506001821680610eb457607f821691505b60208210811415610ec857610ec7610f46565b5b50919050565b6000610ed982610e50565b91507fffffffffffffffffffffffffffffffffffffffffffffffffffffffffffffffff821415610f0c57610f0b610f17565b5b600182019050919050565b7f4e487b7100000000000000000000000000000000000000000000000000000000600052601160045260246000fd5b7f4e487b7100000000000000000000000000000000000000000000000000000000600052602260045260246000fd5b7f4e487b7100000000000000000000000000000000000000000000000000000000600052604160045260246000fd5b6000601f19601f8301169050919050565b610fbe81610e50565b8114610fc957600080fd5b5056fea2646970667358221220a287d1e25721198e2dae43b53db797d35a06eba08e60a9cff07c10e8ea0c74ea64736f6c63430008000033",
  "immutableReferences": {},
  "source": "// SPDX-License-Identifier: MIT\r\npragma solidity ^0.8.0;\r\n\r\ncontract Donaciones {\r\n\r\n    struct Donacion {\r\n        string Nombres;\r\n        string Apellidos;\r\n        string Cedula;\r\n        string Correo;\r\n        uint256 Monto_Donacion; // CAMBIO: Ahora es un nmero entero positivo\r\n    }\r\n\r\n    uint256 private nextId = 1;\r\n    \r\n    // NUEVO: Variable para llevar la cuenta de toda la plata recaudada\r\n    uint256 public totalRecaudado;\r\n\r\n    mapping(uint256 => Donacion) private donaciones;\r\n    mapping(string => uint256) private ci2Donacion;\r\n\r\n    function RegistrarDonantes(\r\n        string memory _cedula,\r\n        string memory _nombres,\r\n        string memory _correo,\r\n        string memory _apellidos,\r\n        uint256 _montoDonacion // CAMBIO: Recibimos un nmero, no texto\r\n    ) public {\r\n        require(ci2Donacion[_cedula] == 0, \"Cedula ya registrada\");\r\n\r\n        uint256 id = nextId;\r\n        ci2Donacion[_cedula] = id;\r\n\r\n        donaciones[id] = Donacion({\r\n            Nombres: _nombres,\r\n            Apellidos: _apellidos,\r\n            Correo: _correo,\r\n            Cedula: _cedula,\r\n            Monto_Donacion: _montoDonacion\r\n        });\r\n\r\n        // NUEVO: Sumamos la donacin al total acumulado de la caridad\r\n        totalRecaudado += _montoDonacion; \r\n\r\n        nextId++;\r\n    }\r\n\r\n    // Buscamos rpido usando el mapping (sin gastar gas de ms)\r\n    function obtenerPersonaPorCI(string memory _cedula) public view returns (Donacion memory) {\r\n        uint256 id = ci2Donacion[_cedula];\r\n        require(id != 0, unicode\"Persona con esa cdula no encontrada\");\r\n        return donaciones[id];\r\n    }\r\n    \r\n    // Funcin para ver datos por ID si lo necesitas\r\n    function obtenerDatosPersona(uint256 _id) public view returns (Donacion memory) {\r\n        require(_id < nextId && _id > 0, \"Persona no registrada\");\r\n        return donaciones[_id];\r\n    }\r\n}",
  "sourcePath": "C:\\Users\\Usuario\\Desktop\\Solidity\\BACK\\smart-contracts\\contracts\\Donations.sol",
  "compiler": {
    "name": "solc",
    "version": "0.8.0+commit.c7dfd78e.Emscripten.clang"
  },
  "schemaVersion": "3.4.16",
  "updatedAt": "2025-12-15T01:42:02.699Z",
  "networkType": "ethereum",
  "devdoc": {
    "kind": "dev",
    "methods": {},
    "version": 1
  },
  "userdoc": {
    "kind": "user",
    "methods": {},
    "version": 1
  }
}