{
  "contractName": "Donaciones",
  "abi": [
    {
      "inputs": [
        {
          "internalType": "address",
          "name": "_registroCivilAddress",
          "type": "address"
        },
        {
          "internalType": "address payable",
          "name": "_cuentaBeneficiaria",
          "type": "address"
        }
      ],
      "stateMutability": "nonpayable",
      "type": "constructor"
    },
    {
      "anonymous": false,
      "inputs": [
        {
          "indexed": false,
          "internalType": "address",
          "name": "donante",
          "type": "address"
        },
        {
          "indexed": false,
          "internalType": "string",
          "name": "cedula",
          "type": "string"
        },
        {
          "indexed": false,
          "internalType": "string",
          "name": "nombres",
          "type": "string"
        },
        {
          "indexed": false,
          "internalType": "string",
          "name": "apellidos",
          "type": "string"
        },
        {
          "indexed": false,
          "internalType": "uint256",
          "name": "monto",
          "type": "uint256"
        },
        {
          "indexed": false,
          "internalType": "uint256",
          "name": "fecha",
          "type": "uint256"
        }
      ],
      "name": "NuevaDonacion",
      "type": "event"
    },
    {
      "inputs": [],
      "name": "cuentaBeneficiaria",
      "outputs": [
        {
          "internalType": "address payable",
          "name": "",
          "type": "address"
        }
      ],
      "stateMutability": "view",
      "type": "function",
      "constant": true
    },
    {
      "inputs": [],
      "name": "owner",
      "outputs": [
        {
          "internalType": "address",
          "name": "",
          "type": "address"
        }
      ],
      "stateMutability": "view",
      "type": "function",
      "constant": true
    },
    {
      "inputs": [],
      "name": "registroCivilAddress",
      "outputs": [
        {
          "internalType": "address",
          "name": "",
          "type": "address"
        }
      ],
      "stateMutability": "view",
      "type": "function",
      "constant": true
    },
    {
      "inputs": [],
      "name": "totalRecaudado",
      "outputs": [
        {
          "internalType": "uint256",
          "name": "",
          "type": "uint256"
        }
      ],
      "stateMutability": "view",
      "type": "function",
      "constant": true
    },
    {
      "inputs": [
        {
          "internalType": "address",
          "name": "_address",
          "type": "address"
        }
      ],
      "name": "setRegistroCivilAddress",
      "outputs": [],
      "stateMutability": "nonpayable",
      "type": "function"
    },
    {
      "inputs": [
        {
          "internalType": "address payable",
          "name": "_nuevaCuenta",
          "type": "address"
        }
      ],
      "name": "cambiarCuentaBeneficiaria",
      "outputs": [],
      "stateMutability": "nonpayable",
      "type": "function"
    },
    {
      "inputs": [
        {
          "internalType": "string",
          "name": "_cedula",
          "type": "string"
        },
        {
          "internalType": "uint256",
          "name": "_montoDonacion",
          "type": "uint256"
        }
      ],
      "name": "RegistrarDonantes",
      "outputs": [],
      "stateMutability": "payable",
      "type": "function",
      "payable": true
    },
    {
      "inputs": [
        {
          "internalType": "string",
          "name": "_cedula",
          "type": "string"
        }
      ],
      "name": "obtenerUltimaDonacionPorCI",
      "outputs": [
        {
          "internalType": "string",
          "name": "Nombres",
          "type": "string"
        },
        {
          "internalType": "string",
          "name": "Apellidos",
          "type": "string"
        },
        {
          "internalType": "uint256",
          "name": "Monto_Donacion",
          "type": "uint256"
        }
      ],
      "stateMutability": "view",
      "type": "function",
      "constant": true
    }
  ],
  "bytecode": "0x608060405260016000553480156200001657600080fd5b5060405162001afd38038062001afd83398181016040528101906200003c91906200021b565b600073ffffffffffffffffffffffffffffffffffffffff168273ffffffffffffffffffffffffffffffffffffffff161415620000af576040517f08c379a0000000000000000000000000000000000000000000000000000000008152600401620000a69062000328565b60405180910390fd5b600073ffffffffffffffffffffffffffffffffffffffff168173ffffffffffffffffffffffffffffffffffffffff16141562000122576040517f08c379a0000000000000000000000000000000000000000000000000000000008152600401620001199062000306565b60405180910390fd5b33600260006101000a81548173ffffffffffffffffffffffffffffffffffffffff021916908373ffffffffffffffffffffffffffffffffffffffff16021790555081600360006101000a81548173ffffffffffffffffffffffffffffffffffffffff021916908373ffffffffffffffffffffffffffffffffffffffff16021790555080600460006101000a81548173ffffffffffffffffffffffffffffffffffffffff021916908373ffffffffffffffffffffffffffffffffffffffff1602179055505050620003d7565b600081519050620001fe81620003a3565b92915050565b6000815190506200021581620003bd565b92915050565b600080604083850312156200022f57600080fd5b60006200023f85828601620001ed565b9250506020620002528582860162000204565b9150509250929050565b60006200026b601f836200034a565b91507f446972656363696f6e2042656e65666963696172696120696e76616c696461006000830152602082019050919050565b6000620002ad6021836200034a565b91507f446972656363696f6e20526567697374726f20436976696c20696e76616c696460008301527f61000000000000000000000000000000000000000000000000000000000000006020830152604082019050919050565b6000602082019050818103600083015262000321816200025c565b9050919050565b6000602082019050818103600083015262000343816200029e565b9050919050565b600082825260208201905092915050565b6000620003688262000383565b9050919050565b60006200037c8262000383565b9050919050565b600073ffffffffffffffffffffffffffffffffffffffff82169050919050565b620003ae816200035b565b8114620003ba57600080fd5b50565b620003c8816200036f565b8114620003d457600080fd5b50565b61171680620003e76000396000f3fe60806040526004361061007b5760003560e01c80638da5cb5b1161004e5780638da5cb5b1461012f5780639bd512091461015a578063a0791a1414610185578063ba688795146101ae5761007b565b8063093d68c31461008057806315b75ceb1461009c57806322a2421e146100db57806380acceb314610106575b600080fd5b61009a60048036038101906100959190610d07565b6101d9565b005b3480156100a857600080fd5b506100c360048036038101906100be9190610d5f565b61060c565b6040516100d2939291906112c9565b60405180910390f35b3480156100e757600080fd5b506100f0610814565b6040516100fd91906113ee565b60405180910390f35b34801561011257600080fd5b5061012d60048036038101906101289190610cb5565b61081a565b005b34801561013b57600080fd5b506101446108ee565b60405161015191906111d5565b60405180910390f35b34801561016657600080fd5b5061016f610914565b60405161017c91906111d5565b60405180910390f35b34801561019157600080fd5b506101ac60048036038101906101a79190610cde565b61093a565b005b3480156101ba57600080fd5b506101c3610a7e565b6040516101d091906111f0565b60405180910390f35b6000811161021c576040517f08c379a00000000000000000000000000000000000000000000000000000000081526004016102139061130e565b60405180910390fd5b80341461025e576040517f08c379a00000000000000000000000000000000000000000000000000000000081526004016102559061138e565b60405180910390fd5b6000600360009054906101000a900473ffffffffffffffffffffffffffffffffffffffff16905060008173ffffffffffffffffffffffffffffffffffffffff16638aa64c5e86866040518363ffffffff1660e01b81526004016102c2929190611283565b60206040518083038186803b1580156102da57600080fd5b505afa1580156102ee573d6000803e3d6000fd5b505050506040513d601f19601f820116820180604052508101906103129190610e0c565b90506000811415610358576040517f08c379a000000000000000000000000000000000000000000000000000000000815260040161034f9061132e565b60405180910390fd5b6000808373ffffffffffffffffffffffffffffffffffffffff16633c0c5b6f88886040518363ffffffff1660e01b8152600401610396929190611283565b60006040518083038186803b1580156103ae57600080fd5b505afa1580156103c2573d6000803e3d6000fd5b505050506040513d6000823e3d601f19601f820116820180604052508101906103eb9190610da0565b915091506000805490508060068989604051610408929190611190565b908152602001604051809103902081905550604051806060016040528089898080601f016020809104026020016040519081016040528093929190818152602001838380828437600081840152601f19601f820116905080830192505050505050508152602001878152602001428152506005600083815260200190815260200160002060008201518160000190805190602001906104a8929190610aa4565b50602082015181600101556040820151816002015590505085600160008282546104d2919061149c565b925050819055506000808154809291906104eb906115b4565b91905055506000600460009054906101000a900473ffffffffffffffffffffffffffffffffffffffff1673ffffffffffffffffffffffffffffffffffffffff1634604051610538906111c0565b60006040518083038185875af1925050503d8060008114610575576040519150601f19603f3d011682016040523d82523d6000602084013e61057a565b606091505b50509050806105be576040517f08c379a00000000000000000000000000000000000000000000000000000000081526004016105b5906113ae565b60405180910390fd5b7f9aa1a35bef6a8c0d234f32c212f8bf3da2cb62316a672f48781121e441ac2eb6338a8a87878c426040516105f9979695949392919061120b565b60405180910390a1505050505050505050565b60608060008060068560405161062291906111a9565b90815260200160405180910390205490506000811415610677576040517f08c379a000000000000000000000000000000000000000000000000000000000815260040161066e9061134e565b60405180910390fd5b6000600560008381526020019081526020016000206040518060600160405290816000820180546106a790611582565b80601f01602080910402602001604051908101604052809291908181526020018280546106d390611582565b80156107205780601f106106f557610100808354040283529160200191610720565b820191906000526020600020905b81548152906001019060200180831161070357829003601f168201915b505050505081526020016001820154815260200160028201548152505090506000600360009054906101000a900473ffffffffffffffffffffffffffffffffffffffff1690506000808273ffffffffffffffffffffffffffffffffffffffff16633c0c5b6f8a6040518263ffffffff1660e01b81526004016107a291906112a7565b60006040518083038186803b1580156107ba57600080fd5b505afa1580156107ce573d6000803e3d6000fd5b505050506040513d6000823e3d601f19601f820116820180604052508101906107f79190610da0565b915091508181856020015197509750975050505050509193909250565b60015481565b600260009054906101000a900473ffffffffffffffffffffffffffffffffffffffff1673ffffffffffffffffffffffffffffffffffffffff163373ffffffffffffffffffffffffffffffffffffffff16146108aa576040517f08c379a00000000000000000000000000000000000000000000000000000000081526004016108a1906113ce565b60405180910390fd5b80600360006101000a81548173ffffffffffffffffffffffffffffffffffffffff021916908373ffffffffffffffffffffffffffffffffffffffff16021790555050565b600260009054906101000a900473ffffffffffffffffffffffffffffffffffffffff1681565b600360009054906101000a900473ffffffffffffffffffffffffffffffffffffffff1681565b600260009054906101000a900473ffffffffffffffffffffffffffffffffffffffff1673ffffffffffffffffffffffffffffffffffffffff163373ffffffffffffffffffffffffffffffffffffffff16146109ca576040517f08c379a00000000000000000000000000000000000000000000000000000000081526004016109c1906113ce565b60405180910390fd5b600073ffffffffffffffffffffffffffffffffffffffff168173ffffffffffffffffffffffffffffffffffffffff161415610a3a576040517f08c379a0000000000000000000000000000000000000000000000000000000008152600401610a319061136e565b60405180910390fd5b80600460006101000a81548173ffffffffffffffffffffffffffffffffffffffff021916908373ffffffffffffffffffffffffffffffffffffffff16021790555050565b600460009054906101000a900473ffffffffffffffffffffffffffffffffffffffff1681565b828054610ab090611582565b90600052602060002090601f016020900481019282610ad25760008555610b19565b82601f10610aeb57805160ff1916838001178555610b19565b82800160010185558215610b19579182015b82811115610b18578251825591602001919060010190610afd565b5b509050610b269190610b2a565b5090565b5b80821115610b43576000816000905550600101610b2b565b5090565b6000610b5a610b558461143a565b611409565b905082815260208101848484011115610b7257600080fd5b610b7d848285611540565b509392505050565b6000610b98610b938461143a565b611409565b905082815260208101848484011115610bb057600080fd5b610bbb84828561154f565b509392505050565b600081359050610bd28161169b565b92915050565b600081359050610be7816116b2565b92915050565b60008083601f840112610bff57600080fd5b8235905067ffffffffffffffff811115610c1857600080fd5b602083019150836001820283011115610c3057600080fd5b9250929050565b600082601f830112610c4857600080fd5b8135610c58848260208601610b47565b91505092915050565b600082601f830112610c7257600080fd5b8151610c82848260208601610b85565b91505092915050565b600081359050610c9a816116c9565b92915050565b600081519050610caf816116c9565b92915050565b600060208284031215610cc757600080fd5b6000610cd584828501610bc3565b91505092915050565b600060208284031215610cf057600080fd5b6000610cfe84828501610bd8565b91505092915050565b600080600060408486031215610d1c57600080fd5b600084013567ffffffffffffffff811115610d3657600080fd5b610d4286828701610bed565b93509350506020610d5586828701610c8b565b9150509250925092565b600060208284031215610d7157600080fd5b600082013567ffffffffffffffff811115610d8b57600080fd5b610d9784828501610c37565b91505092915050565b60008060408385031215610db357600080fd5b600083015167ffffffffffffffff811115610dcd57600080fd5b610dd985828601610c61565b925050602083015167ffffffffffffffff811115610df657600080fd5b610e0285828601610c61565b9150509250929050565b600060208284031215610e1e57600080fd5b6000610e2c84828501610ca0565b91505092915050565b610e3e81611504565b82525050565b610e4d816114f2565b82525050565b6000610e5f8385611480565b9350610e6c838584611540565b610e758361168a565b840190509392505050565b6000610e8c8385611491565b9350610e99838584611540565b82840190509392505050565b6000610eb08261146a565b610eba8185611480565b9350610eca81856020860161154f565b610ed38161168a565b840191505092915050565b6000610ee98261146a565b610ef38185611491565b9350610f0381856020860161154f565b80840191505092915050565b6000610f1c601883611480565b91507f4d6f6e746f206465626520736572206d61796f722061203000000000000000006000830152602082019050919050565b6000610f5c602883611480565b91507f436564756c61206e6f207265676973747261646120656e20656c20736973746560008301527f6d6120636976696c0000000000000000000000000000000000000000000000006020830152604082019050919050565b6000610fc2602e83611480565b91507f4e6f2068617920646f6e6163696f6e657320726567697374726164617320706160008301527f7261206573746120636564756c610000000000000000000000000000000000006020830152604082019050919050565b6000611028601283611480565b91507f446972656363696f6e20696e76616c69646100000000000000000000000000006000830152602082019050919050565b6000611068600083611475565b9150600082019050919050565b6000611082603183611480565b91507f456c2045544820656e766961646f206e6f20636f696e6369646520636f6e206560008301527f6c206d6f6e746f206465636c617261646f0000000000000000000000000000006020830152604082019050919050565b60006110e8602183611480565b91507f4572726f7220656e7669616e646f204554482061206c612066756e646163696f60008301527f6e000000000000000000000000000000000000000000000000000000000000006020830152604082019050919050565b600061114e600a83611480565b91507f536f6c6f2041646d696e000000000000000000000000000000000000000000006000830152602082019050919050565b61118a81611536565b82525050565b600061119d828486610e80565b91508190509392505050565b60006111b58284610ede565b915081905092915050565b60006111cb8261105b565b9150819050919050565b60006020820190506111ea6000830184610e44565b92915050565b60006020820190506112056000830184610e35565b92915050565b600060c082019050611220600083018a610e44565b818103602083015261123381888a610e53565b905081810360408301526112478187610ea5565b9050818103606083015261125b8186610ea5565b905061126a6080830185611181565b61127760a0830184611181565b98975050505050505050565b6000602082019050818103600083015261129e818486610e53565b90509392505050565b600060208201905081810360008301526112c18184610ea5565b905092915050565b600060608201905081810360008301526112e38186610ea5565b905081810360208301526112f78185610ea5565b90506113066040830184611181565b949350505050565b6000602082019050818103600083015261132781610f0f565b9050919050565b6000602082019050818103600083015261134781610f4f565b9050919050565b6000602082019050818103600083015261136781610fb5565b9050919050565b600060208201905081810360008301526113878161101b565b9050919050565b600060208201905081810360008301526113a781611075565b9050919050565b600060208201905081810360008301526113c7816110db565b9050919050565b600060208201905081810360008301526113e781611141565b9050919050565b60006020820190506114036000830184611181565b92915050565b6000604051905081810181811067ffffffffffffffff821117156114305761142f61165b565b5b8060405250919050565b600067ffffffffffffffff8211156114555761145461165b565b5b601f19601f8301169050602081019050919050565b600081519050919050565b600081905092915050565b600082825260208201905092915050565b600081905092915050565b60006114a782611536565b91506114b283611536565b9250827fffffffffffffffffffffffffffffffffffffffffffffffffffffffffffffffff038211156114e7576114e66115fd565b5b828201905092915050565b60006114fd82611516565b9050919050565b600061150f82611516565b9050919050565b600073ffffffffffffffffffffffffffffffffffffffff82169050919050565b6000819050919050565b82818337600083830152505050565b60005b8381101561156d578082015181840152602081019050611552565b8381111561157c576000848401525b50505050565b6000600282049050600182168061159a57607f821691505b602082108114156115ae576115ad61162c565b5b50919050565b60006115bf82611536565b91507fffffffffffffffffffffffffffffffffffffffffffffffffffffffffffffffff8214156115f2576115f16115fd565b5b600182019050919050565b7f4e487b7100000000000000000000000000000000000000000000000000000000600052601160045260246000fd5b7f4e487b7100000000000000000000000000000000000000000000000000000000600052602260045260246000fd5b7f4e487b7100000000000000000000000000000000000000000000000000000000600052604160045260246000fd5b6000601f19601f8301169050919050565b6116a4816114f2565b81146116af57600080fd5b50565b6116bb81611504565b81146116c657600080fd5b50565b6116d281611536565b81146116dd57600080fd5b5056fea2646970667358221220989e2df2a49b54ea19c6da42f5149c45d1a0e3e0b0f37914c84a4191472783a964736f6c63430008000033",
  "immutableReferences": {},
  "source": "// SPDX-License-Identifier: MIT\npragma solidity ^0.8.0;\n\ninterface IPersonas {\n    function obtenerIdPorCi(string memory _ci) external view returns (uint256);\n    function obtenerNombresApellidos(string memory _cedula) external view returns (string memory, string memory);\n}\n\ncontract Donaciones {\n\n    struct Donacion {\n        string Cedula;\n        uint256 Monto; \n        uint256 Fecha; \n    }\n\n    event NuevaDonacion(\n        address donante,\n        string cedula, \n        string nombres, \n        string apellidos, \n        uint256 monto,\n        uint256 fecha\n    );\n\n    uint256 private nextId = 1;\n    uint256 public totalRecaudado;\n    \n    address public owner; \n    address public registroCivilAddress; \n    address payable public cuentaBeneficiaria; \n\n    mapping(uint256 => Donacion) private donaciones;\n    mapping(string => uint256) private ci2Donacion;\n\n    modifier onlyOwner() {\n        require(msg.sender == owner, \"Solo Admin\");\n        _;\n    }\n\n    // CHECK: Validamos que las direcciones no sean 0x000...\n    constructor(address _registroCivilAddress, address payable _cuentaBeneficiaria) {\n        require(_registroCivilAddress != address(0), \"Direccion Registro Civil invalida\");\n        require(_cuentaBeneficiaria != address(0), \"Direccion Beneficiaria invalida\");\n        \n        owner = msg.sender; \n        registroCivilAddress = _registroCivilAddress;\n        cuentaBeneficiaria = _cuentaBeneficiaria;\n    }\n\n    function setRegistroCivilAddress(address _address) public onlyOwner {\n        registroCivilAddress = _address;\n    }\n\n    function cambiarCuentaBeneficiaria(address payable _nuevaCuenta) public onlyOwner {\n        require(_nuevaCuenta != address(0), \"Direccion invalida\");\n        cuentaBeneficiaria = _nuevaCuenta;\n    }\n\n    function RegistrarDonantes(string calldata _cedula, uint256 _montoDonacion) public payable {\n        \n        // 1. Validaciones\n        require(_montoDonacion > 0, \"Monto debe ser mayor a 0\");\n        require(msg.value == _montoDonacion, \"El ETH enviado no coincide con el monto declarado\");\n\n        // Conexin con el otro contrato (IPersonas)\n        IPersonas registroCivil = IPersonas(registroCivilAddress);\n        \n        // Verificamos si existe (si devuelve 0, es que no existe)\n        uint256 idPersonaEnRegistro = registroCivil.obtenerIdPorCi(_cedula);\n        require(idPersonaEnRegistro != 0, \"Cedula no registrada en el sistema civil\");\n\n        // Obtenemos datos para el evento\n        (string memory nombre, string memory apellido) = registroCivil.obtenerNombresApellidos(_cedula);\n\n        // 2. Guardar datos\n        uint256 id = nextId;\n        ci2Donacion[_cedula] = id; // OJO: Esto recuerda solo la ltima donacin de esta CI\n\n        donaciones[id] = Donacion({\n            Cedula: _cedula,\n            Monto: _montoDonacion,\n            Fecha: block.timestamp\n        });\n\n        totalRecaudado += _montoDonacion; \n        nextId++;\n\n        // 3. Transferencia de fondos (Interaccin externa al final para evitar ataques de reentrada)\n        (bool success, ) = cuentaBeneficiaria.call{value: msg.value}(\"\");\n        require(success, \"Error enviando ETH a la fundacion\");\n\n        // 4. Notificar al Frontend (React escuchar esto)\n        emit NuevaDonacion(msg.sender, _cedula, nombre, apellido, _montoDonacion, block.timestamp);\n    }\n\n    // Funcin de lectura para el Frontend\n    function obtenerUltimaDonacionPorCI(string memory _cedula) public view returns (string memory Nombres, string memory Apellidos, uint256 Monto_Donacion) {\n        uint256 id = ci2Donacion[_cedula];\n        require(id != 0, \"No hay donaciones registradas para esta cedula\");\n        \n        Donacion memory d = donaciones[id];\n        IPersonas registroCivil = IPersonas(registroCivilAddress);\n        (string memory nom, string memory ape) = registroCivil.obtenerNombresApellidos(_cedula);\n        \n        return (nom, ape, d.Monto);\n    }\n}",
  "sourcePath": "/home/anders/Escritorio/Solidarity/BACK/smart-contracts/contracts/Donations.sol",
  "compiler": {
    "name": "solc",
    "version": "0.8.0+commit.c7dfd78e.Emscripten.clang"
  },
  "schemaVersion": "3.4.16",
  "updatedAt": "2025-12-17T04:12:43.524Z",
  "networkType": "ethereum",
  "devdoc": {
    "kind": "dev",
    "methods": {},
    "version": 1
  },
  "userdoc": {
    "kind": "user",
    "methods": {},
    "version": 1
  }
}