{
  "contractName": "Donaciones",
  "abi": [
    {
      "anonymous": false,
      "inputs": [
        {
          "indexed": true,
          "internalType": "string",
          "name": "cedula",
          "type": "string"
        },
        {
          "indexed": false,
          "internalType": "string",
          "name": "nombres",
          "type": "string"
        },
        {
          "indexed": false,
          "internalType": "string",
          "name": "apellidos",
          "type": "string"
        },
        {
          "indexed": false,
          "internalType": "uint256",
          "name": "monto",
          "type": "uint256"
        }
      ],
      "name": "NuevaDonacion",
      "type": "event"
    },
    {
      "inputs": [],
      "name": "registroCivilAddress",
      "outputs": [
        {
          "internalType": "address",
          "name": "",
          "type": "address"
        }
      ],
      "stateMutability": "view",
      "type": "function",
      "constant": true
    },
    {
      "inputs": [],
      "name": "totalRecaudado",
      "outputs": [
        {
          "internalType": "uint256",
          "name": "",
          "type": "uint256"
        }
      ],
      "stateMutability": "view",
      "type": "function",
      "constant": true
    },
    {
      "inputs": [
        {
          "internalType": "address",
          "name": "_address",
          "type": "address"
        }
      ],
      "name": "setRegistroCivilAddress",
      "outputs": [],
      "stateMutability": "nonpayable",
      "type": "function"
    },
    {
      "inputs": [
        {
          "internalType": "string",
          "name": "_cedula",
          "type": "string"
        },
        {
          "internalType": "uint256",
          "name": "_montoDonacion",
          "type": "uint256"
        }
      ],
      "name": "RegistrarDonantes",
      "outputs": [],
      "stateMutability": "nonpayable",
      "type": "function"
    },
    {
      "inputs": [
        {
          "internalType": "string",
          "name": "_cedula",
          "type": "string"
        }
      ],
      "name": "obtenerDonacionPorCI",
      "outputs": [
        {
          "components": [
            {
              "internalType": "string",
              "name": "Cedula",
              "type": "string"
            },
            {
              "internalType": "uint256",
              "name": "Monto",
              "type": "uint256"
            }
          ],
          "internalType": "struct Donaciones.Donacion",
          "name": "",
          "type": "tuple"
        }
      ],
      "stateMutability": "view",
      "type": "function",
      "constant": true
    }
  ],
  "bytecode": "0x6080604052600160005534801561001557600080fd5b50611272806100256000396000f3fe608060405234801561001057600080fd5b50600436106100575760003560e01c8063093d68c31461005c57806322a2421e1461007857806380acceb3146100965780639bd51209146100b2578063f5bddffe146100d0575b600080fd5b610076600480360381019061007191906109bd565b610100565b005b610080610535565b60405161008d9190610f6d565b60405180910390f35b6100b060048036038101906100ab9190610994565b61053b565b005b6100ba61057f565b6040516100c79190610e27565b60405180910390f35b6100ea60048036038101906100e59190610a15565b6105a5565b6040516100f79190610f4b565b60405180910390f35b600060048484604051610114929190610df7565b90815260200160405180910390205414610163576040517f08c379a000000000000000000000000000000000000000000000000000000000815260040161015a90610ecb565b60405180910390fd5b600073ffffffffffffffffffffffffffffffffffffffff16600260009054906101000a900473ffffffffffffffffffffffffffffffffffffffff1673ffffffffffffffffffffffffffffffffffffffff1614156101f5576040517f08c379a00000000000000000000000000000000000000000000000000000000081526004016101ec90610eeb565b60405180910390fd5b60008111610238576040517f08c379a000000000000000000000000000000000000000000000000000000000815260040161022f90610f0b565b60405180910390fd5b6000600260009054906101000a900473ffffffffffffffffffffffffffffffffffffffff1673ffffffffffffffffffffffffffffffffffffffff16638aa64c5e85856040518363ffffffff1660e01b8152600401610297929190610e42565b60206040518083038186803b1580156102af57600080fd5b505afa1580156102c3573d6000803e3d6000fd5b505050506040513d601f19601f820116820180604052508101906102e79190610a97565b9050600081141561032d576040517f08c379a000000000000000000000000000000000000000000000000000000000815260040161032490610eab565b60405180910390fd5b6000600260009054906101000a900473ffffffffffffffffffffffffffffffffffffffff1673ffffffffffffffffffffffffffffffffffffffff166322c9c8bc836040518263ffffffff1660e01b815260040161038a9190610f6d565b60006040518083038186803b1580156103a257600080fd5b505afa1580156103b6573d6000803e3d6000fd5b505050506040513d6000823e3d601f19601f820116820180604052508101906103df9190610a56565b905060008054905080600487876040516103fa929190610df7565b908152602001604051809103902081905550604051806040016040528087878080601f016020809104026020016040519081016040528093929190818152602001838380828437600081840152601f19601f820116905080830192505050505050508152602001858152506003600083815260200190815260200160002060008201518160000190805190602001906104949291906106d6565b506020820151816001015590505083600160008282546104b49190611021565b925050819055506000808154809291906104cd90611127565b919050555085856040516104e2929190610df7565b60405180910390207f4b21bb023fb461e35b3b2a2734252972eca6933bd7904e9f8819a9d7515c740c836000015184602001518760405161052593929190610e66565b60405180910390a2505050505050565b60015481565b80600260006101000a81548173ffffffffffffffffffffffffffffffffffffffff021916908373ffffffffffffffffffffffffffffffffffffffff16021790555050565b600260009054906101000a900473ffffffffffffffffffffffffffffffffffffffff1681565b6105ad61075c565b60006004836040516105bf9190610e10565b90815260200160405180910390205490506000811415610614576040517f08c379a000000000000000000000000000000000000000000000000000000000815260040161060b90610f2b565b60405180910390fd5b60036000828152602001908152602001600020604051806040016040529081600082018054610642906110f5565b80601f016020809104026020016040519081016040528092919081815260200182805461066e906110f5565b80156106bb5780601f10610690576101008083540402835291602001916106bb565b820191906000526020600020905b81548152906001019060200180831161069e57829003601f168201915b50505050508152602001600182015481525050915050919050565b8280546106e2906110f5565b90600052602060002090601f016020900481019282610704576000855561074b565b82601f1061071d57805160ff191683800117855561074b565b8280016001018555821561074b579182015b8281111561074a57825182559160200191906001019061072f565b5b5090506107589190610776565b5090565b604051806040016040528060608152602001600081525090565b5b8082111561078f576000816000905550600101610777565b5090565b60006107a66107a184610fb9565b610f88565b9050828152602081018484840111156107be57600080fd5b6107c98482856110b3565b509392505050565b60006107e46107df84610fb9565b610f88565b9050828152602081018484840111156107fc57600080fd5b6108078482856110c2565b509392505050565b60008135905061081e8161120e565b92915050565b60008083601f84011261083657600080fd5b8235905067ffffffffffffffff81111561084f57600080fd5b60208301915083600182028301111561086757600080fd5b9250929050565b600082601f83011261087f57600080fd5b813561088f848260208601610793565b91505092915050565b600082601f8301126108a957600080fd5b81516108b98482602086016107d1565b91505092915050565b6000606082840312156108d457600080fd5b6108de6060610f88565b9050600082015167ffffffffffffffff8111156108fa57600080fd5b61090684828501610898565b600083015250602082015167ffffffffffffffff81111561092657600080fd5b61093284828501610898565b602083015250604082015167ffffffffffffffff81111561095257600080fd5b61095e84828501610898565b60408301525092915050565b60008135905061097981611225565b92915050565b60008151905061098e81611225565b92915050565b6000602082840312156109a657600080fd5b60006109b48482850161080f565b91505092915050565b6000806000604084860312156109d257600080fd5b600084013567ffffffffffffffff8111156109ec57600080fd5b6109f886828701610824565b93509350506020610a0b8682870161096a565b9150509250925092565b600060208284031215610a2757600080fd5b600082013567ffffffffffffffff811115610a4157600080fd5b610a4d8482850161086e565b91505092915050565b600060208284031215610a6857600080fd5b600082015167ffffffffffffffff811115610a8257600080fd5b610a8e848285016108c2565b91505092915050565b600060208284031215610aa957600080fd5b6000610ab78482850161097f565b91505092915050565b610ac981611077565b82525050565b6000610adb8385611005565b9350610ae88385846110b3565b610af1836111fd565b840190509392505050565b6000610b088385611016565b9350610b158385846110b3565b82840190509392505050565b6000610b2c82610fe9565b610b368185610ff4565b9350610b468185602086016110c2565b610b4f816111fd565b840191505092915050565b6000610b6582610fe9565b610b6f8185611005565b9350610b7f8185602086016110c2565b610b88816111fd565b840191505092915050565b6000610b9e82610fe9565b610ba88185611016565b9350610bb88185602086016110c2565b80840191505092915050565b6000610bd1602883611005565b91507f4c6120636564756c61206e6f2065786973746520656e20656c2052656769737460008301527f726f20436976696c0000000000000000000000000000000000000000000000006020830152604082019050919050565b6000610c37602183611005565b91507f4573746120636564756c6120796120646f6e6f20616e746572696f726d656e7460008301527f65000000000000000000000000000000000000000000000000000000000000006020830152604082019050919050565b6000610c9d602483611005565b91507f436f6e747261746f20526567697374726f20436976696c206e6f20636f6e656360008301527f7461646f000000000000000000000000000000000000000000000000000000006020830152604082019050919050565b6000610d03601e83611005565b91507f4c6120646f6e6163696f6e206465626520736572206d61796f722061203000006000830152602082019050919050565b6000610d43602b83611005565b91507f4e6f20736520656e636f6e7472c3b320646f6e616369c3b36e2070617261206560008301527f7374612063c3a964756c610000000000000000000000000000000000000000006020830152604082019050919050565b60006040830160008301518482036000860152610db98282610b21565b9150506020830151610dce6020860182610dd9565b508091505092915050565b610de2816110a9565b82525050565b610df1816110a9565b82525050565b6000610e04828486610afc565b91508190509392505050565b6000610e1c8284610b93565b915081905092915050565b6000602082019050610e3c6000830184610ac0565b92915050565b60006020820190508181036000830152610e5d818486610acf565b90509392505050565b60006060820190508181036000830152610e808186610b5a565b90508181036020830152610e948185610b5a565b9050610ea36040830184610de8565b949350505050565b60006020820190508181036000830152610ec481610bc4565b9050919050565b60006020820190508181036000830152610ee481610c2a565b9050919050565b60006020820190508181036000830152610f0481610c90565b9050919050565b60006020820190508181036000830152610f2481610cf6565b9050919050565b60006020820190508181036000830152610f4481610d36565b9050919050565b60006020820190508181036000830152610f658184610d9c565b905092915050565b6000602082019050610f826000830184610de8565b92915050565b6000604051905081810181811067ffffffffffffffff82111715610faf57610fae6111ce565b5b8060405250919050565b600067ffffffffffffffff821115610fd457610fd36111ce565b5b601f19601f8301169050602081019050919050565b600081519050919050565b600082825260208201905092915050565b600082825260208201905092915050565b600081905092915050565b600061102c826110a9565b9150611037836110a9565b9250827fffffffffffffffffffffffffffffffffffffffffffffffffffffffffffffffff0382111561106c5761106b611170565b5b828201905092915050565b600061108282611089565b9050919050565b600073ffffffffffffffffffffffffffffffffffffffff82169050919050565b6000819050919050565b82818337600083830152505050565b60005b838110156110e05780820151818401526020810190506110c5565b838111156110ef576000848401525b50505050565b6000600282049050600182168061110d57607f821691505b602082108114156111215761112061119f565b5b50919050565b6000611132826110a9565b91507fffffffffffffffffffffffffffffffffffffffffffffffffffffffffffffffff82141561116557611164611170565b5b600182019050919050565b7f4e487b7100000000000000000000000000000000000000000000000000000000600052601160045260246000fd5b7f4e487b7100000000000000000000000000000000000000000000000000000000600052602260045260246000fd5b7f4e487b7100000000000000000000000000000000000000000000000000000000600052604160045260246000fd5b6000601f19601f8301169050919050565b61121781611077565b811461122257600080fd5b50565b61122e816110a9565b811461123957600080fd5b5056fea2646970667358221220ca4b5b93cfa491ba0a5b02654cad4c6ebda5edac611bbdc2d5dc4601f73e8a4364736f6c63430008000033",
  "immutableReferences": {},
  "source": "// SPDX-License-Identifier: MIT\r\npragma solidity ^0.8.0;\r\n\r\n// --- INTERFAZ (Igual que antes) ---\r\ninterface IPersonas {\r\n    struct Persona {\r\n        string nombres;\r\n        string apellidos;\r\n        string cedula;\r\n        // ... (resto de campos ignorados para ahorrar espacio visual, pero existen)\r\n    }\r\n    function obtenerIdPorCi(string memory _ci) external view returns (uint256);\r\n    function obtenerDatosPersona(uint256 _id) external view returns (Persona memory);\r\n}\r\n\r\ncontract Donaciones {\r\n\r\n    // 1. OPTIMIZACIN: Quitamos Nombres y Apellidos.\r\n    // Solo guardamos lo esencial. La cdula es el enlace (Link) al otro contrato.\r\n    struct Donacion {\r\n        string Cedula;\r\n        uint256 Monto; // Cambi Monto_Donacion a Monto (ms limpio)\r\n    }\r\n\r\n    // 2. NUEVO: Evento.\r\n    // Esto es lo que React escuchar. Aqu SI podemos mandar el nombre\r\n    // porque los logs son baratos, pero no se guardan en el \"disco duro\" del contrato.\r\n    event NuevaDonacion(\r\n        string indexed cedula, \r\n        string nombres, \r\n        string apellidos, \r\n        uint256 monto\r\n    );\r\n\r\n    uint256 private nextId = 1;\r\n    uint256 public totalRecaudado;\r\n    address public registroCivilAddress;\r\n\r\n    mapping(uint256 => Donacion) private donaciones;\r\n    mapping(string => uint256) private ci2Donacion;\r\n\r\n    function setRegistroCivilAddress(address _address) public {\r\n        registroCivilAddress = _address;\r\n    }\r\n\r\n    // Usamos 'calldata' en vez de 'memory' para ahorrar gas en los argumentos\r\n    function RegistrarDonantes(string calldata _cedula, uint256 _montoDonacion) public {\r\n        \r\n        require(ci2Donacion[_cedula] == 0, \"Esta cedula ya dono anteriormente\");\r\n        require(registroCivilAddress != address(0), \"Contrato Registro Civil no conectado\");\r\n        require(_montoDonacion > 0, \"La donacion debe ser mayor a 0\");\r\n\r\n        // A. Validar existencia en el otro contrato\r\n        uint256 idPersonaEnRegistro = IPersonas(registroCivilAddress).obtenerIdPorCi(_cedula);\r\n        \r\n        // SEGURIDAD: Si el contrato del profe devuelve 0 cuando no existe, hay que validarlo.\r\n        require(idPersonaEnRegistro != 0, \"La cedula no existe en el Registro Civil\");\r\n\r\n        // B. Solo traemos los datos para emitirlos en el evento, NO para guardarlos.\r\n        IPersonas.Persona memory datosPersona = IPersonas(registroCivilAddress).obtenerDatosPersona(idPersonaEnRegistro);\r\n\r\n        // C. Guardamos solo lo esencial\r\n        uint256 id = nextId;\r\n        ci2Donacion[_cedula] = id;\r\n\r\n        donaciones[id] = Donacion({\r\n            Cedula: _cedula,\r\n            Monto: _montoDonacion\r\n        });\r\n\r\n        totalRecaudado += _montoDonacion; \r\n        nextId++;\r\n\r\n        // D. EMITIMOS EL EVENTO\r\n        // Aqu es donde React se entera de quin don.\r\n        emit NuevaDonacion(\r\n            _cedula, \r\n            datosPersona.nombres, \r\n            datosPersona.apellidos, \r\n            _montoDonacion\r\n        );\r\n    }\r\n\r\n    // Funcin de lectura simplificada\r\n    function obtenerDonacionPorCI(string memory _cedula) public view returns (Donacion memory) {\r\n        uint256 id = ci2Donacion[_cedula];\r\n        require(id != 0, unicode\"No se encontr donacin para esta cdula\");\r\n        return donaciones[id];\r\n    }\r\n}",
  "sourcePath": "C:\\Users\\Usuario\\Desktop\\Solidity\\BACK\\smart-contracts\\contracts\\Donations.sol",
  "compiler": {
    "name": "solc",
    "version": "0.8.0+commit.c7dfd78e.Emscripten.clang"
  },
  "schemaVersion": "3.4.16",
  "updatedAt": "2025-12-15T21:56:56.131Z",
  "networkType": "ethereum",
  "devdoc": {
    "kind": "dev",
    "methods": {},
    "version": 1
  },
  "userdoc": {
    "kind": "user",
    "methods": {},
    "version": 1
  }
}