{
  "contractName": "Donaciones",
  "abi": [
    {
      "inputs": [
        {
          "internalType": "address",
          "name": "_registroCivilAddress",
          "type": "address"
        },
        {
          "internalType": "address payable",
          "name": "_cuentaBeneficiaria",
          "type": "address"
        }
      ],
      "stateMutability": "nonpayable",
      "type": "constructor"
    },
    {
      "anonymous": false,
      "inputs": [
        {
          "indexed": false,
          "internalType": "address",
          "name": "donante",
          "type": "address"
        },
        {
          "indexed": false,
          "internalType": "string",
          "name": "cedula",
          "type": "string"
        },
        {
          "indexed": false,
          "internalType": "string",
          "name": "nombres",
          "type": "string"
        },
        {
          "indexed": false,
          "internalType": "string",
          "name": "apellidos",
          "type": "string"
        },
        {
          "indexed": false,
          "internalType": "uint256",
          "name": "monto",
          "type": "uint256"
        },
        {
          "indexed": false,
          "internalType": "uint256",
          "name": "fecha",
          "type": "uint256"
        }
      ],
      "name": "NuevaDonacion",
      "type": "event"
    },
    {
      "inputs": [],
      "name": "cuentaBeneficiaria",
      "outputs": [
        {
          "internalType": "address payable",
          "name": "",
          "type": "address"
        }
      ],
      "stateMutability": "view",
      "type": "function",
      "constant": true
    },
    {
      "inputs": [],
      "name": "owner",
      "outputs": [
        {
          "internalType": "address",
          "name": "",
          "type": "address"
        }
      ],
      "stateMutability": "view",
      "type": "function",
      "constant": true
    },
    {
      "inputs": [],
      "name": "registroCivilAddress",
      "outputs": [
        {
          "internalType": "address",
          "name": "",
          "type": "address"
        }
      ],
      "stateMutability": "view",
      "type": "function",
      "constant": true
    },
    {
      "inputs": [],
      "name": "totalRecaudado",
      "outputs": [
        {
          "internalType": "uint256",
          "name": "",
          "type": "uint256"
        }
      ],
      "stateMutability": "view",
      "type": "function",
      "constant": true
    },
    {
      "inputs": [
        {
          "internalType": "address",
          "name": "_address",
          "type": "address"
        }
      ],
      "name": "setRegistroCivilAddress",
      "outputs": [],
      "stateMutability": "nonpayable",
      "type": "function"
    },
    {
      "inputs": [
        {
          "internalType": "address payable",
          "name": "_nuevaCuenta",
          "type": "address"
        }
      ],
      "name": "cambiarCuentaBeneficiaria",
      "outputs": [],
      "stateMutability": "nonpayable",
      "type": "function"
    },
    {
      "inputs": [
        {
          "internalType": "string",
          "name": "_cedula",
          "type": "string"
        },
        {
          "internalType": "uint256",
          "name": "_montoDonacion",
          "type": "uint256"
        }
      ],
      "name": "RegistrarDonantes",
      "outputs": [],
      "stateMutability": "payable",
      "type": "function",
      "payable": true
    },
    {
      "inputs": [
        {
          "internalType": "string",
          "name": "_cedula",
          "type": "string"
        }
      ],
      "name": "obtenerPersonaPorCI",
      "outputs": [
        {
          "internalType": "string",
          "name": "Nombres",
          "type": "string"
        },
        {
          "internalType": "string",
          "name": "Apellidos",
          "type": "string"
        },
        {
          "internalType": "uint256",
          "name": "Monto_Donacion",
          "type": "uint256"
        }
      ],
      "stateMutability": "view",
      "type": "function",
      "constant": true
    }
  ],
  "bytecode": "0x608060405260016000553480156200001657600080fd5b5060405162001a3038038062001a3083398181016040528101906200003c919062000135565b33600260006101000a81548173ffffffffffffffffffffffffffffffffffffffff021916908373ffffffffffffffffffffffffffffffffffffffff16021790555081600360006101000a81548173ffffffffffffffffffffffffffffffffffffffff021916908373ffffffffffffffffffffffffffffffffffffffff16021790555080600460006101000a81548173ffffffffffffffffffffffffffffffffffffffff021916908373ffffffffffffffffffffffffffffffffffffffff1602179055505050620001f2565b6000815190506200011881620001be565b92915050565b6000815190506200012f81620001d8565b92915050565b600080604083850312156200014957600080fd5b6000620001598582860162000107565b92505060206200016c858286016200011e565b9150509250929050565b600062000183826200019e565b9050919050565b600062000197826200019e565b9050919050565b600073ffffffffffffffffffffffffffffffffffffffff82169050919050565b620001c98162000176565b8114620001d557600080fd5b50565b620001e3816200018a565b8114620001ef57600080fd5b50565b61182e80620002026000396000f3fe60806040526004361061007b5760003560e01c80639bd512091161004e5780639bd512091461011b578063a0791a1414610146578063ba6887951461016f578063d4ccd1091461019a5761007b565b8063093d68c31461008057806322a2421e1461009c57806380acceb3146100c75780638da5cb5b146100f0575b600080fd5b61009a60048036038101906100959190610d99565b6101d9565b005b3480156100a857600080fd5b506100b161069e565b6040516100be9190611506565b60405180910390f35b3480156100d357600080fd5b506100ee60048036038101906100e99190610d47565b6106a4565b005b3480156100fc57600080fd5b50610105610778565b60405161011291906112cd565b60405180910390f35b34801561012757600080fd5b5061013061079e565b60405161013d91906112cd565b60405180910390f35b34801561015257600080fd5b5061016d60048036038101906101689190610d70565b6107c4565b005b34801561017b57600080fd5b50610184610908565b60405161019191906112e8565b60405180910390f35b3480156101a657600080fd5b506101c160048036038101906101bc9190610df1565b61092e565b6040516101d0939291906113c1565b60405180910390f35b600073ffffffffffffffffffffffffffffffffffffffff16600360009054906101000a900473ffffffffffffffffffffffffffffffffffffffff1673ffffffffffffffffffffffffffffffffffffffff16141561026b576040517f08c379a000000000000000000000000000000000000000000000000000000000815260040161026290611486565b60405180910390fd5b600081116102ae576040517f08c379a00000000000000000000000000000000000000000000000000000000081526004016102a5906114c6565b60405180910390fd5b8034146102f0576040517f08c379a00000000000000000000000000000000000000000000000000000000081526004016102e7906114e6565b60405180910390fd5b6000600360009054906101000a900473ffffffffffffffffffffffffffffffffffffffff16905060008173ffffffffffffffffffffffffffffffffffffffff16638aa64c5e86866040518363ffffffff1660e01b815260040161035492919061137b565b60206040518083038186803b15801561036c57600080fd5b505afa158015610380573d6000803e3d6000fd5b505050506040513d601f19601f820116820180604052508101906103a49190610e9e565b905060008114156103ea576040517f08c379a00000000000000000000000000000000000000000000000000000000081526004016103e190611446565b60405180910390fd5b6000808373ffffffffffffffffffffffffffffffffffffffff16633c0c5b6f88886040518363ffffffff1660e01b815260040161042892919061137b565b60006040518083038186803b15801561044057600080fd5b505afa158015610454573d6000803e3d6000fd5b505050506040513d6000823e3d601f19601f8201168201806040525081019061047d9190610e32565b91509150600080549050806006898960405161049a929190611288565b908152602001604051809103902081905550604051806060016040528089898080601f016020809104026020016040519081016040528093929190818152602001838380828437600081840152601f19601f8201169050808301925050505050505081526020018781526020014281525060056000838152602001908152602001600020600082015181600001908051906020019061053a929190610b36565b506020820151816001015560408201518160020155905050856001600082825461056491906115b4565b9250508190555060008081548092919061057d906116cc565b91905055506000600460009054906101000a900473ffffffffffffffffffffffffffffffffffffffff1673ffffffffffffffffffffffffffffffffffffffff16346040516105ca906112b8565b60006040518083038185875af1925050503d8060008114610607576040519150601f19603f3d011682016040523d82523d6000602084013e61060c565b606091505b5050905080610650576040517f08c379a000000000000000000000000000000000000000000000000000000000815260040161064790611406565b60405180910390fd5b7f9aa1a35bef6a8c0d234f32c212f8bf3da2cb62316a672f48781121e441ac2eb6338a8a87878c4260405161068b9796959493929190611303565b60405180910390a1505050505050505050565b60015481565b600260009054906101000a900473ffffffffffffffffffffffffffffffffffffffff1673ffffffffffffffffffffffffffffffffffffffff163373ffffffffffffffffffffffffffffffffffffffff1614610734576040517f08c379a000000000000000000000000000000000000000000000000000000000815260040161072b906114a6565b60405180910390fd5b80600360006101000a81548173ffffffffffffffffffffffffffffffffffffffff021916908373ffffffffffffffffffffffffffffffffffffffff16021790555050565b600260009054906101000a900473ffffffffffffffffffffffffffffffffffffffff1681565b600360009054906101000a900473ffffffffffffffffffffffffffffffffffffffff1681565b600260009054906101000a900473ffffffffffffffffffffffffffffffffffffffff1673ffffffffffffffffffffffffffffffffffffffff163373ffffffffffffffffffffffffffffffffffffffff1614610854576040517f08c379a000000000000000000000000000000000000000000000000000000000815260040161084b906114a6565b60405180910390fd5b600073ffffffffffffffffffffffffffffffffffffffff168173ffffffffffffffffffffffffffffffffffffffff1614156108c4576040517f08c379a00000000000000000000000000000000000000000000000000000000081526004016108bb90611466565b60405180910390fd5b80600460006101000a81548173ffffffffffffffffffffffffffffffffffffffff021916908373ffffffffffffffffffffffffffffffffffffffff16021790555050565b600460009054906101000a900473ffffffffffffffffffffffffffffffffffffffff1681565b60608060008060068560405161094491906112a1565b90815260200160405180910390205490506000811415610999576040517f08c379a000000000000000000000000000000000000000000000000000000000815260040161099090611426565b60405180910390fd5b6000600560008381526020019081526020016000206040518060600160405290816000820180546109c99061169a565b80601f01602080910402602001604051908101604052809291908181526020018280546109f59061169a565b8015610a425780601f10610a1757610100808354040283529160200191610a42565b820191906000526020600020905b815481529060010190602001808311610a2557829003601f168201915b505050505081526020016001820154815260200160028201548152505090506000600360009054906101000a900473ffffffffffffffffffffffffffffffffffffffff1690506000808273ffffffffffffffffffffffffffffffffffffffff16633c0c5b6f8a6040518263ffffffff1660e01b8152600401610ac4919061139f565b60006040518083038186803b158015610adc57600080fd5b505afa158015610af0573d6000803e3d6000fd5b505050506040513d6000823e3d601f19601f82011682018060405250810190610b199190610e32565b915091508181856020015197509750975050505050509193909250565b828054610b429061169a565b90600052602060002090601f016020900481019282610b645760008555610bab565b82601f10610b7d57805160ff1916838001178555610bab565b82800160010185558215610bab579182015b82811115610baa578251825591602001919060010190610b8f565b5b509050610bb89190610bbc565b5090565b5b80821115610bd5576000816000905550600101610bbd565b5090565b6000610bec610be784611552565b611521565b905082815260208101848484011115610c0457600080fd5b610c0f848285611658565b509392505050565b6000610c2a610c2584611552565b611521565b905082815260208101848484011115610c4257600080fd5b610c4d848285611667565b509392505050565b600081359050610c64816117b3565b92915050565b600081359050610c79816117ca565b92915050565b60008083601f840112610c9157600080fd5b8235905067ffffffffffffffff811115610caa57600080fd5b602083019150836001820283011115610cc257600080fd5b9250929050565b600082601f830112610cda57600080fd5b8135610cea848260208601610bd9565b91505092915050565b600082601f830112610d0457600080fd5b8151610d14848260208601610c17565b91505092915050565b600081359050610d2c816117e1565b92915050565b600081519050610d41816117e1565b92915050565b600060208284031215610d5957600080fd5b6000610d6784828501610c55565b91505092915050565b600060208284031215610d8257600080fd5b6000610d9084828501610c6a565b91505092915050565b600080600060408486031215610dae57600080fd5b600084013567ffffffffffffffff811115610dc857600080fd5b610dd486828701610c7f565b93509350506020610de786828701610d1d565b9150509250925092565b600060208284031215610e0357600080fd5b600082013567ffffffffffffffff811115610e1d57600080fd5b610e2984828501610cc9565b91505092915050565b60008060408385031215610e4557600080fd5b600083015167ffffffffffffffff811115610e5f57600080fd5b610e6b85828601610cf3565b925050602083015167ffffffffffffffff811115610e8857600080fd5b610e9485828601610cf3565b9150509250929050565b600060208284031215610eb057600080fd5b6000610ebe84828501610d32565b91505092915050565b610ed08161161c565b82525050565b610edf8161160a565b82525050565b6000610ef18385611598565b9350610efe838584611658565b610f07836117a2565b840190509392505050565b6000610f1e83856115a9565b9350610f2b838584611658565b82840190509392505050565b6000610f4282611582565b610f4c8185611598565b9350610f5c818560208601611667565b610f65816117a2565b840191505092915050565b6000610f7b82611582565b610f8581856115a9565b9350610f95818560208601611667565b80840191505092915050565b6000610fae602483611598565b91507f46616c6c6f20656c20656e76696f206465204554482061206c612066756e646160008301527f63696f6e000000000000000000000000000000000000000000000000000000006020830152604082019050919050565b6000611014603083611598565b91507f4e6f20736520656e636f6e74726f206e696e67756e6120646f6e6163696f6e2060008301527f70617261206573746120636564756c61000000000000000000000000000000006020830152604082019050919050565b600061107a602883611598565b91507f4c6120636564756c61206e6f2065786973746520656e20656c2052656769737460008301527f726f20436976696c0000000000000000000000000000000000000000000000006020830152604082019050919050565b60006110e0601283611598565b91507f446972656363696f6e20696e76616c69646100000000000000000000000000006000830152602082019050919050565b6000611120602483611598565b91507f436f6e747261746f20526567697374726f20436976696c206e6f20636f6e656360008301527f7461646f000000000000000000000000000000000000000000000000000000006020830152604082019050919050565b600061118660008361158d565b9150600082019050919050565b60006111a0601f83611598565b91507f4e6f207469656e6573207065726d69736f732028536f6c6f2041646d696e29006000830152602082019050919050565b60006111e0601e83611598565b91507f4c6120646f6e6163696f6e206465626520736572206d61796f722061203000006000830152602082019050919050565b6000611220603083611598565b91507f456c206d6f6e746f20656e766961646f206e6f20636f696e6369646520636f6e60008301527f20656c2076616c6f7220656e20455448000000000000000000000000000000006020830152604082019050919050565b6112828161164e565b82525050565b6000611295828486610f12565b91508190509392505050565b60006112ad8284610f70565b915081905092915050565b60006112c382611179565b9150819050919050565b60006020820190506112e26000830184610ed6565b92915050565b60006020820190506112fd6000830184610ec7565b92915050565b600060c082019050611318600083018a610ed6565b818103602083015261132b81888a610ee5565b9050818103604083015261133f8187610f37565b905081810360608301526113538186610f37565b90506113626080830185611279565b61136f60a0830184611279565b98975050505050505050565b60006020820190508181036000830152611396818486610ee5565b90509392505050565b600060208201905081810360008301526113b98184610f37565b905092915050565b600060608201905081810360008301526113db8186610f37565b905081810360208301526113ef8185610f37565b90506113fe6040830184611279565b949350505050565b6000602082019050818103600083015261141f81610fa1565b9050919050565b6000602082019050818103600083015261143f81611007565b9050919050565b6000602082019050818103600083015261145f8161106d565b9050919050565b6000602082019050818103600083015261147f816110d3565b9050919050565b6000602082019050818103600083015261149f81611113565b9050919050565b600060208201905081810360008301526114bf81611193565b9050919050565b600060208201905081810360008301526114df816111d3565b9050919050565b600060208201905081810360008301526114ff81611213565b9050919050565b600060208201905061151b6000830184611279565b92915050565b6000604051905081810181811067ffffffffffffffff8211171561154857611547611773565b5b8060405250919050565b600067ffffffffffffffff82111561156d5761156c611773565b5b601f19601f8301169050602081019050919050565b600081519050919050565b600081905092915050565b600082825260208201905092915050565b600081905092915050565b60006115bf8261164e565b91506115ca8361164e565b9250827fffffffffffffffffffffffffffffffffffffffffffffffffffffffffffffffff038211156115ff576115fe611715565b5b828201905092915050565b60006116158261162e565b9050919050565b60006116278261162e565b9050919050565b600073ffffffffffffffffffffffffffffffffffffffff82169050919050565b6000819050919050565b82818337600083830152505050565b60005b8381101561168557808201518184015260208101905061166a565b83811115611694576000848401525b50505050565b600060028204905060018216806116b257607f821691505b602082108114156116c6576116c5611744565b5b50919050565b60006116d78261164e565b91507fffffffffffffffffffffffffffffffffffffffffffffffffffffffffffffffff82141561170a57611709611715565b5b600182019050919050565b7f4e487b7100000000000000000000000000000000000000000000000000000000600052601160045260246000fd5b7f4e487b7100000000000000000000000000000000000000000000000000000000600052602260045260246000fd5b7f4e487b7100000000000000000000000000000000000000000000000000000000600052604160045260246000fd5b6000601f19601f8301169050919050565b6117bc8161160a565b81146117c757600080fd5b50565b6117d38161161c565b81146117de57600080fd5b50565b6117ea8161164e565b81146117f557600080fd5b5056fea2646970667358221220c49a8f3c3f7e9f359455ec5a2a634c2253cde428d156402108f5ff30d58c9f1b64736f6c63430008000033",
  "immutableReferences": {},
  "source": "// SPDX-License-Identifier: MIT\npragma solidity ^0.8.0;\n\ninterface IPersonas {\n    function obtenerIdPorCi(string memory _ci) external view returns (uint256);\n    function obtenerNombresApellidos(string memory _cedula) external view returns (string memory, string memory);\n}\n\ncontract Donaciones {\n\n    // Estructura de datos\n    struct Donacion {\n        string Cedula;\n        uint256 Monto; \n        uint256 Fecha; // Agregamos fecha para registro interno\n    }\n\n    // EVENTO OPTIMIZADO PARA TU FRONTEND\n    // 1. 'address donante': Para mostrar la wallet (0x...)\n    // 2. 'string cedula': SIN 'indexed' para que React lo lea como texto plano\n    event NuevaDonacion(\n        address donante,\n        string cedula, \n        string nombres, \n        string apellidos, \n        uint256 monto,\n        uint256 fecha\n    );\n\n    uint256 private nextId = 1;\n    uint256 public totalRecaudado;\n    \n    // Variables de direccin\n    address public owner; // El dueo del contrato\n    address public registroCivilAddress; \n    address payable public cuentaBeneficiaria; \n\n    // Mappings\n    mapping(uint256 => Donacion) private donaciones;\n    mapping(string => uint256) private ci2Donacion;\n\n    // MODIFIER: Solo el dueo puede ejecutar esto\n    modifier onlyOwner() {\n        require(msg.sender == owner, \"No tienes permisos (Solo Admin)\");\n        _;\n    }\n\n    constructor(address _registroCivilAddress, address payable _cuentaBeneficiaria) {\n        owner = msg.sender; // T eres el dueo al desplegar\n        registroCivilAddress = _registroCivilAddress;\n        cuentaBeneficiaria = _cuentaBeneficiaria;\n    }\n\n    // --- FUNCIONES ADMINISTRATIVAS PROTEGIDAS ---\n    \n    function setRegistroCivilAddress(address _address) public onlyOwner {\n        registroCivilAddress = _address;\n    }\n\n    function cambiarCuentaBeneficiaria(address payable _nuevaCuenta) public onlyOwner {\n        require(_nuevaCuenta != address(0), \"Direccion invalida\");\n        cuentaBeneficiaria = _nuevaCuenta;\n    }\n\n    // --- LGICA PRINCIPAL ---\n\n    function RegistrarDonantes(string calldata _cedula, uint256 _montoDonacion) public payable {\n        \n        // 1. CHECKS\n        require(registroCivilAddress != address(0), \"Contrato Registro Civil no conectado\");\n        require(_montoDonacion > 0, \"La donacion debe ser mayor a 0\");\n        \n        // Validacin estricta del dinero enviado\n        require(msg.value == _montoDonacion, \"El monto enviado no coincide con el valor en ETH\");\n\n        // Verificamos existencia en el otro contrato\n        IPersonas registroCivil = IPersonas(registroCivilAddress);\n        uint256 idPersonaEnRegistro = registroCivil.obtenerIdPorCi(_cedula);\n        require(idPersonaEnRegistro != 0, \"La cedula no existe en el Registro Civil\");\n\n        // Obtenemos nombres para el evento\n        (string memory nombre, string memory apellido) = registroCivil.obtenerNombresApellidos(_cedula);\n\n        // 2. EFFECTS\n        uint256 id = nextId;\n        ci2Donacion[_cedula] = id; // Actualizamos a la ltima donacin\n\n        donaciones[id] = Donacion({\n            Cedula: _cedula,\n            Monto: _montoDonacion,\n            Fecha: block.timestamp\n        });\n\n        totalRecaudado += _montoDonacion; \n        nextId++;\n\n        // 3. INTERACTIONS (Enviar dinero a la fundacin)\n        (bool success, ) = cuentaBeneficiaria.call{value: msg.value}(\"\");\n        require(success, \"Fallo el envio de ETH a la fundacion\");\n\n        // 4. EMITIR EVENTO (Con Wallet y Fecha)\n        emit NuevaDonacion(msg.sender, _cedula, nombre, apellido, _montoDonacion, block.timestamp);\n    }\n\n    function obtenerPersonaPorCI(string memory _cedula) public view returns (string memory Nombres, string memory Apellidos, uint256 Monto_Donacion) {\n        uint256 id = ci2Donacion[_cedula];\n        require(id != 0, \"No se encontro ninguna donacion para esta cedula\");\n        \n        Donacion memory d = donaciones[id];\n        IPersonas registroCivil = IPersonas(registroCivilAddress);\n        (string memory nom, string memory ape) = registroCivil.obtenerNombresApellidos(_cedula);\n        \n        return (nom, ape, d.Monto);\n    }\n}",
  "sourcePath": "/home/anders/Escritorio/Solidarity/BACK/smart-contracts/contracts/Donations.sol",
  "compiler": {
    "name": "solc",
    "version": "0.8.0+commit.c7dfd78e.Emscripten.clang"
  },
  "schemaVersion": "3.4.16",
  "updatedAt": "2025-12-16T14:48:25.503Z",
  "networkType": "ethereum",
  "devdoc": {
    "kind": "dev",
    "methods": {},
    "version": 1
  },
  "userdoc": {
    "kind": "user",
    "methods": {},
    "version": 1
  }
}