{
  "contractName": "Donaciones",
  "abi": [
    {
      "inputs": [
        {
          "internalType": "address",
          "name": "_registroCivilAddress",
          "type": "address"
        },
        {
          "internalType": "address payable",
          "name": "_cuentaBeneficiaria",
          "type": "address"
        }
      ],
      "stateMutability": "nonpayable",
      "type": "constructor"
    },
    {
      "anonymous": false,
      "inputs": [
        {
          "indexed": false,
          "internalType": "address",
          "name": "donante",
          "type": "address"
        },
        {
          "indexed": false,
          "internalType": "string",
          "name": "cedula",
          "type": "string"
        },
        {
          "indexed": false,
          "internalType": "string",
          "name": "nombres",
          "type": "string"
        },
        {
          "indexed": false,
          "internalType": "string",
          "name": "apellidos",
          "type": "string"
        },
        {
          "indexed": false,
          "internalType": "uint256",
          "name": "monto",
          "type": "uint256"
        },
        {
          "indexed": false,
          "internalType": "uint256",
          "name": "fecha",
          "type": "uint256"
        }
      ],
      "name": "NuevaDonacion",
      "type": "event"
    },
    {
      "inputs": [],
      "name": "cuentaBeneficiaria",
      "outputs": [
        {
          "internalType": "address payable",
          "name": "",
          "type": "address"
        }
      ],
      "stateMutability": "view",
      "type": "function",
      "constant": true
    },
    {
      "inputs": [],
      "name": "owner",
      "outputs": [
        {
          "internalType": "address",
          "name": "",
          "type": "address"
        }
      ],
      "stateMutability": "view",
      "type": "function",
      "constant": true
    },
    {
      "inputs": [],
      "name": "registroCivilAddress",
      "outputs": [
        {
          "internalType": "address",
          "name": "",
          "type": "address"
        }
      ],
      "stateMutability": "view",
      "type": "function",
      "constant": true
    },
    {
      "inputs": [],
      "name": "totalRecaudado",
      "outputs": [
        {
          "internalType": "uint256",
          "name": "",
          "type": "uint256"
        }
      ],
      "stateMutability": "view",
      "type": "function",
      "constant": true
    },
    {
      "inputs": [
        {
          "internalType": "address",
          "name": "_address",
          "type": "address"
        }
      ],
      "name": "setRegistroCivilAddress",
      "outputs": [],
      "stateMutability": "nonpayable",
      "type": "function"
    },
    {
      "inputs": [
        {
          "internalType": "address payable",
          "name": "_nuevaCuenta",
          "type": "address"
        }
      ],
      "name": "cambiarCuentaBeneficiaria",
      "outputs": [],
      "stateMutability": "nonpayable",
      "type": "function"
    },
    {
      "inputs": [
        {
          "internalType": "string",
          "name": "_cedula",
          "type": "string"
        },
        {
          "internalType": "uint256",
          "name": "_montoDonacion",
          "type": "uint256"
        }
      ],
      "name": "RegistrarDonantes",
      "outputs": [],
      "stateMutability": "payable",
      "type": "function",
      "payable": true
    },
    {
      "inputs": [
        {
          "internalType": "string",
          "name": "_cedula",
          "type": "string"
        }
      ],
      "name": "obtenerUltimaDonacionPorCI",
      "outputs": [
        {
          "internalType": "string",
          "name": "Nombres",
          "type": "string"
        },
        {
          "internalType": "string",
          "name": "Apellidos",
          "type": "string"
        },
        {
          "internalType": "uint256",
          "name": "Monto_Donacion",
          "type": "uint256"
        }
      ],
      "stateMutability": "view",
      "type": "function",
      "constant": true
    }
  ],
  "bytecode": "0x608060405260016000553480156200001657600080fd5b5060405162001b6d38038062001b6d83398181016040528101906200003c91906200021b565b600073ffffffffffffffffffffffffffffffffffffffff168273ffffffffffffffffffffffffffffffffffffffff161415620000af576040517f08c379a0000000000000000000000000000000000000000000000000000000008152600401620000a69062000328565b60405180910390fd5b600073ffffffffffffffffffffffffffffffffffffffff168173ffffffffffffffffffffffffffffffffffffffff16141562000122576040517f08c379a0000000000000000000000000000000000000000000000000000000008152600401620001199062000306565b60405180910390fd5b33600260006101000a81548173ffffffffffffffffffffffffffffffffffffffff021916908373ffffffffffffffffffffffffffffffffffffffff16021790555081600360006101000a81548173ffffffffffffffffffffffffffffffffffffffff021916908373ffffffffffffffffffffffffffffffffffffffff16021790555080600460006101000a81548173ffffffffffffffffffffffffffffffffffffffff021916908373ffffffffffffffffffffffffffffffffffffffff1602179055505050620003d7565b600081519050620001fe81620003a3565b92915050565b6000815190506200021581620003bd565b92915050565b600080604083850312156200022f57600080fd5b60006200023f85828601620001ed565b9250506020620002528582860162000204565b9150509250929050565b60006200026b601f836200034a565b91507f446972656363696f6e2042656e65666963696172696120696e76616c696461006000830152602082019050919050565b6000620002ad6021836200034a565b91507f446972656363696f6e20526567697374726f20436976696c20696e76616c696460008301527f61000000000000000000000000000000000000000000000000000000000000006020830152604082019050919050565b6000602082019050818103600083015262000321816200025c565b9050919050565b6000602082019050818103600083015262000343816200029e565b9050919050565b600082825260208201905092915050565b6000620003688262000383565b9050919050565b60006200037c8262000383565b9050919050565b600073ffffffffffffffffffffffffffffffffffffffff82169050919050565b620003ae816200035b565b8114620003ba57600080fd5b50565b620003c8816200036f565b8114620003d457600080fd5b50565b61178680620003e76000396000f3fe60806040526004361061007b5760003560e01c80638da5cb5b1161004e5780638da5cb5b1461012f5780639bd512091461015a578063a0791a1414610185578063ba688795146101ae5761007b565b8063093d68c31461008057806315b75ceb1461009c57806322a2421e146100db57806380acceb314610106575b600080fd5b61009a60048036038101906100959190610d77565b6101d9565b005b3480156100a857600080fd5b506100c360048036038101906100be9190610dcf565b61060c565b6040516100d293929190611339565b60405180910390f35b3480156100e757600080fd5b506100f0610814565b6040516100fd919061145e565b60405180910390f35b34801561011257600080fd5b5061012d60048036038101906101289190610d25565b61081a565b005b34801561013b57600080fd5b5061014461095e565b6040516101519190611245565b60405180910390f35b34801561016657600080fd5b5061016f610984565b60405161017c9190611245565b60405180910390f35b34801561019157600080fd5b506101ac60048036038101906101a79190610d4e565b6109aa565b005b3480156101ba57600080fd5b506101c3610aee565b6040516101d09190611260565b60405180910390f35b6000811161021c576040517f08c379a00000000000000000000000000000000000000000000000000000000081526004016102139061137e565b60405180910390fd5b80341461025e576040517f08c379a00000000000000000000000000000000000000000000000000000000081526004016102559061141e565b60405180910390fd5b6000600360009054906101000a900473ffffffffffffffffffffffffffffffffffffffff16905060008173ffffffffffffffffffffffffffffffffffffffff16638aa64c5e86866040518363ffffffff1660e01b81526004016102c29291906112f3565b60206040518083038186803b1580156102da57600080fd5b505afa1580156102ee573d6000803e3d6000fd5b505050506040513d601f19601f820116820180604052508101906103129190610e7c565b90506000811415610358576040517f08c379a000000000000000000000000000000000000000000000000000000000815260040161034f9061139e565b60405180910390fd5b6000808373ffffffffffffffffffffffffffffffffffffffff16633c0c5b6f88886040518363ffffffff1660e01b81526004016103969291906112f3565b60006040518083038186803b1580156103ae57600080fd5b505afa1580156103c2573d6000803e3d6000fd5b505050506040513d6000823e3d601f19601f820116820180604052508101906103eb9190610e10565b915091506000805490508060068989604051610408929190611200565b908152602001604051809103902081905550604051806060016040528089898080601f016020809104026020016040519081016040528093929190818152602001838380828437600081840152601f19601f820116905080830192505050505050508152602001878152602001428152506005600083815260200190815260200160002060008201518160000190805190602001906104a8929190610b14565b50602082015181600101556040820151816002015590505085600160008282546104d2919061150c565b925050819055506000808154809291906104eb90611624565b91905055506000600460009054906101000a900473ffffffffffffffffffffffffffffffffffffffff1673ffffffffffffffffffffffffffffffffffffffff163460405161053890611230565b60006040518083038185875af1925050503d8060008114610575576040519150601f19603f3d011682016040523d82523d6000602084013e61057a565b606091505b50509050806105be576040517f08c379a00000000000000000000000000000000000000000000000000000000081526004016105b59061143e565b60405180910390fd5b7f9aa1a35bef6a8c0d234f32c212f8bf3da2cb62316a672f48781121e441ac2eb6338a8a87878c426040516105f9979695949392919061127b565b60405180910390a1505050505050505050565b6060806000806006856040516106229190611219565b90815260200160405180910390205490506000811415610677576040517f08c379a000000000000000000000000000000000000000000000000000000000815260040161066e906113de565b60405180910390fd5b6000600560008381526020019081526020016000206040518060600160405290816000820180546106a7906115f2565b80601f01602080910402602001604051908101604052809291908181526020018280546106d3906115f2565b80156107205780601f106106f557610100808354040283529160200191610720565b820191906000526020600020905b81548152906001019060200180831161070357829003601f168201915b505050505081526020016001820154815260200160028201548152505090506000600360009054906101000a900473ffffffffffffffffffffffffffffffffffffffff1690506000808273ffffffffffffffffffffffffffffffffffffffff16633c0c5b6f8a6040518263ffffffff1660e01b81526004016107a29190611317565b60006040518083038186803b1580156107ba57600080fd5b505afa1580156107ce573d6000803e3d6000fd5b505050506040513d6000823e3d601f19601f820116820180604052508101906107f79190610e10565b915091508181856020015197509750975050505050509193909250565b60015481565b600260009054906101000a900473ffffffffffffffffffffffffffffffffffffffff1673ffffffffffffffffffffffffffffffffffffffff163373ffffffffffffffffffffffffffffffffffffffff16146108aa576040517f08c379a00000000000000000000000000000000000000000000000000000000081526004016108a1906113be565b60405180910390fd5b600073ffffffffffffffffffffffffffffffffffffffff168173ffffffffffffffffffffffffffffffffffffffff16141561091a576040517f08c379a0000000000000000000000000000000000000000000000000000000008152600401610911906113fe565b60405180910390fd5b80600360006101000a81548173ffffffffffffffffffffffffffffffffffffffff021916908373ffffffffffffffffffffffffffffffffffffffff16021790555050565b600260009054906101000a900473ffffffffffffffffffffffffffffffffffffffff1681565b600360009054906101000a900473ffffffffffffffffffffffffffffffffffffffff1681565b600260009054906101000a900473ffffffffffffffffffffffffffffffffffffffff1673ffffffffffffffffffffffffffffffffffffffff163373ffffffffffffffffffffffffffffffffffffffff1614610a3a576040517f08c379a0000000000000000000000000000000000000000000000000000000008152600401610a31906113be565b60405180910390fd5b600073ffffffffffffffffffffffffffffffffffffffff168173ffffffffffffffffffffffffffffffffffffffff161415610aaa576040517f08c379a0000000000000000000000000000000000000000000000000000000008152600401610aa1906113fe565b60405180910390fd5b80600460006101000a81548173ffffffffffffffffffffffffffffffffffffffff021916908373ffffffffffffffffffffffffffffffffffffffff16021790555050565b600460009054906101000a900473ffffffffffffffffffffffffffffffffffffffff1681565b828054610b20906115f2565b90600052602060002090601f016020900481019282610b425760008555610b89565b82601f10610b5b57805160ff1916838001178555610b89565b82800160010185558215610b89579182015b82811115610b88578251825591602001919060010190610b6d565b5b509050610b969190610b9a565b5090565b5b80821115610bb3576000816000905550600101610b9b565b5090565b6000610bca610bc5846114aa565b611479565b905082815260208101848484011115610be257600080fd5b610bed8482856115b0565b509392505050565b6000610c08610c03846114aa565b611479565b905082815260208101848484011115610c2057600080fd5b610c2b8482856115bf565b509392505050565b600081359050610c428161170b565b92915050565b600081359050610c5781611722565b92915050565b60008083601f840112610c6f57600080fd5b8235905067ffffffffffffffff811115610c8857600080fd5b602083019150836001820283011115610ca057600080fd5b9250929050565b600082601f830112610cb857600080fd5b8135610cc8848260208601610bb7565b91505092915050565b600082601f830112610ce257600080fd5b8151610cf2848260208601610bf5565b91505092915050565b600081359050610d0a81611739565b92915050565b600081519050610d1f81611739565b92915050565b600060208284031215610d3757600080fd5b6000610d4584828501610c33565b91505092915050565b600060208284031215610d6057600080fd5b6000610d6e84828501610c48565b91505092915050565b600080600060408486031215610d8c57600080fd5b600084013567ffffffffffffffff811115610da657600080fd5b610db286828701610c5d565b93509350506020610dc586828701610cfb565b9150509250925092565b600060208284031215610de157600080fd5b600082013567ffffffffffffffff811115610dfb57600080fd5b610e0784828501610ca7565b91505092915050565b60008060408385031215610e2357600080fd5b600083015167ffffffffffffffff811115610e3d57600080fd5b610e4985828601610cd1565b925050602083015167ffffffffffffffff811115610e6657600080fd5b610e7285828601610cd1565b9150509250929050565b600060208284031215610e8e57600080fd5b6000610e9c84828501610d10565b91505092915050565b610eae81611574565b82525050565b610ebd81611562565b82525050565b6000610ecf83856114f0565b9350610edc8385846115b0565b610ee5836116fa565b840190509392505050565b6000610efc8385611501565b9350610f098385846115b0565b82840190509392505050565b6000610f20826114da565b610f2a81856114f0565b9350610f3a8185602086016115bf565b610f43816116fa565b840191505092915050565b6000610f59826114da565b610f638185611501565b9350610f738185602086016115bf565b80840191505092915050565b6000610f8c6018836114f0565b91507f4d6f6e746f206465626520736572206d61796f722061203000000000000000006000830152602082019050919050565b6000610fcc6028836114f0565b91507f436564756c61206e6f207265676973747261646120656e20656c20736973746560008301527f6d6120636976696c0000000000000000000000000000000000000000000000006020830152604082019050919050565b6000611032601d836114f0565b91507f536f6c6f2041646d696e3a204e6f207469656e6573207065726d69736f0000006000830152602082019050919050565b6000611072602e836114f0565b91507f4e6f2068617920646f6e6163696f6e657320726567697374726164617320706160008301527f7261206573746120636564756c610000000000000000000000000000000000006020830152604082019050919050565b60006110d86012836114f0565b91507f446972656363696f6e20696e76616c69646100000000000000000000000000006000830152602082019050919050565b60006111186000836114e5565b9150600082019050919050565b60006111326031836114f0565b91507f456c2045544820656e766961646f206e6f20636f696e6369646520636f6e206560008301527f6c206d6f6e746f206465636c617261646f0000000000000000000000000000006020830152604082019050919050565b60006111986021836114f0565b91507f4572726f7220656e7669616e646f204554482061206c612066756e646163696f60008301527f6e000000000000000000000000000000000000000000000000000000000000006020830152604082019050919050565b6111fa816115a6565b82525050565b600061120d828486610ef0565b91508190509392505050565b60006112258284610f4e565b915081905092915050565b600061123b8261110b565b9150819050919050565b600060208201905061125a6000830184610eb4565b92915050565b60006020820190506112756000830184610ea5565b92915050565b600060c082019050611290600083018a610eb4565b81810360208301526112a381888a610ec3565b905081810360408301526112b78187610f15565b905081810360608301526112cb8186610f15565b90506112da60808301856111f1565b6112e760a08301846111f1565b98975050505050505050565b6000602082019050818103600083015261130e818486610ec3565b90509392505050565b600060208201905081810360008301526113318184610f15565b905092915050565b600060608201905081810360008301526113538186610f15565b905081810360208301526113678185610f15565b905061137660408301846111f1565b949350505050565b6000602082019050818103600083015261139781610f7f565b9050919050565b600060208201905081810360008301526113b781610fbf565b9050919050565b600060208201905081810360008301526113d781611025565b9050919050565b600060208201905081810360008301526113f781611065565b9050919050565b60006020820190508181036000830152611417816110cb565b9050919050565b6000602082019050818103600083015261143781611125565b9050919050565b600060208201905081810360008301526114578161118b565b9050919050565b600060208201905061147360008301846111f1565b92915050565b6000604051905081810181811067ffffffffffffffff821117156114a05761149f6116cb565b5b8060405250919050565b600067ffffffffffffffff8211156114c5576114c46116cb565b5b601f19601f8301169050602081019050919050565b600081519050919050565b600081905092915050565b600082825260208201905092915050565b600081905092915050565b6000611517826115a6565b9150611522836115a6565b9250827fffffffffffffffffffffffffffffffffffffffffffffffffffffffffffffffff038211156115575761155661166d565b5b828201905092915050565b600061156d82611586565b9050919050565b600061157f82611586565b9050919050565b600073ffffffffffffffffffffffffffffffffffffffff82169050919050565b6000819050919050565b82818337600083830152505050565b60005b838110156115dd5780820151818401526020810190506115c2565b838111156115ec576000848401525b50505050565b6000600282049050600182168061160a57607f821691505b6020821081141561161e5761161d61169c565b5b50919050565b600061162f826115a6565b91507fffffffffffffffffffffffffffffffffffffffffffffffffffffffffffffffff8214156116625761166161166d565b5b600182019050919050565b7f4e487b7100000000000000000000000000000000000000000000000000000000600052601160045260246000fd5b7f4e487b7100000000000000000000000000000000000000000000000000000000600052602260045260246000fd5b7f4e487b7100000000000000000000000000000000000000000000000000000000600052604160045260246000fd5b6000601f19601f8301169050919050565b61171481611562565b811461171f57600080fd5b50565b61172b81611574565b811461173657600080fd5b50565b611742816115a6565b811461174d57600080fd5b5056fea26469706673582212202e1b4efedd567e123d8acb533c5a9c99c7851f6b48d46a25b8dbfebd918a6c5264736f6c63430008000033",
  "immutableReferences": {},
  "source": "// SPDX-License-Identifier: MIT\npragma solidity ^0.8.0;\n\ninterface IPersonas {\n    function obtenerIdPorCi(string memory _ci) external view returns (uint256);\n    function obtenerNombresApellidos(string memory _cedula) external view returns (string memory, string memory);\n}\n\ncontract Donaciones {\n\n    struct Donacion {\n        string Cedula;\n        uint256 Monto; \n        uint256 Fecha; \n    }\n\n    event NuevaDonacion(\n        address donante,\n        string cedula, \n        string nombres, \n        string apellidos, \n        uint256 monto,\n        uint256 fecha\n    );\n\n    uint256 private nextId = 1;\n    uint256 public totalRecaudado;\n    \n    address public owner; \n    address public registroCivilAddress; \n    address payable public cuentaBeneficiaria; \n\n    mapping(uint256 => Donacion) private donaciones;\n    mapping(string => uint256) private ci2Donacion;\n\n    modifier onlyOwner() {\n        require(msg.sender == owner, \"Solo Admin: No tienes permiso\");\n        _;\n    }\n\n    constructor(address _registroCivilAddress, address payable _cuentaBeneficiaria) {\n        require(_registroCivilAddress != address(0), \"Direccion Registro Civil invalida\");\n        require(_cuentaBeneficiaria != address(0), \"Direccion Beneficiaria invalida\");\n        \n        owner = msg.sender; \n        registroCivilAddress = _registroCivilAddress;\n        cuentaBeneficiaria = _cuentaBeneficiaria;\n    }\n\n    //  CORRECCIN IMPORTANTE: Agregado 'onlyOwner'\n    // Antes cualquiera poda romper tu contrato cambiando esto. Ahora solo t.\n    function setRegistroCivilAddress(address _address) public onlyOwner {\n        require(_address != address(0), \"Direccion invalida\");\n        registroCivilAddress = _address;\n    }\n\n    function cambiarCuentaBeneficiaria(address payable _nuevaCuenta) public onlyOwner {\n        require(_nuevaCuenta != address(0), \"Direccion invalida\");\n        cuentaBeneficiaria = _nuevaCuenta;\n    }\n\n    // --- LGICA PRINCIPAL (Pblica para que todos donen) ---\n\n    function RegistrarDonantes(string calldata _cedula, uint256 _montoDonacion) public payable {\n        \n        // 1. Validaciones bsicas\n        require(_montoDonacion > 0, \"Monto debe ser mayor a 0\");\n        require(msg.value == _montoDonacion, \"El ETH enviado no coincide con el monto declarado\");\n\n        // 2. Validacin con Registro Civil\n        IPersonas registroCivil = IPersonas(registroCivilAddress);\n        \n        // Verificamos si existe la persona\n        uint256 idPersonaEnRegistro = registroCivil.obtenerIdPorCi(_cedula);\n        require(idPersonaEnRegistro != 0, \"Cedula no registrada en el sistema civil\");\n\n        // Obtenemos datos para el evento (para que se vea bonito en el Front)\n        (string memory nombre, string memory apellido) = registroCivil.obtenerNombresApellidos(_cedula);\n\n        // 3. Guardar en almacenamiento\n        uint256 id = nextId;\n        ci2Donacion[_cedula] = id; \n\n        donaciones[id] = Donacion({\n            Cedula: _cedula,\n            Monto: _montoDonacion,\n            Fecha: block.timestamp\n        });\n\n        totalRecaudado += _montoDonacion; \n        nextId++;\n\n        // 4. Transferencia de dinero (Effects -> Interactions)\n        (bool success, ) = cuentaBeneficiaria.call{value: msg.value}(\"\");\n        require(success, \"Error enviando ETH a la fundacion\");\n\n        // 5. Notificar al mundo\n        emit NuevaDonacion(msg.sender, _cedula, nombre, apellido, _montoDonacion, block.timestamp);\n    }\n\n    function obtenerUltimaDonacionPorCI(string memory _cedula) public view returns (string memory Nombres, string memory Apellidos, uint256 Monto_Donacion) {\n        uint256 id = ci2Donacion[_cedula];\n        require(id != 0, \"No hay donaciones registradas para esta cedula\");\n        \n        Donacion memory d = donaciones[id];\n        IPersonas registroCivil = IPersonas(registroCivilAddress);\n        (string memory nom, string memory ape) = registroCivil.obtenerNombresApellidos(_cedula);\n        \n        return (nom, ape, d.Monto);\n    }\n}",
  "sourcePath": "/home/anders/Escritorio/Solidarity/BACK/smart-contracts/contracts/Donations.sol",
  "compiler": {
    "name": "solc",
    "version": "0.8.0+commit.c7dfd78e.Emscripten.clang"
  },
  "schemaVersion": "3.4.16",
  "updatedAt": "2025-12-17T05:51:35.030Z",
  "networkType": "ethereum",
  "devdoc": {
    "kind": "dev",
    "methods": {},
    "version": 1
  },
  "userdoc": {
    "kind": "user",
    "methods": {},
    "version": 1
  }
}