{
  "contractName": "Donaciones",
  "abi": [
    {
      "inputs": [
        {
          "internalType": "address",
          "name": "_registroCivilAddress",
          "type": "address"
        },
        {
          "internalType": "address payable",
          "name": "_cuentaBeneficiaria",
          "type": "address"
        }
      ],
      "stateMutability": "nonpayable",
      "type": "constructor"
    },
    {
      "anonymous": false,
      "inputs": [
        {
          "indexed": true,
          "internalType": "string",
          "name": "cedula",
          "type": "string"
        },
        {
          "indexed": false,
          "internalType": "string",
          "name": "nombres",
          "type": "string"
        },
        {
          "indexed": false,
          "internalType": "string",
          "name": "apellidos",
          "type": "string"
        },
        {
          "indexed": false,
          "internalType": "uint256",
          "name": "monto",
          "type": "uint256"
        }
      ],
      "name": "NuevaDonacion",
      "type": "event"
    },
    {
      "inputs": [],
      "name": "cuentaBeneficiaria",
      "outputs": [
        {
          "internalType": "address payable",
          "name": "",
          "type": "address"
        }
      ],
      "stateMutability": "view",
      "type": "function",
      "constant": true
    },
    {
      "inputs": [],
      "name": "registroCivilAddress",
      "outputs": [
        {
          "internalType": "address",
          "name": "",
          "type": "address"
        }
      ],
      "stateMutability": "view",
      "type": "function",
      "constant": true
    },
    {
      "inputs": [],
      "name": "totalRecaudado",
      "outputs": [
        {
          "internalType": "uint256",
          "name": "",
          "type": "uint256"
        }
      ],
      "stateMutability": "view",
      "type": "function",
      "constant": true
    },
    {
      "inputs": [
        {
          "internalType": "address",
          "name": "_address",
          "type": "address"
        }
      ],
      "name": "setRegistroCivilAddress",
      "outputs": [],
      "stateMutability": "nonpayable",
      "type": "function"
    },
    {
      "inputs": [
        {
          "internalType": "address payable",
          "name": "_nuevaCuenta",
          "type": "address"
        }
      ],
      "name": "cambiarCuentaBeneficiaria",
      "outputs": [],
      "stateMutability": "nonpayable",
      "type": "function"
    },
    {
      "inputs": [
        {
          "internalType": "string",
          "name": "_cedula",
          "type": "string"
        },
        {
          "internalType": "uint256",
          "name": "_montoDonacion",
          "type": "uint256"
        }
      ],
      "name": "RegistrarDonantes",
      "outputs": [],
      "stateMutability": "payable",
      "type": "function",
      "payable": true
    },
    {
      "inputs": [
        {
          "internalType": "string",
          "name": "_cedula",
          "type": "string"
        }
      ],
      "name": "obtenerPersonaPorCI",
      "outputs": [
        {
          "internalType": "string",
          "name": "Nombres",
          "type": "string"
        },
        {
          "internalType": "string",
          "name": "Apellidos",
          "type": "string"
        },
        {
          "internalType": "uint256",
          "name": "Monto_Donacion",
          "type": "uint256"
        }
      ],
      "stateMutability": "view",
      "type": "function",
      "constant": true
    }
  ],
  "bytecode": "0x608060405260016000553480156200001657600080fd5b50604051620017843803806200178483398181016040528101906200003c9190620000f4565b81600260006101000a81548173ffffffffffffffffffffffffffffffffffffffff021916908373ffffffffffffffffffffffffffffffffffffffff16021790555080600360006101000a81548173ffffffffffffffffffffffffffffffffffffffff021916908373ffffffffffffffffffffffffffffffffffffffff1602179055505050620001b1565b600081519050620000d7816200017d565b92915050565b600081519050620000ee8162000197565b92915050565b600080604083850312156200010857600080fd5b60006200011885828601620000c6565b92505060206200012b85828601620000dd565b9150509250929050565b600062000142826200015d565b9050919050565b600062000156826200015d565b9050919050565b600073ffffffffffffffffffffffffffffffffffffffff82169050919050565b620001888162000135565b81146200019457600080fd5b50565b620001a28162000149565b8114620001ae57600080fd5b50565b6115c380620001c16000396000f3fe6080604052600436106100705760003560e01c80639bd512091161004e5780639bd51209146100e5578063a0791a1414610110578063ba68879514610139578063d4ccd1091461016457610070565b8063093d68c31461007557806322a2421e1461009157806380acceb3146100bc575b600080fd5b61008f600480360381019061008a9190610c06565b6101a3565b005b34801561009d57600080fd5b506100a66106cb565b6040516100b3919061129b565b60405180910390f35b3480156100c857600080fd5b506100e360048036038101906100de9190610bb4565b6106d1565b005b3480156100f157600080fd5b506100fa610715565b60405161010791906110fa565b60405180910390f35b34801561011c57600080fd5b5061013760048036038101906101329190610bdd565b61073b565b005b34801561014557600080fd5b5061014e61077f565b60405161015b9190611115565b60405180910390f35b34801561017057600080fd5b5061018b60048036038101906101869190610c5e565b6107a5565b60405161019a93929190611176565b60405180910390f35b6000600584846040516101b79291906110b5565b90815260200160405180910390205414610206576040517f08c379a00000000000000000000000000000000000000000000000000000000081526004016101fd9061121b565b60405180910390fd5b600073ffffffffffffffffffffffffffffffffffffffff16600260009054906101000a900473ffffffffffffffffffffffffffffffffffffffff1673ffffffffffffffffffffffffffffffffffffffff161415610298576040517f08c379a000000000000000000000000000000000000000000000000000000000815260040161028f9061123b565b60405180910390fd5b600081116102db576040517f08c379a00000000000000000000000000000000000000000000000000000000081526004016102d29061125b565b60405180910390fd5b80341461031d576040517f08c379a00000000000000000000000000000000000000000000000000000000081526004016103149061127b565b60405180910390fd5b6000600260009054906101000a900473ffffffffffffffffffffffffffffffffffffffff16905060008173ffffffffffffffffffffffffffffffffffffffff16638aa64c5e86866040518363ffffffff1660e01b8152600401610381929190611130565b60206040518083038186803b15801561039957600080fd5b505afa1580156103ad573d6000803e3d6000fd5b505050506040513d601f19601f820116820180604052508101906103d19190610d0b565b90506000811415610417576040517f08c379a000000000000000000000000000000000000000000000000000000000815260040161040e906111db565b60405180910390fd5b6000808373ffffffffffffffffffffffffffffffffffffffff16633c0c5b6f88886040518363ffffffff1660e01b8152600401610455929190611130565b60006040518083038186803b15801561046d57600080fd5b505afa158015610481573d6000803e3d6000fd5b505050506040513d6000823e3d601f19601f820116820180604052508101906104aa9190610c9f565b9150915060008054905080600589896040516104c79291906110b5565b908152602001604051809103902081905550604051806040016040528089898080601f016020809104026020016040519081016040528093929190818152602001838380828437600081840152601f19601f820116905080830192505050505050508152602001878152506004600083815260200190815260200160002060008201518160000190805190602001906105619291906109a3565b506020820151816001015590505085600160008282546105819190611349565b9250508190555060008081548092919061059a90611461565b91905055506000600360009054906101000a900473ffffffffffffffffffffffffffffffffffffffff1673ffffffffffffffffffffffffffffffffffffffff16346040516105e7906110e5565b60006040518083038185875af1925050503d8060008114610624576040519150601f19603f3d011682016040523d82523d6000602084013e610629565b606091505b505090508061066d576040517f08c379a0000000000000000000000000000000000000000000000000000000008152600401610664906111bb565b60405180910390fd5b888860405161067d9291906110b5565b60405180910390207f4b21bb023fb461e35b3b2a2734252972eca6933bd7904e9f8819a9d7515c740c85858a6040516106b893929190611176565b60405180910390a2505050505050505050565b60015481565b80600260006101000a81548173ffffffffffffffffffffffffffffffffffffffff021916908373ffffffffffffffffffffffffffffffffffffffff16021790555050565b600260009054906101000a900473ffffffffffffffffffffffffffffffffffffffff1681565b80600360006101000a81548173ffffffffffffffffffffffffffffffffffffffff021916908373ffffffffffffffffffffffffffffffffffffffff16021790555050565b600360009054906101000a900473ffffffffffffffffffffffffffffffffffffffff1681565b6060806000806005856040516107bb91906110ce565b90815260200160405180910390205490506000811415610810576040517f08c379a0000000000000000000000000000000000000000000000000000000008152600401610807906111fb565b60405180910390fd5b6000600460008381526020019081526020016000206040518060400160405290816000820180546108409061142f565b80601f016020809104026020016040519081016040528092919081815260200182805461086c9061142f565b80156108b95780601f1061088e576101008083540402835291602001916108b9565b820191906000526020600020905b81548152906001019060200180831161089c57829003601f168201915b5050505050815260200160018201548152505090506000600260009054906101000a900473ffffffffffffffffffffffffffffffffffffffff1690506000808273ffffffffffffffffffffffffffffffffffffffff16633c0c5b6f8a6040518263ffffffff1660e01b81526004016109319190611154565b60006040518083038186803b15801561094957600080fd5b505afa15801561095d573d6000803e3d6000fd5b505050506040513d6000823e3d601f19601f820116820180604052508101906109869190610c9f565b915091508181856020015197509750975050505050509193909250565b8280546109af9061142f565b90600052602060002090601f0160209004810192826109d15760008555610a18565b82601f106109ea57805160ff1916838001178555610a18565b82800160010185558215610a18579182015b82811115610a175782518255916020019190600101906109fc565b5b509050610a259190610a29565b5090565b5b80821115610a42576000816000905550600101610a2a565b5090565b6000610a59610a54846112e7565b6112b6565b905082815260208101848484011115610a7157600080fd5b610a7c8482856113ed565b509392505050565b6000610a97610a92846112e7565b6112b6565b905082815260208101848484011115610aaf57600080fd5b610aba8482856113fc565b509392505050565b600081359050610ad181611548565b92915050565b600081359050610ae68161155f565b92915050565b60008083601f840112610afe57600080fd5b8235905067ffffffffffffffff811115610b1757600080fd5b602083019150836001820283011115610b2f57600080fd5b9250929050565b600082601f830112610b4757600080fd5b8135610b57848260208601610a46565b91505092915050565b600082601f830112610b7157600080fd5b8151610b81848260208601610a84565b91505092915050565b600081359050610b9981611576565b92915050565b600081519050610bae81611576565b92915050565b600060208284031215610bc657600080fd5b6000610bd484828501610ac2565b91505092915050565b600060208284031215610bef57600080fd5b6000610bfd84828501610ad7565b91505092915050565b600080600060408486031215610c1b57600080fd5b600084013567ffffffffffffffff811115610c3557600080fd5b610c4186828701610aec565b93509350506020610c5486828701610b8a565b9150509250925092565b600060208284031215610c7057600080fd5b600082013567ffffffffffffffff811115610c8a57600080fd5b610c9684828501610b36565b91505092915050565b60008060408385031215610cb257600080fd5b600083015167ffffffffffffffff811115610ccc57600080fd5b610cd885828601610b60565b925050602083015167ffffffffffffffff811115610cf557600080fd5b610d0185828601610b60565b9150509250929050565b600060208284031215610d1d57600080fd5b6000610d2b84828501610b9f565b91505092915050565b610d3d816113b1565b82525050565b610d4c8161139f565b82525050565b6000610d5e838561132d565b9350610d6b8385846113ed565b610d7483611537565b840190509392505050565b6000610d8b838561133e565b9350610d988385846113ed565b82840190509392505050565b6000610daf82611317565b610db9818561132d565b9350610dc98185602086016113fc565b610dd281611537565b840191505092915050565b6000610de882611317565b610df2818561133e565b9350610e028185602086016113fc565b80840191505092915050565b6000610e1b60248361132d565b91507f46616c6c6f20656c20656e76696f206465204554482061206c612066756e646160008301527f63696f6e000000000000000000000000000000000000000000000000000000006020830152604082019050919050565b6000610e8160288361132d565b91507f4c6120636564756c61206e6f2065786973746520656e20656c2052656769737460008301527f726f20436976696c0000000000000000000000000000000000000000000000006020830152604082019050919050565b6000610ee760178361132d565b91507f4e6f20736520656e636f6e74726f20646f6e6163696f6e0000000000000000006000830152602082019050919050565b6000610f2760218361132d565b91507f4573746120636564756c6120796120646f6e6f20616e746572696f726d656e7460008301527f65000000000000000000000000000000000000000000000000000000000000006020830152604082019050919050565b6000610f8d60248361132d565b91507f436f6e747261746f20526567697374726f20436976696c206e6f20636f6e656360008301527f7461646f000000000000000000000000000000000000000000000000000000006020830152604082019050919050565b6000610ff3600083611322565b9150600082019050919050565b600061100d601e8361132d565b91507f4c6120646f6e6163696f6e206465626520736572206d61796f722061203000006000830152602082019050919050565b600061104d60308361132d565b91507f456c206d6f6e746f20656e766961646f206e6f20636f696e6369646520636f6e60008301527f20656c2076616c6f7220656e20455448000000000000000000000000000000006020830152604082019050919050565b6110af816113e3565b82525050565b60006110c2828486610d7f565b91508190509392505050565b60006110da8284610ddd565b915081905092915050565b60006110f082610fe6565b9150819050919050565b600060208201905061110f6000830184610d43565b92915050565b600060208201905061112a6000830184610d34565b92915050565b6000602082019050818103600083015261114b818486610d52565b90509392505050565b6000602082019050818103600083015261116e8184610da4565b905092915050565b600060608201905081810360008301526111908186610da4565b905081810360208301526111a48185610da4565b90506111b360408301846110a6565b949350505050565b600060208201905081810360008301526111d481610e0e565b9050919050565b600060208201905081810360008301526111f481610e74565b9050919050565b6000602082019050818103600083015261121481610eda565b9050919050565b6000602082019050818103600083015261123481610f1a565b9050919050565b6000602082019050818103600083015261125481610f80565b9050919050565b6000602082019050818103600083015261127481611000565b9050919050565b6000602082019050818103600083015261129481611040565b9050919050565b60006020820190506112b060008301846110a6565b92915050565b6000604051905081810181811067ffffffffffffffff821117156112dd576112dc611508565b5b8060405250919050565b600067ffffffffffffffff82111561130257611301611508565b5b601f19601f8301169050602081019050919050565b600081519050919050565b600081905092915050565b600082825260208201905092915050565b600081905092915050565b6000611354826113e3565b915061135f836113e3565b9250827fffffffffffffffffffffffffffffffffffffffffffffffffffffffffffffffff03821115611394576113936114aa565b5b828201905092915050565b60006113aa826113c3565b9050919050565b60006113bc826113c3565b9050919050565b600073ffffffffffffffffffffffffffffffffffffffff82169050919050565b6000819050919050565b82818337600083830152505050565b60005b8381101561141a5780820151818401526020810190506113ff565b83811115611429576000848401525b50505050565b6000600282049050600182168061144757607f821691505b6020821081141561145b5761145a6114d9565b5b50919050565b600061146c826113e3565b91507fffffffffffffffffffffffffffffffffffffffffffffffffffffffffffffffff82141561149f5761149e6114aa565b5b600182019050919050565b7f4e487b7100000000000000000000000000000000000000000000000000000000600052601160045260246000fd5b7f4e487b7100000000000000000000000000000000000000000000000000000000600052602260045260246000fd5b7f4e487b7100000000000000000000000000000000000000000000000000000000600052604160045260246000fd5b6000601f19601f8301169050919050565b6115518161139f565b811461155c57600080fd5b50565b611568816113b1565b811461157357600080fd5b50565b61157f816113e3565b811461158a57600080fd5b5056fea26469706673582212204ff8d63d8b2b6d74ebd5578bf2fdd3047b6e4c7ffacfaa07a7fced8ab2a9e19264736f6c63430008000033",
  "immutableReferences": {},
  "source": "// SPDX-License-Identifier: MIT\r\npragma solidity ^0.8.0;\r\n\r\ninterface IPersonas {\r\n    function obtenerIdPorCi(string memory _ci) external view returns (uint256);\r\n    function obtenerNombresApellidos(string memory _cedula) external view returns (string memory, string memory);\r\n}\r\n\r\ncontract Donaciones {\r\n\r\n    struct Donacion {\r\n        string Cedula;\r\n        uint256 Monto; \r\n    }\r\n\r\n    event NuevaDonacion(\r\n        string indexed cedula, \r\n        string nombres, \r\n        string apellidos, \r\n        uint256 monto\r\n    );\r\n\r\n    uint256 private nextId = 1;\r\n    uint256 public totalRecaudado;\r\n    \r\n    address public registroCivilAddress; \r\n    address payable public cuentaBeneficiaria; \r\n\r\n    mapping(uint256 => Donacion) private donaciones;\r\n    mapping(string => uint256) private ci2Donacion;\r\n\r\n    constructor(address _registroCivilAddress, address payable _cuentaBeneficiaria) {\r\n        registroCivilAddress = _registroCivilAddress;\r\n        cuentaBeneficiaria = _cuentaBeneficiaria;\r\n    }\r\n\r\n    function setRegistroCivilAddress(address _address) public {\r\n        registroCivilAddress = _address;\r\n    }\r\n\r\n    function cambiarCuentaBeneficiaria(address payable _nuevaCuenta) public {\r\n        cuentaBeneficiaria = _nuevaCuenta;\r\n    }\r\n\r\n    function RegistrarDonantes(string calldata _cedula, uint256 _montoDonacion) public payable {\r\n        \r\n        // 1. CHECKS (Validaciones)\r\n        require(ci2Donacion[_cedula] == 0, \"Esta cedula ya dono anteriormente\");\r\n        require(registroCivilAddress != address(0), \"Contrato Registro Civil no conectado\");\r\n        require(_montoDonacion > 0, \"La donacion debe ser mayor a 0\");\r\n        require(msg.value == _montoDonacion, \"El monto enviado no coincide con el valor en ETH\");\r\n\r\n        IPersonas registroCivil = IPersonas(registroCivilAddress);\r\n        uint256 idPersonaEnRegistro = registroCivil.obtenerIdPorCi(_cedula);\r\n        require(idPersonaEnRegistro != 0, \"La cedula no existe en el Registro Civil\");\r\n\r\n        (string memory nombre, string memory apellido) = registroCivil.obtenerNombresApellidos(_cedula);\r\n\r\n        // 2. EFFECTS (Guardamos los datos ANTES de soltar el dinero)\r\n        // Esto protege al contrato de ataques de reentrada\r\n        uint256 id = nextId;\r\n        ci2Donacion[_cedula] = id;\r\n\r\n        donaciones[id] = Donacion({\r\n            Cedula: _cedula,\r\n            Monto: _montoDonacion\r\n        });\r\n\r\n        totalRecaudado += _montoDonacion; \r\n        nextId++;\r\n\r\n        // 3. INTERACTIONS (Soltamos el dinero)\r\n        // Usamos .call en lugar de .transfer para evitar el error \"deprecated\"\r\n        // y permitir enviar a billeteras inteligentes.\r\n        (bool success, ) = cuentaBeneficiaria.call{value: msg.value}(\"\");\r\n        require(success, \"Fallo el envio de ETH a la fundacion\");\r\n\r\n        // 4. EVENTO\r\n        emit NuevaDonacion(_cedula, nombre, apellido, _montoDonacion);\r\n    }\r\n\r\n    function obtenerPersonaPorCI(string memory _cedula) public view returns (string memory Nombres, string memory Apellidos, uint256 Monto_Donacion) {\r\n        uint256 id = ci2Donacion[_cedula];\r\n        require(id != 0, \"No se encontro donacion\");\r\n        \r\n        Donacion memory d = donaciones[id];\r\n        IPersonas registroCivil = IPersonas(registroCivilAddress);\r\n        (string memory nom, string memory ape) = registroCivil.obtenerNombresApellidos(_cedula);\r\n        return (nom, ape, d.Monto);\r\n    }\r\n}",
  "sourcePath": "C:\\Users\\Usuario\\Desktop\\Solidity\\BACK\\smart-contracts\\contracts\\Donations.sol",
  "compiler": {
    "name": "solc",
    "version": "0.8.0+commit.c7dfd78e.Emscripten.clang"
  },
  "schemaVersion": "3.4.16",
  "updatedAt": "2025-12-16T02:37:54.863Z",
  "networkType": "ethereum",
  "devdoc": {
    "kind": "dev",
    "methods": {},
    "version": 1
  },
  "userdoc": {
    "kind": "user",
    "methods": {},
    "version": 1
  }
}