{
  "contractName": "Donaciones",
  "abi": [
    {
      "inputs": [],
      "name": "totalRecaudado",
      "outputs": [
        {
          "internalType": "uint256",
          "name": "",
          "type": "uint256"
        }
      ],
      "stateMutability": "view",
      "type": "function",
      "constant": true
    },
    {
      "inputs": [
        {
          "internalType": "string",
          "name": "_cedula",
          "type": "string"
        },
        {
          "internalType": "string",
          "name": "_nombres",
          "type": "string"
        },
        {
          "internalType": "string",
          "name": "_apellidos",
          "type": "string"
        },
        {
          "internalType": "uint256",
          "name": "_montoDonacion",
          "type": "uint256"
        }
      ],
      "name": "RegistrarDonantes",
      "outputs": [],
      "stateMutability": "nonpayable",
      "type": "function"
    },
    {
      "inputs": [
        {
          "internalType": "string",
          "name": "_cedula",
          "type": "string"
        }
      ],
      "name": "obtenerPersonaPorCI",
      "outputs": [
        {
          "components": [
            {
              "internalType": "string",
              "name": "Nombres",
              "type": "string"
            },
            {
              "internalType": "string",
              "name": "Apellidos",
              "type": "string"
            },
            {
              "internalType": "string",
              "name": "Cedula",
              "type": "string"
            },
            {
              "internalType": "uint256",
              "name": "Monto_Donacion",
              "type": "uint256"
            }
          ],
          "internalType": "struct Donaciones.Donacion",
          "name": "",
          "type": "tuple"
        }
      ],
      "stateMutability": "view",
      "type": "function",
      "constant": true
    },
    {
      "inputs": [
        {
          "internalType": "uint256",
          "name": "_id",
          "type": "uint256"
        }
      ],
      "name": "obtenerDatosPersona",
      "outputs": [
        {
          "components": [
            {
              "internalType": "string",
              "name": "Nombres",
              "type": "string"
            },
            {
              "internalType": "string",
              "name": "Apellidos",
              "type": "string"
            },
            {
              "internalType": "string",
              "name": "Cedula",
              "type": "string"
            },
            {
              "internalType": "uint256",
              "name": "Monto_Donacion",
              "type": "uint256"
            }
          ],
          "internalType": "struct Donaciones.Donacion",
          "name": "",
          "type": "tuple"
        }
      ],
      "stateMutability": "view",
      "type": "function",
      "constant": true
    }
  ],
  "bytecode": "0x6080604052600160005534801561001557600080fd5b50610e6d806100256000396000f3fe608060405234801561001057600080fd5b506004361061004c5760003560e01c806322a2421e1461005157806322c9c8bc1461006f578063628427a41461009f578063d4ccd109146100bb575b600080fd5b6100596100eb565b6040516100669190610bb1565b60405180910390f35b61008960048036038101906100849190610910565b6100f1565b6040516100969190610b8f565b60405180910390f35b6100b960048036038101906100b49190610865565b61032e565b005b6100d560048036038101906100d09190610824565b610487565b6040516100e29190610b8f565b60405180910390f35b60015481565b6100f96106dc565b6000548210801561010a5750600082115b610149576040517f08c379a000000000000000000000000000000000000000000000000000000000815260040161014090610b6f565b60405180910390fd5b6002600083815260200190815260200160002060405180608001604052908160008201805461017790610d07565b80601f01602080910402602001604051908101604052809291908181526020018280546101a390610d07565b80156101f05780601f106101c5576101008083540402835291602001916101f0565b820191906000526020600020905b8154815290600101906020018083116101d357829003601f168201915b5050505050815260200160018201805461020990610d07565b80601f016020809104026020016040519081016040528092919081815260200182805461023590610d07565b80156102825780601f1061025757610100808354040283529160200191610282565b820191906000526020600020905b81548152906001019060200180831161026557829003601f168201915b5050505050815260200160028201805461029b90610d07565b80601f01602080910402602001604051908101604052809291908181526020018280546102c790610d07565b80156103145780601f106102e957610100808354040283529160200191610314565b820191906000526020600020905b8154815290600101906020018083116102f757829003601f168201915b505050505081526020016003820154815250509050919050565b60006003856040516103409190610b18565b9081526020016040518091039020541461038f576040517f08c379a000000000000000000000000000000000000000000000000000000000815260040161038690610b4f565b60405180910390fd5b600080549050806003866040516103a69190610b18565b908152602001604051809103902081905550604051806080016040528085815260200184815260200186815260200183815250600260008381526020019081526020016000206000820151816000019080519060200190610408929190610704565b506020820151816001019080519060200190610425929190610704565b506040820151816002019080519060200190610442929190610704565b506060820151816003015590505081600160008282546104629190610c65565b9250508190555060008081548092919061047b90610d39565b91905055505050505050565b61048f6106dc565b60006003836040516104a19190610b18565b908152602001604051809103902054905060008114156104f6576040517f08c379a00000000000000000000000000000000000000000000000000000000081526004016104ed90610b2f565b60405180910390fd5b6002600082815260200190815260200160002060405180608001604052908160008201805461052490610d07565b80601f016020809104026020016040519081016040528092919081815260200182805461055090610d07565b801561059d5780601f106105725761010080835404028352916020019161059d565b820191906000526020600020905b81548152906001019060200180831161058057829003601f168201915b505050505081526020016001820180546105b690610d07565b80601f01602080910402602001604051908101604052809291908181526020018280546105e290610d07565b801561062f5780601f106106045761010080835404028352916020019161062f565b820191906000526020600020905b81548152906001019060200180831161061257829003601f168201915b5050505050815260200160028201805461064890610d07565b80601f016020809104026020016040519081016040528092919081815260200182805461067490610d07565b80156106c15780601f10610696576101008083540402835291602001916106c1565b820191906000526020600020905b8154815290600101906020018083116106a457829003601f168201915b50505050508152602001600382015481525050915050919050565b6040518060800160405280606081526020016060815260200160608152602001600081525090565b82805461071090610d07565b90600052602060002090601f0160209004810192826107325760008555610779565b82601f1061074b57805160ff1916838001178555610779565b82800160010185558215610779579182015b8281111561077857825182559160200191906001019061075d565b5b509050610786919061078a565b5090565b5b808211156107a357600081600090555060010161078b565b5090565b60006107ba6107b584610bfd565b610bcc565b9050828152602081018484840111156107d257600080fd5b6107dd848285610cc5565b509392505050565b600082601f8301126107f657600080fd5b81356108068482602086016107a7565b91505092915050565b60008135905061081e81610e20565b92915050565b60006020828403121561083657600080fd5b600082013567ffffffffffffffff81111561085057600080fd5b61085c848285016107e5565b91505092915050565b6000806000806080858703121561087b57600080fd5b600085013567ffffffffffffffff81111561089557600080fd5b6108a1878288016107e5565b945050602085013567ffffffffffffffff8111156108be57600080fd5b6108ca878288016107e5565b935050604085013567ffffffffffffffff8111156108e757600080fd5b6108f3878288016107e5565b92505060606109048782880161080f565b91505092959194509250565b60006020828403121561092257600080fd5b60006109308482850161080f565b91505092915050565b600061094482610c2d565b61094e8185610c38565b935061095e818560208601610cd4565b61096781610e0f565b840191505092915050565b600061097d82610c2d565b6109878185610c5a565b9350610997818560208601610cd4565b80840191505092915050565b60006109b0602583610c49565b91507f506572736f6e6120636f6e206573612063c3a964756c61206e6f20656e636f6e60008301527f74726164610000000000000000000000000000000000000000000000000000006020830152604082019050919050565b6000610a16601483610c49565b91507f436564756c6120796120726567697374726164610000000000000000000000006000830152602082019050919050565b6000610a56601583610c49565b91507f506572736f6e61206e6f207265676973747261646100000000000000000000006000830152602082019050919050565b60006080830160008301518482036000860152610aa68282610939565b91505060208301518482036020860152610ac08282610939565b91505060408301518482036040860152610ada8282610939565b9150506060830151610aef6060860182610afa565b508091505092915050565b610b0381610cbb565b82525050565b610b1281610cbb565b82525050565b6000610b248284610972565b915081905092915050565b60006020820190508181036000830152610b48816109a3565b9050919050565b60006020820190508181036000830152610b6881610a09565b9050919050565b60006020820190508181036000830152610b8881610a49565b9050919050565b60006020820190508181036000830152610ba98184610a89565b905092915050565b6000602082019050610bc66000830184610b09565b92915050565b6000604051905081810181811067ffffffffffffffff82111715610bf357610bf2610de0565b5b8060405250919050565b600067ffffffffffffffff821115610c1857610c17610de0565b5b601f19601f8301169050602081019050919050565b600081519050919050565b600082825260208201905092915050565b600082825260208201905092915050565b600081905092915050565b6000610c7082610cbb565b9150610c7b83610cbb565b9250827fffffffffffffffffffffffffffffffffffffffffffffffffffffffffffffffff03821115610cb057610caf610d82565b5b828201905092915050565b6000819050919050565b82818337600083830152505050565b60005b83811015610cf2578082015181840152602081019050610cd7565b83811115610d01576000848401525b50505050565b60006002820490506001821680610d1f57607f821691505b60208210811415610d3357610d32610db1565b5b50919050565b6000610d4482610cbb565b91507fffffffffffffffffffffffffffffffffffffffffffffffffffffffffffffffff821415610d7757610d76610d82565b5b600182019050919050565b7f4e487b7100000000000000000000000000000000000000000000000000000000600052601160045260246000fd5b7f4e487b7100000000000000000000000000000000000000000000000000000000600052602260045260246000fd5b7f4e487b7100000000000000000000000000000000000000000000000000000000600052604160045260246000fd5b6000601f19601f8301169050919050565b610e2981610cbb565b8114610e3457600080fd5b5056fea2646970667358221220d441b8ea69293fe7d9a1c18940bf90109e2d451b2450db671368b296a80ce88e64736f6c63430008000033",
  "immutableReferences": {},
  "source": "// SPDX-License-Identifier: MIT\r\npragma solidity ^0.8.0;\r\n\r\ncontract Donaciones {\r\n\r\n    struct Donacion {\r\n        string Nombres;\r\n        string Apellidos;\r\n        string Cedula;\r\n        uint256 Monto_Donacion; // CAMBIO: Ahora es un nmero entero positivo\r\n    }\r\n\r\n    uint256 private nextId = 1;\r\n    \r\n    // NUEVO: Variable para llevar la cuenta de toda la plata recaudada\r\n    uint256 public totalRecaudado;\r\n\r\n    mapping(uint256 => Donacion) private donaciones;\r\n    mapping(string => uint256) private ci2Donacion;\r\n\r\n    function RegistrarDonantes(\r\n        string memory _cedula,\r\n        string memory _nombres,\r\n        string memory _apellidos,\r\n        uint256 _montoDonacion // CAMBIO: Recibimos un nmero, no texto\r\n    ) public {\r\n        require(ci2Donacion[_cedula] == 0, \"Cedula ya registrada\");\r\n\r\n        uint256 id = nextId;\r\n        ci2Donacion[_cedula] = id;\r\n\r\n        donaciones[id] = Donacion({\r\n            Nombres: _nombres,\r\n            Apellidos: _apellidos,\r\n            Cedula: _cedula,\r\n            Monto_Donacion: _montoDonacion\r\n        });\r\n\r\n        // NUEVO: Sumamos la donacin al total acumulado de la caridad\r\n        totalRecaudado += _montoDonacion; \r\n\r\n        nextId++;\r\n    }\r\n\r\n    // Buscamos rpido usando el mapping (sin gastar gas de ms)\r\n    function obtenerPersonaPorCI(string memory _cedula) public view returns (Donacion memory) {\r\n        uint256 id = ci2Donacion[_cedula];\r\n        require(id != 0, unicode\"Persona con esa cdula no encontrada\");\r\n        return donaciones[id];\r\n    }\r\n    \r\n    // Funcin para ver datos por ID si lo necesitas\r\n    function obtenerDatosPersona(uint256 _id) public view returns (Donacion memory) {\r\n        require(_id < nextId && _id > 0, \"Persona no registrada\");\r\n        return donaciones[_id];\r\n    }\r\n}",
  "sourcePath": "C:\\Users\\Usuario\\Desktop\\Solidity\\BACK\\smart-contracts\\contracts\\Donations.sol",
  "compiler": {
    "name": "solc",
    "version": "0.8.0+commit.c7dfd78e.Emscripten.clang"
  },
  "schemaVersion": "3.4.16",
  "updatedAt": "2025-12-15T00:29:33.486Z",
  "networkType": "ethereum",
  "devdoc": {
    "kind": "dev",
    "methods": {},
    "version": 1
  },
  "userdoc": {
    "kind": "user",
    "methods": {},
    "version": 1
  }
}