{
  "contractName": "Personas",
  "abi": [
    {
      "inputs": [
        {
          "internalType": "string",
          "name": "_cedula",
          "type": "string"
        },
        {
          "internalType": "string",
          "name": "_nombres",
          "type": "string"
        },
        {
          "internalType": "string",
          "name": "_apellidos",
          "type": "string"
        }
      ],
      "name": "registrarPersonaEsencial",
      "outputs": [],
      "stateMutability": "nonpayable",
      "type": "function"
    },
    {
      "inputs": [
        {
          "internalType": "uint256",
          "name": "_id",
          "type": "uint256"
        },
        {
          "internalType": "string",
          "name": "_nombres",
          "type": "string"
        },
        {
          "internalType": "string",
          "name": "_apellidos",
          "type": "string"
        },
        {
          "internalType": "string",
          "name": "_cedula",
          "type": "string"
        },
        {
          "internalType": "enum Personas.Genero",
          "name": "_genero",
          "type": "uint8"
        },
        {
          "internalType": "uint256",
          "name": "_fechaNacimiento",
          "type": "uint256"
        },
        {
          "internalType": "string",
          "name": "_lugarNacimiento",
          "type": "string"
        },
        {
          "internalType": "string",
          "name": "_estadoCivil",
          "type": "string"
        },
        {
          "internalType": "string",
          "name": "_direccion",
          "type": "string"
        },
        {
          "internalType": "string",
          "name": "_telefono",
          "type": "string"
        },
        {
          "internalType": "string",
          "name": "_profesion",
          "type": "string"
        }
      ],
      "name": "registrarPersona",
      "outputs": [],
      "stateMutability": "nonpayable",
      "type": "function"
    },
    {
      "inputs": [
        {
          "internalType": "string",
          "name": "_ci",
          "type": "string"
        }
      ],
      "name": "obtenerIdPorCi",
      "outputs": [
        {
          "internalType": "uint256",
          "name": "",
          "type": "uint256"
        }
      ],
      "stateMutability": "view",
      "type": "function"
    },
    {
      "inputs": [
        {
          "internalType": "string",
          "name": "_cedula",
          "type": "string"
        }
      ],
      "name": "obtenerPersonaPorCI",
      "outputs": [
        {
          "components": [
            {
              "internalType": "string",
              "name": "nombres",
              "type": "string"
            },
            {
              "internalType": "string",
              "name": "apellidos",
              "type": "string"
            },
            {
              "internalType": "string",
              "name": "cedula",
              "type": "string"
            },
            {
              "internalType": "enum Personas.Genero",
              "name": "genero",
              "type": "uint8"
            },
            {
              "internalType": "uint256",
              "name": "fechaNacimiento",
              "type": "uint256"
            },
            {
              "internalType": "string",
              "name": "lugarNacimiento",
              "type": "string"
            },
            {
              "internalType": "string",
              "name": "estadoCivil",
              "type": "string"
            },
            {
              "internalType": "string",
              "name": "direccion",
              "type": "string"
            },
            {
              "internalType": "string",
              "name": "telefono",
              "type": "string"
            },
            {
              "internalType": "string",
              "name": "profesion",
              "type": "string"
            }
          ],
          "internalType": "struct Personas.Persona",
          "name": "",
          "type": "tuple"
        }
      ],
      "stateMutability": "view",
      "type": "function"
    },
    {
      "inputs": [
        {
          "internalType": "uint256",
          "name": "_id",
          "type": "uint256"
        }
      ],
      "name": "obtenerDatosPersona",
      "outputs": [
        {
          "components": [
            {
              "internalType": "string",
              "name": "nombres",
              "type": "string"
            },
            {
              "internalType": "string",
              "name": "apellidos",
              "type": "string"
            },
            {
              "internalType": "string",
              "name": "cedula",
              "type": "string"
            },
            {
              "internalType": "enum Personas.Genero",
              "name": "genero",
              "type": "uint8"
            },
            {
              "internalType": "uint256",
              "name": "fechaNacimiento",
              "type": "uint256"
            },
            {
              "internalType": "string",
              "name": "lugarNacimiento",
              "type": "string"
            },
            {
              "internalType": "string",
              "name": "estadoCivil",
              "type": "string"
            },
            {
              "internalType": "string",
              "name": "direccion",
              "type": "string"
            },
            {
              "internalType": "string",
              "name": "telefono",
              "type": "string"
            },
            {
              "internalType": "string",
              "name": "profesion",
              "type": "string"
            }
          ],
          "internalType": "struct Personas.Persona",
          "name": "",
          "type": "tuple"
        }
      ],
      "stateMutability": "view",
      "type": "function"
    }
  ],
  "bytecode": "0x6080604052600160005534801561001557600080fd5b50611f24806100256000396000f3fe608060405234801561001057600080fd5b50600436106100575760003560e01c806322c9c8bc1461005c578063245bc3a81461008c5780638aa64c5e146100a8578063c8315e1c146100d8578063d4ccd109146100f4575b600080fd5b61007660048036038101906100719190611576565b610124565b6040516100839190611c04565b60405180910390f35b6100a660048036038101906100a1919061159f565b6106e5565b005b6100c260048036038101906100bd919061149e565b61099d565b6040516100cf9190611c26565b60405180910390f35b6100f260048036038101906100ed91906114df565b610a26565b005b61010e6004803603810190610109919061149e565b610cf4565b60405161011b9190611c04565b60405180910390f35b61012c6112de565b6000548210801561015f5750600060016000848152602001908152602001600020600201805461015b90611d6b565b9050115b61019e576040517f08c379a000000000000000000000000000000000000000000000000000000000815260040161019590611ba4565b60405180910390fd5b60016000838152602001908152602001600020604051806101400160405290816000820180546101cd90611d6b565b80601f01602080910402602001604051908101604052809291908181526020018280546101f990611d6b565b80156102465780601f1061021b57610100808354040283529160200191610246565b820191906000526020600020905b81548152906001019060200180831161022957829003601f168201915b5050505050815260200160018201805461025f90611d6b565b80601f016020809104026020016040519081016040528092919081815260200182805461028b90611d6b565b80156102d85780601f106102ad576101008083540402835291602001916102d8565b820191906000526020600020905b8154815290600101906020018083116102bb57829003601f168201915b505050505081526020016002820180546102f190611d6b565b80601f016020809104026020016040519081016040528092919081815260200182805461031d90611d6b565b801561036a5780601f1061033f5761010080835404028352916020019161036a565b820191906000526020600020905b81548152906001019060200180831161034d57829003601f168201915b505050505081526020016003820160009054906101000a900460ff1660028111156103be577f4e487b7100000000000000000000000000000000000000000000000000000000600052602160045260246000fd5b60028111156103f6577f4e487b7100000000000000000000000000000000000000000000000000000000600052602160045260246000fd5b81526020016004820154815260200160058201805461041490611d6b565b80601f016020809104026020016040519081016040528092919081815260200182805461044090611d6b565b801561048d5780601f106104625761010080835404028352916020019161048d565b820191906000526020600020905b81548152906001019060200180831161047057829003601f168201915b505050505081526020016006820180546104a690611d6b565b80601f01602080910402602001604051908101604052809291908181526020018280546104d290611d6b565b801561051f5780601f106104f45761010080835404028352916020019161051f565b820191906000526020600020905b81548152906001019060200180831161050257829003601f168201915b5050505050815260200160078201805461053890611d6b565b80601f016020809104026020016040519081016040528092919081815260200182805461056490611d6b565b80156105b15780601f10610586576101008083540402835291602001916105b1565b820191906000526020600020905b81548152906001019060200180831161059457829003601f168201915b505050505081526020016008820180546105ca90611d6b565b80601f01602080910402602001604051908101604052809291908181526020018280546105f690611d6b565b80156106435780601f1061061857610100808354040283529160200191610643565b820191906000526020600020905b81548152906001019060200180831161062657829003601f168201915b5050505050815260200160098201805461065c90611d6b565b80601f016020809104026020016040519081016040528092919081815260200182805461068890611d6b565b80156106d55780601f106106aa576101008083540402835291602001916106d5565b820191906000526020600020905b8154815290600101906020018083116106b857829003601f168201915b5050505050815250509050919050565b6000548b10610729576040517f08c379a000000000000000000000000000000000000000000000000000000000815260040161072090611b84565b60405180910390fd5b600060028960405161073b9190611b2d565b908152602001604051809103902054148061077357508a6002896040516107629190611b2d565b908152602001604051809103902054145b6107b2576040517f08c379a00000000000000000000000000000000000000000000000000000000081526004016107a990611bc4565b60405180910390fd5b6040518061014001604052808b81526020018a8152602001898152602001886002811115610809577f4e487b7100000000000000000000000000000000000000000000000000000000600052602160045260246000fd5b815260200187815260200186815260200185815260200184815260200183815260200182815250600160008d8152602001908152602001600020600082015181600001908051906020019061085f929190611369565b50602082015181600101908051906020019061087c929190611369565b506040820151816002019080519060200190610899929190611369565b5060608201518160030160006101000a81548160ff021916908360028111156108eb577f4e487b7100000000000000000000000000000000000000000000000000000000600052602160045260246000fd5b02179055506080820151816004015560a0820151816005019080519060200190610916929190611369565b5060c0820151816006019080519060200190610933929190611369565b5060e0820151816007019080519060200190610950929190611369565b5061010082015181600801908051906020019061096e929190611369565b5061012082015181600901908051906020019061098c929190611369565b509050505050505050505050505050565b6000806002836040516109b09190611b2d565b9081526020016040518091039020541415610a00576040517f08c379a00000000000000000000000000000000000000000000000000000000081526004016109f790611b64565b60405180910390fd5b600282604051610a109190611b2d565b9081526020016040518091039020549050919050565b6000600284604051610a389190611b2d565b90815260200160405180910390205414610a87576040517f08c379a0000000000000000000000000000000000000000000000000000000008152600401610a7e90611be4565b60405180910390fd5b6000806000815480929190610a9b90611d9d565b91905055905080600285604051610ab29190611b2d565b908152602001604051809103902081905550604051806101400160405280848152602001838152602001858152602001600280811115610b1b577f4e487b7100000000000000000000000000000000000000000000000000000000600052602160045260246000fd5b81526020016000815260200160405180602001604052806000815250815260200160405180602001604052806000815250815260200160405180602001604052806000815250815260200160405180602001604052806000815250815260200160405180602001604052806000815250815250600160008381526020019081526020016000206000820151816000019080519060200190610bbd929190611369565b506020820151816001019080519060200190610bda929190611369565b506040820151816002019080519060200190610bf7929190611369565b5060608201518160030160006101000a81548160ff02191690836002811115610c49577f4e487b7100000000000000000000000000000000000000000000000000000000600052602160045260246000fd5b02179055506080820151816004015560a0820151816005019080519060200190610c74929190611369565b5060c0820151816006019080519060200190610c91929190611369565b5060e0820151816007019080519060200190610cae929190611369565b50610100820151816008019080519060200190610ccc929190611369565b50610120820151816009019080519060200190610cea929190611369565b5090505050505050565b610cfc6112de565b60005b60005481101561129d57828051906020012060016000838152602001908152602001600020600201604051610d349190611b16565b6040518091039020141561128a576001600082815260200190815260200160002060405180610140016040529081600082018054610d7190611d6b565b80601f0160208091040260200160405190810160405280929190818152602001828054610d9d90611d6b565b8015610dea5780601f10610dbf57610100808354040283529160200191610dea565b820191906000526020600020905b815481529060010190602001808311610dcd57829003601f168201915b50505050508152602001600182018054610e0390611d6b565b80601f0160208091040260200160405190810160405280929190818152602001828054610e2f90611d6b565b8015610e7c5780601f10610e5157610100808354040283529160200191610e7c565b820191906000526020600020905b815481529060010190602001808311610e5f57829003601f168201915b50505050508152602001600282018054610e9590611d6b565b80601f0160208091040260200160405190810160405280929190818152602001828054610ec190611d6b565b8015610f0e5780601f10610ee357610100808354040283529160200191610f0e565b820191906000526020600020905b815481529060010190602001808311610ef157829003601f168201915b505050505081526020016003820160009054906101000a900460ff166002811115610f62577f4e487b7100000000000000000000000000000000000000000000000000000000600052602160045260246000fd5b6002811115610f9a577f4e487b7100000000000000000000000000000000000000000000000000000000600052602160045260246000fd5b815260200160048201548152602001600582018054610fb890611d6b565b80601f0160208091040260200160405190810160405280929190818152602001828054610fe490611d6b565b80156110315780601f1061100657610100808354040283529160200191611031565b820191906000526020600020905b81548152906001019060200180831161101457829003601f168201915b5050505050815260200160068201805461104a90611d6b565b80601f016020809104026020016040519081016040528092919081815260200182805461107690611d6b565b80156110c35780601f10611098576101008083540402835291602001916110c3565b820191906000526020600020905b8154815290600101906020018083116110a657829003601f168201915b505050505081526020016007820180546110dc90611d6b565b80601f016020809104026020016040519081016040528092919081815260200182805461110890611d6b565b80156111555780601f1061112a57610100808354040283529160200191611155565b820191906000526020600020905b81548152906001019060200180831161113857829003601f168201915b5050505050815260200160088201805461116e90611d6b565b80601f016020809104026020016040519081016040528092919081815260200182805461119a90611d6b565b80156111e75780601f106111bc576101008083540402835291602001916111e7565b820191906000526020600020905b8154815290600101906020018083116111ca57829003601f168201915b5050505050815260200160098201805461120090611d6b565b80601f016020809104026020016040519081016040528092919081815260200182805461122c90611d6b565b80156112795780601f1061124e57610100808354040283529160200191611279565b820191906000526020600020905b81548152906001019060200180831161125c57829003601f168201915b5050505050815250509150506112d9565b808061129590611d9d565b915050610cff565b506040517f08c379a00000000000000000000000000000000000000000000000000000000081526004016112d090611b44565b60405180910390fd5b919050565b60405180610140016040528060608152602001606081526020016060815260200160006002811115611339577f4e487b7100000000000000000000000000000000000000000000000000000000600052602160045260246000fd5b81526020016000815260200160608152602001606081526020016060815260200160608152602001606081525090565b82805461137590611d6b565b90600052602060002090601f01602090048101928261139757600085556113de565b82601f106113b057805160ff19168380011785556113de565b828001600101855582156113de579182015b828111156113dd5782518255916020019190600101906113c2565b5b5090506113eb91906113ef565b5090565b5b808211156114085760008160009055506001016113f0565b5090565b600061141f61141a84611c72565b611c41565b90508281526020810184848401111561143757600080fd5b611442848285611d29565b509392505050565b60008135905061145981611ec7565b92915050565b600082601f83011261147057600080fd5b813561148084826020860161140c565b91505092915050565b60008135905061149881611ed7565b92915050565b6000602082840312156114b057600080fd5b600082013567ffffffffffffffff8111156114ca57600080fd5b6114d68482850161145f565b91505092915050565b6000806000606084860312156114f457600080fd5b600084013567ffffffffffffffff81111561150e57600080fd5b61151a8682870161145f565b935050602084013567ffffffffffffffff81111561153757600080fd5b6115438682870161145f565b925050604084013567ffffffffffffffff81111561156057600080fd5b61156c8682870161145f565b9150509250925092565b60006020828403121561158857600080fd5b600061159684828501611489565b91505092915050565b60008060008060008060008060008060006101608c8e0312156115c157600080fd5b60006115cf8e828f01611489565b9b505060208c013567ffffffffffffffff8111156115ec57600080fd5b6115f88e828f0161145f565b9a505060408c013567ffffffffffffffff81111561161557600080fd5b6116218e828f0161145f565b99505060608c013567ffffffffffffffff81111561163e57600080fd5b61164a8e828f0161145f565b985050608061165b8e828f0161144a565b97505060a061166c8e828f01611489565b96505060c08c013567ffffffffffffffff81111561168957600080fd5b6116958e828f0161145f565b95505060e08c013567ffffffffffffffff8111156116b257600080fd5b6116be8e828f0161145f565b9450506101008c013567ffffffffffffffff8111156116dc57600080fd5b6116e88e828f0161145f565b9350506101208c013567ffffffffffffffff81111561170657600080fd5b6117128e828f0161145f565b9250506101408c013567ffffffffffffffff81111561173057600080fd5b61173c8e828f0161145f565b9150509295989b509295989b9093969950565b6000815461175c81611d6b565b6117668186611cc2565b945060018216600081146117815760018114611792576117c5565b60ff198316865281860193506117c5565b61179b85611ca2565b60005b838110156117bd5781548189015260018201915060208101905061179e565b838801955050505b50505092915050565b6117d781611d17565b82525050565b60006117e882611cb7565b6117f28185611ccd565b9350611802818560208601611d38565b61180b81611ea2565b840191505092915050565b600061182182611cb7565b61182b8185611cef565b935061183b818560208601611d38565b80840191505092915050565b6000611854602583611cde565b91507f506572736f6e6120636f6e206573612063c3a964756c61206e6f20656e636f6e60008301527f74726164610000000000000000000000000000000000000000000000000000006020830152604082019050919050565b60006118ba601083611cde565b91507f4349206e6f2072656769737472616461000000000000000000000000000000006000830152602082019050919050565b60006118fa600d83611cde565b91507f4944206e6f2076c3a16c69646f000000000000000000000000000000000000006000830152602082019050919050565b600061193a601583611cde565b91507f506572736f6e61206e6f207265676973747261646100000000000000000000006000830152602082019050919050565b600061197a601883611cde565b91507f4349206475706c6963616461206f20696e76c3a16c69646100000000000000006000830152602082019050919050565b60006119ba601083611cde565b91507f43492079612072656769737472616461000000000000000000000000000000006000830152602082019050919050565b6000610140830160008301518482036000860152611a0b82826117dd565b91505060208301518482036020860152611a2582826117dd565b91505060408301518482036040860152611a3f82826117dd565b9150506060830151611a5460608601826117ce565b506080830151611a676080860182611af8565b5060a083015184820360a0860152611a7f82826117dd565b91505060c083015184820360c0860152611a9982826117dd565b91505060e083015184820360e0860152611ab382826117dd565b915050610100830151848203610100860152611acf82826117dd565b915050610120830151848203610120860152611aeb82826117dd565b9150508091505092915050565b611b0181611d0d565b82525050565b611b1081611d0d565b82525050565b6000611b22828461174f565b915081905092915050565b6000611b398284611816565b915081905092915050565b60006020820190508181036000830152611b5d81611847565b9050919050565b60006020820190508181036000830152611b7d816118ad565b9050919050565b60006020820190508181036000830152611b9d816118ed565b9050919050565b60006020820190508181036000830152611bbd8161192d565b9050919050565b60006020820190508181036000830152611bdd8161196d565b9050919050565b60006020820190508181036000830152611bfd816119ad565b9050919050565b60006020820190508181036000830152611c1e81846119ed565b905092915050565b6000602082019050611c3b6000830184611b07565b92915050565b6000604051905081810181811067ffffffffffffffff82111715611c6857611c67611e73565b5b8060405250919050565b600067ffffffffffffffff821115611c8d57611c8c611e73565b5b601f19601f8301169050602081019050919050565b60008190508160005260206000209050919050565b600081519050919050565b600081905092915050565b600082825260208201905092915050565b600082825260208201905092915050565b600081905092915050565b6000819050611d0882611eb3565b919050565b6000819050919050565b6000611d2282611cfa565b9050919050565b82818337600083830152505050565b60005b83811015611d56578082015181840152602081019050611d3b565b83811115611d65576000848401525b50505050565b60006002820490506001821680611d8357607f821691505b60208210811415611d9757611d96611e44565b5b50919050565b6000611da882611d0d565b91507fffffffffffffffffffffffffffffffffffffffffffffffffffffffffffffffff821415611ddb57611dda611de6565b5b600182019050919050565b7f4e487b7100000000000000000000000000000000000000000000000000000000600052601160045260246000fd5b7f4e487b7100000000000000000000000000000000000000000000000000000000600052602160045260246000fd5b7f4e487b7100000000000000000000000000000000000000000000000000000000600052602260045260246000fd5b7f4e487b7100000000000000000000000000000000000000000000000000000000600052604160045260246000fd5b6000601f19601f8301169050919050565b60038110611ec457611ec3611e15565b5b50565b60038110611ed457600080fd5b50565b611ee081611d0d565b8114611eeb57600080fd5b5056fea2646970667358221220e87842e671333913c2d7990a29a68a9c72361be8fc1899d8beac4975705ac85b64736f6c63430008000033",
  "immutableReferences": {},
  "source": "// SPDX-License-Identifier: MIT\r\npragma solidity ^0.8.0;\r\n\r\n/**\r\n * @title Registro Civil\r\n * @dev Contrato para el registro de personas en el Registro Civil de Venezuela\r\n * @author Your Name\r\n * @notice Este contrato permite registrar y consultar datos de personas en el Registro Civil\r\n */\r\ncontract Personas {\r\n    // Definicin de los posibles gneros de una persona\r\n    enum Genero { Masculino, Femenino, Otro }\r\n\r\n    // Estructura que representa a una persona con sus datos bsicos\r\n    struct Persona {\r\n        string nombres; // Nombres de la persona\r\n        string apellidos; // Apellidos de la persona\r\n        string cedula; // Nmero de cdula de identidad\r\n        Genero genero; // Gnero de la persona\r\n        uint256 fechaNacimiento; // Fecha de nacimiento como timestamp\r\n        string lugarNacimiento; // Lugar de nacimiento\r\n        string estadoCivil; // Estado civil de la persona\r\n        string direccion; // Direccin de residencia\r\n        string telefono; // Nmero de telfono\r\n        string profesion; // Profesin u ocupacin\r\n    }\r\n\r\n    // Contador para generar IDs nicos\r\n    uint256 private nextId = 1;\r\n\r\n    // Mapping para almacenar las personas, usando su ID como clave\r\n    mapping(uint256 => Persona) private personas;\r\n\r\n    // Mapping para buscar el ID de una persona a partir de su cdula\r\n    mapping(string => uint256) private ciAIdPersona;\r\n\r\n    /**\r\n     * @dev Registra una persona con sus datos esenciales (solo cdula, nombres y apellidos)\r\n     * @param _cedula Nmero de cdula de identidad\r\n     * @param _nombres Nombres de la persona\r\n     * @param _apellidos Apellidos de la persona\r\n     */\r\n    function registrarPersonaEsencial(\r\n        string memory _cedula,\r\n        string memory _nombres,\r\n        string memory _apellidos\r\n    ) public {\r\n        require(ciAIdPersona[_cedula] == 0, \"CI ya registrada\");\r\n        uint256 id = nextId++;\r\n        ciAIdPersona[_cedula] = id;\r\n        personas[id] = Persona({\r\n            nombres: _nombres,\r\n            apellidos: _apellidos,\r\n            cedula: _cedula,\r\n            genero: Genero.Otro,\r\n            fechaNacimiento: 0,\r\n            lugarNacimiento: \"\",\r\n            estadoCivil: \"\",\r\n            direccion: \"\",\r\n            telefono: \"\",\r\n            profesion: \"\"\r\n        });\r\n    }\r\n\r\n    /**\r\n     * @dev Registra o actualiza todos los datos de una persona\r\n     * @param _id ID nico de la persona\r\n     * @param _nombres Nombres de la persona\r\n     * @param _apellidos Apellidos de la persona\r\n     * @param _cedula Nmero de cdula de identidad\r\n     * @param _genero Gnero de la persona\r\n     * @param _fechaNacimiento Fecha de nacimiento como timestamp\r\n     * @param _lugarNacimiento Lugar de nacimiento\r\n     * @param _estadoCivil Estado civil de la persona\r\n     * @param _direccion Direccin de residencia\r\n     * @param _telefono Nmero de telfono\r\n     * @param _profesion Profesin u ocupacin\r\n     */\r\n    function registrarPersona(\r\n        uint256 _id,\r\n        string memory _nombres,\r\n        string memory _apellidos,\r\n        string memory _cedula,\r\n        Genero _genero,\r\n        uint256 _fechaNacimiento,\r\n        string memory _lugarNacimiento,\r\n        string memory _estadoCivil,\r\n        string memory _direccion,\r\n        string memory _telefono,\r\n        string memory _profesion\r\n    ) public {\r\n        require(_id < nextId, unicode\"ID no vlido\");\r\n        require(ciAIdPersona[_cedula] == 0 || ciAIdPersona[_cedula] == _id, unicode\"CI duplicada o invlida\");\r\n\r\n        personas[_id] = Persona({\r\n            nombres: _nombres,\r\n            apellidos: _apellidos,\r\n            cedula: _cedula,\r\n            genero: _genero,\r\n            fechaNacimiento: _fechaNacimiento,\r\n            lugarNacimiento: _lugarNacimiento,\r\n            estadoCivil: _estadoCivil,\r\n            direccion: _direccion,\r\n            telefono: _telefono,\r\n            profesion: _profesion\r\n        });\r\n    }\r\n\r\n    /**\r\n     * @dev Obtiene el ID de una persona a partir de su cdula de identidad\r\n     * @param _ci Nmero de cdula de identidad\r\n     * @return ID nico de la persona\r\n     */\r\n    function obtenerIdPorCi(string memory _ci) public view returns (uint256) {\r\n        require(ciAIdPersona[_ci] != 0, \"CI no registrada\");\r\n        return ciAIdPersona[_ci];\r\n    }\r\n\r\n    /**\r\n     * @dev Obtiene los datos de una persona a partir de su cdula de identidad (CI).\r\n     * @param _cedula Cdula de identidad de la persona a buscar.\r\n     * @return Datos de la persona (revert si no se encuentra).\r\n     */\r\n    function obtenerPersonaPorCI(string memory _cedula) public view returns (Persona memory) {\r\n        for (uint256 i = 0; i < nextId; i++) {\r\n            if (keccak256(bytes(personas[i].cedula)) == keccak256(bytes(_cedula))) {\r\n                return personas[i];\r\n            }\r\n        }\r\n        revert(unicode\"Persona con esa cdula no encontrada\");\r\n    }\r\n\r\n    /**\r\n    * @dev Obtiene todos los datos de una persona a partir de su ID\r\n    * @param _id ID nico de la persona\r\n    * @return Estructura Persona con todos los datos\r\n    */\r\n    function obtenerDatosPersona(uint256 _id) public view returns (Persona memory) {\r\n        require(_id < nextId && bytes(personas[_id].cedula).length > 0, \"Persona no registrada\");\r\n        return personas[_id];\r\n    }\r\n}",
  "sourcePath": "C:\\Users\\Ezequiel\\Desktop\\Solidarity\\BACK\\smart-contracts\\contracts\\Persona.sol",
  "compiler": {
    "name": "solc",
    "version": "0.8.0+commit.c7dfd78e.Emscripten.clang"
  },
  "schemaVersion": "3.4.16",
  "updatedAt": "2025-12-15T01:41:42.978Z",
  "devdoc": {
    "author": "Your Name",
    "details": "Contrato para el registro de personas en el Registro Civil de Venezuela",
    "kind": "dev",
    "methods": {
      "obtenerDatosPersona(uint256)": {
        "details": "Obtiene todos los datos de una persona a partir de su ID",
        "params": {
          "_id": "ID nico de la persona"
        },
        "returns": {
          "_0": "Estructura Persona con todos los datos"
        }
      },
      "obtenerIdPorCi(string)": {
        "details": "Obtiene el ID de una persona a partir de su cdula de identidad",
        "params": {
          "_ci": "Nmero de cdula de identidad"
        },
        "returns": {
          "_0": "ID nico de la persona"
        }
      },
      "obtenerPersonaPorCI(string)": {
        "details": "Obtiene los datos de una persona a partir de su cdula de identidad (CI).",
        "params": {
          "_cedula": "Cdula de identidad de la persona a buscar."
        },
        "returns": {
          "_0": "Datos de la persona (revert si no se encuentra)."
        }
      },
      "registrarPersona(uint256,string,string,string,uint8,uint256,string,string,string,string,string)": {
        "details": "Registra o actualiza todos los datos de una persona",
        "params": {
          "_apellidos": "Apellidos de la persona",
          "_cedula": "Nmero de cdula de identidad",
          "_direccion": "Direccin de residencia",
          "_estadoCivil": "Estado civil de la persona",
          "_fechaNacimiento": "Fecha de nacimiento como timestamp",
          "_genero": "Gnero de la persona",
          "_id": "ID nico de la persona",
          "_lugarNacimiento": "Lugar de nacimiento",
          "_nombres": "Nombres de la persona",
          "_profesion": "Profesin u ocupacin",
          "_telefono": "Nmero de telfono"
        }
      },
      "registrarPersonaEsencial(string,string,string)": {
        "details": "Registra una persona con sus datos esenciales (solo cdula, nombres y apellidos)",
        "params": {
          "_apellidos": "Apellidos de la persona",
          "_cedula": "Nmero de cdula de identidad",
          "_nombres": "Nombres de la persona"
        }
      }
    },
    "title": "Registro Civil",
    "version": 1
  },
  "userdoc": {
    "kind": "user",
    "methods": {},
    "notice": "Este contrato permite registrar y consultar datos de personas en el Registro Civil",
    "version": 1
  }
}