{
  "contractName": "Personas",
  "abi": [
    {
      "inputs": [],
      "stateMutability": "nonpayable",
      "type": "constructor"
    },
    {
      "inputs": [],
      "name": "owner",
      "outputs": [
        {
          "internalType": "address",
          "name": "",
          "type": "address"
        }
      ],
      "stateMutability": "view",
      "type": "function",
      "constant": true
    },
    {
      "inputs": [
        {
          "internalType": "string",
          "name": "_nombres",
          "type": "string"
        },
        {
          "internalType": "string",
          "name": "_apellidos",
          "type": "string"
        },
        {
          "internalType": "string",
          "name": "_cedula",
          "type": "string"
        },
        {
          "internalType": "enum Personas.Genero",
          "name": "_genero",
          "type": "uint8"
        },
        {
          "internalType": "uint256",
          "name": "_fechaNacimiento",
          "type": "uint256"
        },
        {
          "internalType": "string",
          "name": "_lugarNacimiento",
          "type": "string"
        },
        {
          "internalType": "string",
          "name": "_estadoCivil",
          "type": "string"
        },
        {
          "internalType": "string",
          "name": "_direccion",
          "type": "string"
        },
        {
          "internalType": "string",
          "name": "_telefono",
          "type": "string"
        },
        {
          "internalType": "string",
          "name": "_profesion",
          "type": "string"
        }
      ],
      "name": "registrarOActualizarPersona",
      "outputs": [],
      "stateMutability": "nonpayable",
      "type": "function"
    },
    {
      "inputs": [
        {
          "internalType": "string",
          "name": "_ci",
          "type": "string"
        }
      ],
      "name": "obtenerIdPorCi",
      "outputs": [
        {
          "internalType": "uint256",
          "name": "",
          "type": "uint256"
        }
      ],
      "stateMutability": "view",
      "type": "function",
      "constant": true
    },
    {
      "inputs": [
        {
          "internalType": "string",
          "name": "_cedula",
          "type": "string"
        }
      ],
      "name": "obtenerNombresApellidos",
      "outputs": [
        {
          "internalType": "string",
          "name": "",
          "type": "string"
        },
        {
          "internalType": "string",
          "name": "",
          "type": "string"
        }
      ],
      "stateMutability": "view",
      "type": "function",
      "constant": true
    },
    {
      "inputs": [
        {
          "internalType": "string",
          "name": "_cedula",
          "type": "string"
        }
      ],
      "name": "obtenerPersonaPorCI",
      "outputs": [
        {
          "components": [
            {
              "internalType": "string",
              "name": "nombres",
              "type": "string"
            },
            {
              "internalType": "string",
              "name": "apellidos",
              "type": "string"
            },
            {
              "internalType": "string",
              "name": "cedula",
              "type": "string"
            },
            {
              "internalType": "enum Personas.Genero",
              "name": "genero",
              "type": "uint8"
            },
            {
              "internalType": "uint256",
              "name": "fechaNacimiento",
              "type": "uint256"
            },
            {
              "internalType": "string",
              "name": "lugarNacimiento",
              "type": "string"
            },
            {
              "internalType": "string",
              "name": "estadoCivil",
              "type": "string"
            },
            {
              "internalType": "string",
              "name": "direccion",
              "type": "string"
            },
            {
              "internalType": "string",
              "name": "telefono",
              "type": "string"
            },
            {
              "internalType": "string",
              "name": "profesion",
              "type": "string"
            },
            {
              "internalType": "bool",
              "name": "estaRegistrada",
              "type": "bool"
            }
          ],
          "internalType": "struct Personas.Persona",
          "name": "",
          "type": "tuple"
        }
      ],
      "stateMutability": "view",
      "type": "function",
      "constant": true
    }
  ],
  "bytecode": "0x6080604052600160005534801561001557600080fd5b5033600160006101000a81548173ffffffffffffffffffffffffffffffffffffffff021916908373ffffffffffffffffffffffffffffffffffffffff1602179055506119e6806100666000396000f3fe608060405234801561001057600080fd5b50600436106100575760003560e01c80633c0c5b6f1461005c5780638aa64c5e1461008d5780638da5cb5b146100bd57806391d25140146100db578063d4ccd109146100f7575b600080fd5b6100766004803603810190610071919061116f565b610127565b604051610084929190611631565b60405180910390f35b6100a760048036038101906100a2919061116f565b610705565b6040516100b491906116ca565b60405180910390f35b6100c561072d565b6040516100d29190611616565b60405180910390f35b6100f560048036038101906100f091906111b0565b610753565b005b610111600480360381019061010c919061116f565b6109d4565b60405161011e91906116a8565b60405180910390f35b606080600060038460405161013c91906115ff565b90815260200160405180910390205490506000811415610191576040517f08c379a000000000000000000000000000000000000000000000000000000000815260040161018890611688565b60405180910390fd5b600060026000838152602001908152602001600020604051806101600160405290816000820180546101c29061182d565b80601f01602080910402602001604051908101604052809291908181526020018280546101ee9061182d565b801561023b5780601f106102105761010080835404028352916020019161023b565b820191906000526020600020905b81548152906001019060200180831161021e57829003601f168201915b505050505081526020016001820180546102549061182d565b80601f01602080910402602001604051908101604052809291908181526020018280546102809061182d565b80156102cd5780601f106102a2576101008083540402835291602001916102cd565b820191906000526020600020905b8154815290600101906020018083116102b057829003601f168201915b505050505081526020016002820180546102e69061182d565b80601f01602080910402602001604051908101604052809291908181526020018280546103129061182d565b801561035f5780601f106103345761010080835404028352916020019161035f565b820191906000526020600020905b81548152906001019060200180831161034257829003601f168201915b505050505081526020016003820160009054906101000a900460ff1660028111156103b3577f4e487b7100000000000000000000000000000000000000000000000000000000600052602160045260246000fd5b60028111156103eb577f4e487b7100000000000000000000000000000000000000000000000000000000600052602160045260246000fd5b8152602001600482015481526020016005820180546104099061182d565b80601f01602080910402602001604051908101604052809291908181526020018280546104359061182d565b80156104825780601f1061045757610100808354040283529160200191610482565b820191906000526020600020905b81548152906001019060200180831161046557829003601f168201915b5050505050815260200160068201805461049b9061182d565b80601f01602080910402602001604051908101604052809291908181526020018280546104c79061182d565b80156105145780601f106104e957610100808354040283529160200191610514565b820191906000526020600020905b8154815290600101906020018083116104f757829003601f168201915b5050505050815260200160078201805461052d9061182d565b80601f01602080910402602001604051908101604052809291908181526020018280546105599061182d565b80156105a65780601f1061057b576101008083540402835291602001916105a6565b820191906000526020600020905b81548152906001019060200180831161058957829003601f168201915b505050505081526020016008820180546105bf9061182d565b80601f01602080910402602001604051908101604052809291908181526020018280546105eb9061182d565b80156106385780601f1061060d57610100808354040283529160200191610638565b820191906000526020600020905b81548152906001019060200180831161061b57829003601f168201915b505050505081526020016009820180546106519061182d565b80601f016020809104026020016040519081016040528092919081815260200182805461067d9061182d565b80156106ca5780601f1061069f576101008083540402835291602001916106ca565b820191906000526020600020905b8154815290600101906020018083116106ad57829003601f168201915b50505050508152602001600a820160009054906101000a900460ff161515151581525050905080600001518160200151935093505050915091565b600060038260405161071791906115ff565b9081526020016040518091039020549050919050565b600160009054906101000a900473ffffffffffffffffffffffffffffffffffffffff1681565b600060038960405161076591906115ff565b908152602001604051809103902054905060008114156107bf5760005490506000808154809291906107969061185f565b91905055508060038a6040516107ac91906115ff565b9081526020016040518091039020819055505b6040518061016001604052808c81526020018b81526020018a8152602001896002811115610816577f4e487b7100000000000000000000000000000000000000000000000000000000600052602160045260246000fd5b815260200188815260200187815260200186815260200185815260200184815260200183815260200160011515815250600260008381526020019081526020016000206000820151816000019080519060200190610875929190610fa6565b506020820151816001019080519060200190610892929190610fa6565b5060408201518160020190805190602001906108af929190610fa6565b5060608201518160030160006101000a81548160ff02191690836002811115610901577f4e487b7100000000000000000000000000000000000000000000000000000000600052602160045260246000fd5b02179055506080820151816004015560a082015181600501908051906020019061092c929190610fa6565b5060c0820151816006019080519060200190610949929190610fa6565b5060e0820151816007019080519060200190610966929190610fa6565b50610100820151816008019080519060200190610984929190610fa6565b506101208201518160090190805190602001906109a2929190610fa6565b5061014082015181600a0160006101000a81548160ff0219169083151502179055509050505050505050505050505050565b6109dc61102c565b60006003836040516109ee91906115ff565b90815260200160405180910390205490506000811415610a43576040517f08c379a0000000000000000000000000000000000000000000000000000000008152600401610a3a90611668565b60405180910390fd5b6002600082815260200190815260200160002060405180610160016040529081600082018054610a729061182d565b80601f0160208091040260200160405190810160405280929190818152602001828054610a9e9061182d565b8015610aeb5780601f10610ac057610100808354040283529160200191610aeb565b820191906000526020600020905b815481529060010190602001808311610ace57829003601f168201915b50505050508152602001600182018054610b049061182d565b80601f0160208091040260200160405190810160405280929190818152602001828054610b309061182d565b8015610b7d5780601f10610b5257610100808354040283529160200191610b7d565b820191906000526020600020905b815481529060010190602001808311610b6057829003601f168201915b50505050508152602001600282018054610b969061182d565b80601f0160208091040260200160405190810160405280929190818152602001828054610bc29061182d565b8015610c0f5780601f10610be457610100808354040283529160200191610c0f565b820191906000526020600020905b815481529060010190602001808311610bf257829003601f168201915b505050505081526020016003820160009054906101000a900460ff166002811115610c63577f4e487b7100000000000000000000000000000000000000000000000000000000600052602160045260246000fd5b6002811115610c9b577f4e487b7100000000000000000000000000000000000000000000000000000000600052602160045260246000fd5b815260200160048201548152602001600582018054610cb99061182d565b80601f0160208091040260200160405190810160405280929190818152602001828054610ce59061182d565b8015610d325780601f10610d0757610100808354040283529160200191610d32565b820191906000526020600020905b815481529060010190602001808311610d1557829003601f168201915b50505050508152602001600682018054610d4b9061182d565b80601f0160208091040260200160405190810160405280929190818152602001828054610d779061182d565b8015610dc45780601f10610d9957610100808354040283529160200191610dc4565b820191906000526020600020905b815481529060010190602001808311610da757829003601f168201915b50505050508152602001600782018054610ddd9061182d565b80601f0160208091040260200160405190810160405280929190818152602001828054610e099061182d565b8015610e565780601f10610e2b57610100808354040283529160200191610e56565b820191906000526020600020905b815481529060010190602001808311610e3957829003601f168201915b50505050508152602001600882018054610e6f9061182d565b80601f0160208091040260200160405190810160405280929190818152602001828054610e9b9061182d565b8015610ee85780601f10610ebd57610100808354040283529160200191610ee8565b820191906000526020600020905b815481529060010190602001808311610ecb57829003601f168201915b50505050508152602001600982018054610f019061182d565b80601f0160208091040260200160405190810160405280929190818152602001828054610f2d9061182d565b8015610f7a5780601f10610f4f57610100808354040283529160200191610f7a565b820191906000526020600020905b815481529060010190602001808311610f5d57829003601f168201915b50505050508152602001600a820160009054906101000a900460ff161515151581525050915050919050565b828054610fb29061182d565b90600052602060002090601f016020900481019282610fd4576000855561101b565b82601f10610fed57805160ff191683800117855561101b565b8280016001018555821561101b579182015b8281111561101a578251825591602001919060010190610fff565b5b50905061102891906110c0565b5090565b60405180610160016040528060608152602001606081526020016060815260200160006002811115611087577f4e487b7100000000000000000000000000000000000000000000000000000000600052602160045260246000fd5b81526020016000815260200160608152602001606081526020016060815260200160608152602001606081526020016000151581525090565b5b808211156110d95760008160009055506001016110c1565b5090565b60006110f06110eb84611716565b6116e5565b90508281526020810184848401111561110857600080fd5b6111138482856117eb565b509392505050565b60008135905061112a81611989565b92915050565b600082601f83011261114157600080fd5b81356111518482602086016110dd565b91505092915050565b60008135905061116981611999565b92915050565b60006020828403121561118157600080fd5b600082013567ffffffffffffffff81111561119b57600080fd5b6111a784828501611130565b91505092915050565b6000806000806000806000806000806101408b8d0312156111d057600080fd5b60008b013567ffffffffffffffff8111156111ea57600080fd5b6111f68d828e01611130565b9a505060208b013567ffffffffffffffff81111561121357600080fd5b61121f8d828e01611130565b99505060408b013567ffffffffffffffff81111561123c57600080fd5b6112488d828e01611130565b98505060606112598d828e0161111b565b975050608061126a8d828e0161115a565b96505060a08b013567ffffffffffffffff81111561128757600080fd5b6112938d828e01611130565b95505060c08b013567ffffffffffffffff8111156112b057600080fd5b6112bc8d828e01611130565b94505060e08b013567ffffffffffffffff8111156112d957600080fd5b6112e58d828e01611130565b9350506101008b013567ffffffffffffffff81111561130357600080fd5b61130f8d828e01611130565b9250506101208b013567ffffffffffffffff81111561132d57600080fd5b6113398d828e01611130565b9150509295989b9194979a5092959850565b6113548161177e565b82525050565b61136381611790565b82525050565b611372816117d9565b82525050565b600061138382611746565b61138d8185611751565b935061139d8185602086016117fa565b6113a681611964565b840191505092915050565b60006113bc82611746565b6113c68185611762565b93506113d68185602086016117fa565b6113df81611964565b840191505092915050565b60006113f582611746565b6113ff8185611773565b935061140f8185602086016117fa565b80840191505092915050565b6000611428601583611762565b91507f506572736f6e61206e6f20656e636f6e747261646100000000000000000000006000830152602082019050919050565b6000611468602783611762565b91507f506572736f6e61206e6f20656e636f6e747261646120656e205265676973747260008301527f6f20436976696c000000000000000000000000000000000000000000000000006020830152604082019050919050565b60006101608301600083015184820360008601526114df8282611378565b915050602083015184820360208601526114f98282611378565b915050604083015184820360408601526115138282611378565b91505060608301516115286060860182611369565b50608083015161153b60808601826115e1565b5060a083015184820360a08601526115538282611378565b91505060c083015184820360c086015261156d8282611378565b91505060e083015184820360e08601526115878282611378565b9150506101008301518482036101008601526115a38282611378565b9150506101208301518482036101208601526115bf8282611378565b9150506101408301516115d661014086018261135a565b508091505092915050565b6115ea816117cf565b82525050565b6115f9816117cf565b82525050565b600061160b82846113ea565b915081905092915050565b600060208201905061162b600083018461134b565b92915050565b6000604082019050818103600083015261164b81856113b1565b9050818103602083015261165f81846113b1565b90509392505050565b600060208201905081810360008301526116818161141b565b9050919050565b600060208201905081810360008301526116a18161145b565b9050919050565b600060208201905081810360008301526116c281846114c1565b905092915050565b60006020820190506116df60008301846115f0565b92915050565b6000604051905081810181811067ffffffffffffffff8211171561170c5761170b611935565b5b8060405250919050565b600067ffffffffffffffff82111561173157611730611935565b5b601f19601f8301169050602081019050919050565b600081519050919050565b600082825260208201905092915050565b600082825260208201905092915050565b600081905092915050565b6000611789826117af565b9050919050565b60008115159050919050565b60008190506117aa82611975565b919050565b600073ffffffffffffffffffffffffffffffffffffffff82169050919050565b6000819050919050565b60006117e48261179c565b9050919050565b82818337600083830152505050565b60005b838110156118185780820151818401526020810190506117fd565b83811115611827576000848401525b50505050565b6000600282049050600182168061184557607f821691505b6020821081141561185957611858611906565b5b50919050565b600061186a826117cf565b91507fffffffffffffffffffffffffffffffffffffffffffffffffffffffffffffffff82141561189d5761189c6118a8565b5b600182019050919050565b7f4e487b7100000000000000000000000000000000000000000000000000000000600052601160045260246000fd5b7f4e487b7100000000000000000000000000000000000000000000000000000000600052602160045260246000fd5b7f4e487b7100000000000000000000000000000000000000000000000000000000600052602260045260246000fd5b7f4e487b7100000000000000000000000000000000000000000000000000000000600052604160045260246000fd5b6000601f19601f8301169050919050565b60038110611986576119856118d7565b5b50565b6003811061199657600080fd5b50565b6119a2816117cf565b81146119ad57600080fd5b5056fea26469706673582212202e2770d24cbfb83e5d4be6c2a9516edae8147be67621fb934083bebfbc8b72c664736f6c63430008000033",
  "immutableReferences": {},
  "source": "// SPDX-License-Identifier: MIT\r\npragma solidity ^0.8.0;\r\n\r\ncontract Personas {\r\n    enum Genero { Masculino, Femenino, Otro }\r\n\r\n    struct Persona {\r\n        string nombres; \r\n        string apellidos; \r\n        string cedula; \r\n        Genero genero; \r\n        uint256 fechaNacimiento; \r\n        string lugarNacimiento; \r\n        string estadoCivil; \r\n        string direccion; \r\n        string telefono; \r\n        string profesion;\r\n        bool estaRegistrada; \r\n    }\r\n\r\n    uint256 private nextId = 1;\r\n    address public owner; \r\n\r\n    mapping(uint256 => Persona) private personas;\r\n    mapping(string => uint256) private ciAIdPersona;\r\n\r\n    // MODIFIER: Se mantiene por si quieres crear funciones administrativas a futuro\r\n    modifier onlyOwner() {\r\n        require(msg.sender == owner, \"No tienes permisos de Admin\");\r\n        _;\r\n    }\r\n\r\n    constructor() {\r\n        owner = msg.sender;\r\n    }\r\n\r\n    // --- REGISTRO UNIFICADO (CORREGIDO) ---\r\n    //  YA NO TIENE 'onlyOwner'. Ahora es pblica para todos.\r\n    function registrarOActualizarPersona(\r\n        string memory _nombres,\r\n        string memory _apellidos,\r\n        string memory _cedula,\r\n        Genero _genero,\r\n        uint256 _fechaNacimiento,\r\n        string memory _lugarNacimiento,\r\n        string memory _estadoCivil,\r\n        string memory _direccion,\r\n        string memory _telefono,\r\n        string memory _profesion\r\n    ) public { // <--- AQU ESTABA EL BLOQUEO! Ahora dice solo 'public'\r\n        \r\n        uint256 idToUse = ciAIdPersona[_cedula];\r\n\r\n        // Si el ID es 0, significa que es una persona NUEVA\r\n        if (idToUse == 0) {\r\n            idToUse = nextId;\r\n            nextId++;\r\n            ciAIdPersona[_cedula] = idToUse;\r\n        }\r\n\r\n        // Guardamos o Actualizamos los datos\r\n        personas[idToUse] = Persona({\r\n            nombres: _nombres,\r\n            apellidos: _apellidos,\r\n            cedula: _cedula,\r\n            genero: _genero,\r\n            fechaNacimiento: _fechaNacimiento,\r\n            lugarNacimiento: _lugarNacimiento,\r\n            estadoCivil: _estadoCivil,\r\n            direccion: _direccion,\r\n            telefono: _telefono,\r\n            profesion: _profesion,\r\n            estaRegistrada: true\r\n        });\r\n    }\r\n\r\n    // Funciones de Lectura\r\n\r\n    function obtenerIdPorCi(string memory _ci) public view returns (uint256) {\r\n        return ciAIdPersona[_ci];\r\n    }\r\n\r\n    function obtenerNombresApellidos(string memory _cedula) public view returns (string memory, string memory) {\r\n        uint256 id = ciAIdPersona[_cedula];\r\n        require(id != 0, \"Persona no encontrada en Registro Civil\");\r\n        \r\n        Persona memory p = personas[id];\r\n        return (p.nombres, p.apellidos);\r\n    }\r\n\r\n    function obtenerPersonaPorCI(string memory _cedula) public view returns (Persona memory) {\r\n        uint256 id = ciAIdPersona[_cedula];\r\n        require(id != 0, \"Persona no encontrada\");\r\n        return personas[id];\r\n    }\r\n}",
  "sourcePath": "/home/anders/Escritorio/Solidarity/BACK/smart-contracts/contracts/Persona.sol",
  "compiler": {
    "name": "solc",
    "version": "0.8.0+commit.c7dfd78e.Emscripten.clang"
  },
  "schemaVersion": "3.4.16",
  "updatedAt": "2025-12-17T05:51:34.989Z",
  "networkType": "ethereum",
  "devdoc": {
    "kind": "dev",
    "methods": {},
    "version": 1
  },
  "userdoc": {
    "kind": "user",
    "methods": {},
    "version": 1
  }
}