{
  "contractName": "Personas",
  "abi": [
    {
      "inputs": [
        {
          "internalType": "string",
          "name": "_cedula",
          "type": "string"
        },
        {
          "internalType": "string",
          "name": "_nombres",
          "type": "string"
        },
        {
          "internalType": "string",
          "name": "_apellidos",
          "type": "string"
        }
      ],
      "name": "registrarPersonaEsencial",
      "outputs": [],
      "stateMutability": "nonpayable",
      "type": "function"
    },
    {
      "inputs": [
        {
          "internalType": "uint256",
          "name": "_id",
          "type": "uint256"
        },
        {
          "internalType": "string",
          "name": "_nombres",
          "type": "string"
        },
        {
          "internalType": "string",
          "name": "_apellidos",
          "type": "string"
        },
        {
          "internalType": "string",
          "name": "_cedula",
          "type": "string"
        },
        {
          "internalType": "enum Personas.Genero",
          "name": "_genero",
          "type": "uint8"
        },
        {
          "internalType": "uint256",
          "name": "_fechaNacimiento",
          "type": "uint256"
        },
        {
          "internalType": "string",
          "name": "_lugarNacimiento",
          "type": "string"
        },
        {
          "internalType": "string",
          "name": "_estadoCivil",
          "type": "string"
        },
        {
          "internalType": "string",
          "name": "_direccion",
          "type": "string"
        },
        {
          "internalType": "string",
          "name": "_telefono",
          "type": "string"
        },
        {
          "internalType": "string",
          "name": "_profesion",
          "type": "string"
        }
      ],
      "name": "registrarPersona",
      "outputs": [],
      "stateMutability": "nonpayable",
      "type": "function"
    },
    {
      "inputs": [
        {
          "internalType": "string",
          "name": "_ci",
          "type": "string"
        }
      ],
      "name": "obtenerIdPorCi",
      "outputs": [
        {
          "internalType": "uint256",
          "name": "",
          "type": "uint256"
        }
      ],
      "stateMutability": "view",
      "type": "function",
      "constant": true
    },
    {
      "inputs": [
        {
          "internalType": "string",
          "name": "_cedula",
          "type": "string"
        }
      ],
      "name": "obtenerPersonaPorCI",
      "outputs": [
        {
          "components": [
            {
              "internalType": "string",
              "name": "nombres",
              "type": "string"
            },
            {
              "internalType": "string",
              "name": "apellidos",
              "type": "string"
            },
            {
              "internalType": "string",
              "name": "cedula",
              "type": "string"
            },
            {
              "internalType": "enum Personas.Genero",
              "name": "genero",
              "type": "uint8"
            },
            {
              "internalType": "uint256",
              "name": "fechaNacimiento",
              "type": "uint256"
            },
            {
              "internalType": "string",
              "name": "lugarNacimiento",
              "type": "string"
            },
            {
              "internalType": "string",
              "name": "estadoCivil",
              "type": "string"
            },
            {
              "internalType": "string",
              "name": "direccion",
              "type": "string"
            },
            {
              "internalType": "string",
              "name": "telefono",
              "type": "string"
            },
            {
              "internalType": "string",
              "name": "profesion",
              "type": "string"
            }
          ],
          "internalType": "struct Personas.Persona",
          "name": "",
          "type": "tuple"
        }
      ],
      "stateMutability": "view",
      "type": "function",
      "constant": true
    },
    {
      "inputs": [
        {
          "internalType": "uint256",
          "name": "_id",
          "type": "uint256"
        }
      ],
      "name": "obtenerDatosPersona",
      "outputs": [
        {
          "components": [
            {
              "internalType": "string",
              "name": "nombres",
              "type": "string"
            },
            {
              "internalType": "string",
              "name": "apellidos",
              "type": "string"
            },
            {
              "internalType": "string",
              "name": "cedula",
              "type": "string"
            },
            {
              "internalType": "enum Personas.Genero",
              "name": "genero",
              "type": "uint8"
            },
            {
              "internalType": "uint256",
              "name": "fechaNacimiento",
              "type": "uint256"
            },
            {
              "internalType": "string",
              "name": "lugarNacimiento",
              "type": "string"
            },
            {
              "internalType": "string",
              "name": "estadoCivil",
              "type": "string"
            },
            {
              "internalType": "string",
              "name": "direccion",
              "type": "string"
            },
            {
              "internalType": "string",
              "name": "telefono",
              "type": "string"
            },
            {
              "internalType": "string",
              "name": "profesion",
              "type": "string"
            }
          ],
          "internalType": "struct Personas.Persona",
          "name": "",
          "type": "tuple"
        }
      ],
      "stateMutability": "view",
      "type": "function",
      "constant": true
    },
    {
      "inputs": [
        {
          "internalType": "string",
          "name": "_cedula",
          "type": "string"
        }
      ],
      "name": "obtenerNombresApellidos",
      "outputs": [
        {
          "internalType": "string",
          "name": "",
          "type": "string"
        },
        {
          "internalType": "string",
          "name": "",
          "type": "string"
        }
      ],
      "stateMutability": "view",
      "type": "function",
      "constant": true
    }
  ],
  "bytecode": "0x6080604052600160005534801561001557600080fd5b50612505806100256000396000f3fe608060405234801561001057600080fd5b50600436106100625760003560e01c806322c9c8bc14610067578063245bc3a8146100975780633c0c5b6f146100b35780638aa64c5e146100e4578063c8315e1c14610114578063d4ccd10914610130575b600080fd5b610081600480360381019061007c9190611b63565b610160565b60405161008e9190612205565b60405180910390f35b6100b160048036038101906100ac9190611b8c565b610721565b005b6100cd60048036038101906100c89190611a8b565b6109fa565b6040516100db9291906120ee565b60405180910390f35b6100fe60048036038101906100f99190611a8b565b610fbd565b60405161010b9190612227565b60405180910390f35b61012e60048036038101906101299190611acc565b611046565b005b61014a60048036038101906101459190611a8b565b611314565b6040516101579190612205565b60405180910390f35b6101686118cb565b6000548210801561019b575060006001600084815260200190815260200160002060020180546101979061234c565b9050115b6101da576040517f08c379a00000000000000000000000000000000000000000000000000000000081526004016101d190612185565b60405180910390fd5b60016000838152602001908152602001600020604051806101400160405290816000820180546102099061234c565b80601f01602080910402602001604051908101604052809291908181526020018280546102359061234c565b80156102825780601f1061025757610100808354040283529160200191610282565b820191906000526020600020905b81548152906001019060200180831161026557829003601f168201915b5050505050815260200160018201805461029b9061234c565b80601f01602080910402602001604051908101604052809291908181526020018280546102c79061234c565b80156103145780601f106102e957610100808354040283529160200191610314565b820191906000526020600020905b8154815290600101906020018083116102f757829003601f168201915b5050505050815260200160028201805461032d9061234c565b80601f01602080910402602001604051908101604052809291908181526020018280546103599061234c565b80156103a65780601f1061037b576101008083540402835291602001916103a6565b820191906000526020600020905b81548152906001019060200180831161038957829003601f168201915b505050505081526020016003820160009054906101000a900460ff1660028111156103fa577f4e487b7100000000000000000000000000000000000000000000000000000000600052602160045260246000fd5b6002811115610432577f4e487b7100000000000000000000000000000000000000000000000000000000600052602160045260246000fd5b8152602001600482015481526020016005820180546104509061234c565b80601f016020809104026020016040519081016040528092919081815260200182805461047c9061234c565b80156104c95780601f1061049e576101008083540402835291602001916104c9565b820191906000526020600020905b8154815290600101906020018083116104ac57829003601f168201915b505050505081526020016006820180546104e29061234c565b80601f016020809104026020016040519081016040528092919081815260200182805461050e9061234c565b801561055b5780601f106105305761010080835404028352916020019161055b565b820191906000526020600020905b81548152906001019060200180831161053e57829003601f168201915b505050505081526020016007820180546105749061234c565b80601f01602080910402602001604051908101604052809291908181526020018280546105a09061234c565b80156105ed5780601f106105c2576101008083540402835291602001916105ed565b820191906000526020600020905b8154815290600101906020018083116105d057829003601f168201915b505050505081526020016008820180546106069061234c565b80601f01602080910402602001604051908101604052809291908181526020018280546106329061234c565b801561067f5780601f106106545761010080835404028352916020019161067f565b820191906000526020600020905b81548152906001019060200180831161066257829003601f168201915b505050505081526020016009820180546106989061234c565b80601f01602080910402602001604051908101604052809291908181526020018280546106c49061234c565b80156107115780601f106106e657610100808354040283529160200191610711565b820191906000526020600020905b8154815290600101906020018083116106f457829003601f168201915b5050505050815250509050919050565b6000548b10610765576040517f08c379a000000000000000000000000000000000000000000000000000000000815260040161075c906121e5565b60405180910390fd5b600060028960405161077791906120d7565b908152602001604051809103902054146107ec578a60028960405161079c91906120d7565b908152602001604051809103902054146107eb576040517f08c379a00000000000000000000000000000000000000000000000000000000081526004016107e2906121a5565b60405180910390fd5b5b6040518061014001604052808b81526020018a8152602001898152602001886002811115610843577f4e487b7100000000000000000000000000000000000000000000000000000000600052602160045260246000fd5b815260200187815260200186815260200185815260200184815260200183815260200182815250600160008d81526020019081526020016000206000820151816000019080519060200190610899929190611956565b5060208201518160010190805190602001906108b6929190611956565b5060408201518160020190805190602001906108d3929190611956565b5060608201518160030160006101000a81548160ff02191690836002811115610925577f4e487b7100000000000000000000000000000000000000000000000000000000600052602160045260246000fd5b02179055506080820151816004015560a0820151816005019080519060200190610950929190611956565b5060c082015181600601908051906020019061096d929190611956565b5060e082015181600701908051906020019061098a929190611956565b506101008201518160080190805190602001906109a8929190611956565b506101208201518160090190805190602001906109c6929190611956565b509050508a6002896040516109db91906120d7565b9081526020016040518091039020819055505050505050505050505050565b6060806000600284604051610a0f91906120d7565b90815260200160405180910390205490506000811415610a64576040517f08c379a0000000000000000000000000000000000000000000000000000000008152600401610a5b90612165565b60405180910390fd5b60006001600083815260200190815260200160002060405180610140016040529081600082018054610a959061234c565b80601f0160208091040260200160405190810160405280929190818152602001828054610ac19061234c565b8015610b0e5780601f10610ae357610100808354040283529160200191610b0e565b820191906000526020600020905b815481529060010190602001808311610af157829003601f168201915b50505050508152602001600182018054610b279061234c565b80601f0160208091040260200160405190810160405280929190818152602001828054610b539061234c565b8015610ba05780601f10610b7557610100808354040283529160200191610ba0565b820191906000526020600020905b815481529060010190602001808311610b8357829003601f168201915b50505050508152602001600282018054610bb99061234c565b80601f0160208091040260200160405190810160405280929190818152602001828054610be59061234c565b8015610c325780601f10610c0757610100808354040283529160200191610c32565b820191906000526020600020905b815481529060010190602001808311610c1557829003601f168201915b505050505081526020016003820160009054906101000a900460ff166002811115610c86577f4e487b7100000000000000000000000000000000000000000000000000000000600052602160045260246000fd5b6002811115610cbe577f4e487b7100000000000000000000000000000000000000000000000000000000600052602160045260246000fd5b815260200160048201548152602001600582018054610cdc9061234c565b80601f0160208091040260200160405190810160405280929190818152602001828054610d089061234c565b8015610d555780601f10610d2a57610100808354040283529160200191610d55565b820191906000526020600020905b815481529060010190602001808311610d3857829003601f168201915b50505050508152602001600682018054610d6e9061234c565b80601f0160208091040260200160405190810160405280929190818152602001828054610d9a9061234c565b8015610de75780601f10610dbc57610100808354040283529160200191610de7565b820191906000526020600020905b815481529060010190602001808311610dca57829003601f168201915b50505050508152602001600782018054610e009061234c565b80601f0160208091040260200160405190810160405280929190818152602001828054610e2c9061234c565b8015610e795780601f10610e4e57610100808354040283529160200191610e79565b820191906000526020600020905b815481529060010190602001808311610e5c57829003601f168201915b50505050508152602001600882018054610e929061234c565b80601f0160208091040260200160405190810160405280929190818152602001828054610ebe9061234c565b8015610f0b5780601f10610ee057610100808354040283529160200191610f0b565b820191906000526020600020905b815481529060010190602001808311610eee57829003601f168201915b50505050508152602001600982018054610f249061234c565b80601f0160208091040260200160405190810160405280929190818152602001828054610f509061234c565b8015610f9d5780601f10610f7257610100808354040283529160200191610f9d565b820191906000526020600020905b815481529060010190602001808311610f8057829003601f168201915b505050505081525050905080600001518160200151935093505050915091565b600080600283604051610fd091906120d7565b9081526020016040518091039020541415611020576040517f08c379a000000000000000000000000000000000000000000000000000000000815260040161101790612145565b60405180910390fd5b60028260405161103091906120d7565b9081526020016040518091039020549050919050565b600060028460405161105891906120d7565b908152602001604051809103902054146110a7576040517f08c379a000000000000000000000000000000000000000000000000000000000815260040161109e906121c5565b60405180910390fd5b60008060008154809291906110bb9061237e565b919050559050806002856040516110d291906120d7565b90815260200160405180910390208190555060405180610140016040528084815260200183815260200185815260200160028081111561113b577f4e487b7100000000000000000000000000000000000000000000000000000000600052602160045260246000fd5b815260200160008152602001604051806020016040528060008152508152602001604051806020016040528060008152508152602001604051806020016040528060008152508152602001604051806020016040528060008152508152602001604051806020016040528060008152508152506001600083815260200190815260200160002060008201518160000190805190602001906111dd929190611956565b5060208201518160010190805190602001906111fa929190611956565b506040820151816002019080519060200190611217929190611956565b5060608201518160030160006101000a81548160ff02191690836002811115611269577f4e487b7100000000000000000000000000000000000000000000000000000000600052602160045260246000fd5b02179055506080820151816004015560a0820151816005019080519060200190611294929190611956565b5060c08201518160060190805190602001906112b1929190611956565b5060e08201518160070190805190602001906112ce929190611956565b506101008201518160080190805190602001906112ec929190611956565b5061012082015181600901908051906020019061130a929190611956565b5090505050505050565b61131c6118cb565b600060028360405161132e91906120d7565b90815260200160405180910390205490506000811415611383576040517f08c379a000000000000000000000000000000000000000000000000000000000815260040161137a90612125565b60405180910390fd5b60016000828152602001908152602001600020604051806101400160405290816000820180546113b29061234c565b80601f01602080910402602001604051908101604052809291908181526020018280546113de9061234c565b801561142b5780601f106114005761010080835404028352916020019161142b565b820191906000526020600020905b81548152906001019060200180831161140e57829003601f168201915b505050505081526020016001820180546114449061234c565b80601f01602080910402602001604051908101604052809291908181526020018280546114709061234c565b80156114bd5780601f10611492576101008083540402835291602001916114bd565b820191906000526020600020905b8154815290600101906020018083116114a057829003601f168201915b505050505081526020016002820180546114d69061234c565b80601f01602080910402602001604051908101604052809291908181526020018280546115029061234c565b801561154f5780601f106115245761010080835404028352916020019161154f565b820191906000526020600020905b81548152906001019060200180831161153257829003601f168201915b505050505081526020016003820160009054906101000a900460ff1660028111156115a3577f4e487b7100000000000000000000000000000000000000000000000000000000600052602160045260246000fd5b60028111156115db577f4e487b7100000000000000000000000000000000000000000000000000000000600052602160045260246000fd5b8152602001600482015481526020016005820180546115f99061234c565b80601f01602080910402602001604051908101604052809291908181526020018280546116259061234c565b80156116725780601f1061164757610100808354040283529160200191611672565b820191906000526020600020905b81548152906001019060200180831161165557829003601f168201915b5050505050815260200160068201805461168b9061234c565b80601f01602080910402602001604051908101604052809291908181526020018280546116b79061234c565b80156117045780601f106116d957610100808354040283529160200191611704565b820191906000526020600020905b8154815290600101906020018083116116e757829003601f168201915b5050505050815260200160078201805461171d9061234c565b80601f01602080910402602001604051908101604052809291908181526020018280546117499061234c565b80156117965780601f1061176b57610100808354040283529160200191611796565b820191906000526020600020905b81548152906001019060200180831161177957829003601f168201915b505050505081526020016008820180546117af9061234c565b80601f01602080910402602001604051908101604052809291908181526020018280546117db9061234c565b80156118285780601f106117fd57610100808354040283529160200191611828565b820191906000526020600020905b81548152906001019060200180831161180b57829003601f168201915b505050505081526020016009820180546118419061234c565b80601f016020809104026020016040519081016040528092919081815260200182805461186d9061234c565b80156118ba5780601f1061188f576101008083540402835291602001916118ba565b820191906000526020600020905b81548152906001019060200180831161189d57829003601f168201915b505050505081525050915050919050565b60405180610140016040528060608152602001606081526020016060815260200160006002811115611926577f4e487b7100000000000000000000000000000000000000000000000000000000600052602160045260246000fd5b81526020016000815260200160608152602001606081526020016060815260200160608152602001606081525090565b8280546119629061234c565b90600052602060002090601f01602090048101928261198457600085556119cb565b82601f1061199d57805160ff19168380011785556119cb565b828001600101855582156119cb579182015b828111156119ca5782518255916020019190600101906119af565b5b5090506119d891906119dc565b5090565b5b808211156119f55760008160009055506001016119dd565b5090565b6000611a0c611a0784612273565b612242565b905082815260208101848484011115611a2457600080fd5b611a2f84828561230a565b509392505050565b600081359050611a46816124a8565b92915050565b600082601f830112611a5d57600080fd5b8135611a6d8482602086016119f9565b91505092915050565b600081359050611a85816124b8565b92915050565b600060208284031215611a9d57600080fd5b600082013567ffffffffffffffff811115611ab757600080fd5b611ac384828501611a4c565b91505092915050565b600080600060608486031215611ae157600080fd5b600084013567ffffffffffffffff811115611afb57600080fd5b611b0786828701611a4c565b935050602084013567ffffffffffffffff811115611b2457600080fd5b611b3086828701611a4c565b925050604084013567ffffffffffffffff811115611b4d57600080fd5b611b5986828701611a4c565b9150509250925092565b600060208284031215611b7557600080fd5b6000611b8384828501611a76565b91505092915050565b60008060008060008060008060008060006101608c8e031215611bae57600080fd5b6000611bbc8e828f01611a76565b9b505060208c013567ffffffffffffffff811115611bd957600080fd5b611be58e828f01611a4c565b9a505060408c013567ffffffffffffffff811115611c0257600080fd5b611c0e8e828f01611a4c565b99505060608c013567ffffffffffffffff811115611c2b57600080fd5b611c378e828f01611a4c565b9850506080611c488e828f01611a37565b97505060a0611c598e828f01611a76565b96505060c08c013567ffffffffffffffff811115611c7657600080fd5b611c828e828f01611a4c565b95505060e08c013567ffffffffffffffff811115611c9f57600080fd5b611cab8e828f01611a4c565b9450506101008c013567ffffffffffffffff811115611cc957600080fd5b611cd58e828f01611a4c565b9350506101208c013567ffffffffffffffff811115611cf357600080fd5b611cff8e828f01611a4c565b9250506101408c013567ffffffffffffffff811115611d1d57600080fd5b611d298e828f01611a4c565b9150509295989b509295989b9093969950565b611d45816122f8565b82525050565b6000611d56826122a3565b611d6081856122ae565b9350611d70818560208601612319565b611d7981612483565b840191505092915050565b6000611d8f826122a3565b611d9981856122bf565b9350611da9818560208601612319565b611db281612483565b840191505092915050565b6000611dc8826122a3565b611dd281856122d0565b9350611de2818560208601612319565b80840191505092915050565b6000611dfb6015836122bf565b91507f506572736f6e61206e6f20656e636f6e747261646100000000000000000000006000830152602082019050919050565b6000611e3b6010836122bf565b91507f4349206e6f2072656769737472616461000000000000000000000000000000006000830152602082019050919050565b6000611e7b601e836122bf565b91507f506572736f6e61206e6f20656e636f6e747261646120656e20436976696c00006000830152602082019050919050565b6000611ebb6015836122bf565b91507f506572736f6e61206e6f207265676973747261646100000000000000000000006000830152602082019050919050565b6000611efb600c836122bf565b91507f4349206475706c696361646100000000000000000000000000000000000000006000830152602082019050919050565b6000611f3b6010836122bf565b91507f43492079612072656769737472616461000000000000000000000000000000006000830152602082019050919050565b6000611f7b600c836122bf565b91507f4944206e6f2076616c69646f00000000000000000000000000000000000000006000830152602082019050919050565b6000610140830160008301518482036000860152611fcc8282611d4b565b91505060208301518482036020860152611fe68282611d4b565b915050604083015184820360408601526120008282611d4b565b91505060608301516120156060860182611d3c565b50608083015161202860808601826120b9565b5060a083015184820360a08601526120408282611d4b565b91505060c083015184820360c086015261205a8282611d4b565b91505060e083015184820360e08601526120748282611d4b565b9150506101008301518482036101008601526120908282611d4b565b9150506101208301518482036101208601526120ac8282611d4b565b9150508091505092915050565b6120c2816122ee565b82525050565b6120d1816122ee565b82525050565b60006120e38284611dbd565b915081905092915050565b600060408201905081810360008301526121088185611d84565b9050818103602083015261211c8184611d84565b90509392505050565b6000602082019050818103600083015261213e81611dee565b9050919050565b6000602082019050818103600083015261215e81611e2e565b9050919050565b6000602082019050818103600083015261217e81611e6e565b9050919050565b6000602082019050818103600083015261219e81611eae565b9050919050565b600060208201905081810360008301526121be81611eee565b9050919050565b600060208201905081810360008301526121de81611f2e565b9050919050565b600060208201905081810360008301526121fe81611f6e565b9050919050565b6000602082019050818103600083015261221f8184611fae565b905092915050565b600060208201905061223c60008301846120c8565b92915050565b6000604051905081810181811067ffffffffffffffff8211171561226957612268612454565b5b8060405250919050565b600067ffffffffffffffff82111561228e5761228d612454565b5b601f19601f8301169050602081019050919050565b600081519050919050565b600082825260208201905092915050565b600082825260208201905092915050565b600081905092915050565b60008190506122e982612494565b919050565b6000819050919050565b6000612303826122db565b9050919050565b82818337600083830152505050565b60005b8381101561233757808201518184015260208101905061231c565b83811115612346576000848401525b50505050565b6000600282049050600182168061236457607f821691505b6020821081141561237857612377612425565b5b50919050565b6000612389826122ee565b91507fffffffffffffffffffffffffffffffffffffffffffffffffffffffffffffffff8214156123bc576123bb6123c7565b5b600182019050919050565b7f4e487b7100000000000000000000000000000000000000000000000000000000600052601160045260246000fd5b7f4e487b7100000000000000000000000000000000000000000000000000000000600052602160045260246000fd5b7f4e487b7100000000000000000000000000000000000000000000000000000000600052602260045260246000fd5b7f4e487b7100000000000000000000000000000000000000000000000000000000600052604160045260246000fd5b6000601f19601f8301169050919050565b600381106124a5576124a46123f6565b5b50565b600381106124b557600080fd5b50565b6124c1816122ee565b81146124cc57600080fd5b5056fea264697066735822122024561a0ec3a6604a0ba26aba3112836104a10a3f5de9fa3fe05fac9cedb78ab564736f6c63430008000033",
  "immutableReferences": {},
  "source": "// SPDX-License-Identifier: MIT\r\npragma solidity ^0.8.0;\r\n\r\ncontract Personas {\r\n    enum Genero { Masculino, Femenino, Otro }\r\n\r\n    struct Persona {\r\n        string nombres; \r\n        string apellidos; \r\n        string cedula; \r\n        Genero genero; \r\n        uint256 fechaNacimiento; \r\n        string lugarNacimiento; \r\n        string estadoCivil; \r\n        string direccion; \r\n        string telefono; \r\n        string profesion; \r\n    }\r\n\r\n    uint256 private nextId = 1;\r\n    mapping(uint256 => Persona) private personas;\r\n    mapping(string => uint256) private ciAIdPersona;\r\n\r\n    // --- REGISTRO BSICO (Usado por el Profe) ---\r\n    function registrarPersonaEsencial(\r\n        string memory _cedula,\r\n        string memory _nombres,\r\n        string memory _apellidos\r\n    ) public {\r\n        require(ciAIdPersona[_cedula] == 0, \"CI ya registrada\");\r\n        \r\n        uint256 id = nextId++;\r\n        ciAIdPersona[_cedula] = id;\r\n        \r\n        personas[id] = Persona({\r\n            nombres: _nombres,\r\n            apellidos: _apellidos,\r\n            cedula: _cedula,\r\n            genero: Genero.Otro,\r\n            fechaNacimiento: 0,\r\n            lugarNacimiento: \"\",\r\n            estadoCivil: \"\",\r\n            direccion: \"\",\r\n            telefono: \"\",\r\n            profesion: \"\"\r\n        });\r\n    }\r\n\r\n    // --- REGISTRO COMPLETO ---\r\n    function registrarPersona(\r\n        uint256 _id,\r\n        string memory _nombres,\r\n        string memory _apellidos,\r\n        string memory _cedula,\r\n        Genero _genero,\r\n        uint256 _fechaNacimiento,\r\n        string memory _lugarNacimiento,\r\n        string memory _estadoCivil,\r\n        string memory _direccion,\r\n        string memory _telefono,\r\n        string memory _profesion\r\n    ) public {\r\n        require(_id < nextId, \"ID no valido\");\r\n        // Verificamos que la CI no est tomada por otro ID diferente\r\n        if (ciAIdPersona[_cedula] != 0) {\r\n            require(ciAIdPersona[_cedula] == _id, \"CI duplicada\");\r\n        }\r\n\r\n        personas[_id] = Persona({\r\n            nombres: _nombres,\r\n            apellidos: _apellidos,\r\n            cedula: _cedula,\r\n            genero: _genero,\r\n            fechaNacimiento: _fechaNacimiento,\r\n            lugarNacimiento: _lugarNacimiento,\r\n            estadoCivil: _estadoCivil,\r\n            direccion: _direccion,\r\n            telefono: _telefono,\r\n            profesion: _profesion\r\n        });\r\n        \r\n        // Actualizamos el mapeo inverso por si cambi la cdula\r\n        ciAIdPersona[_cedula] = _id;\r\n    }\r\n\r\n    function obtenerIdPorCi(string memory _ci) public view returns (uint256) {\r\n        require(ciAIdPersona[_ci] != 0, \"CI no registrada\");\r\n        return ciAIdPersona[_ci];\r\n    }\r\n\r\n    // --- OPTIMIZACIN: Bsqueda directa sin bucles ---\r\n    function obtenerPersonaPorCI(string memory _cedula) public view returns (Persona memory) {\r\n        uint256 id = ciAIdPersona[_cedula];\r\n        require(id != 0, \"Persona no encontrada\");\r\n        return personas[id];\r\n    }\r\n\r\n    function obtenerDatosPersona(uint256 _id) public view returns (Persona memory) {\r\n        require(_id < nextId && bytes(personas[_id].cedula).length > 0, \"Persona no registrada\");\r\n        return personas[_id];\r\n    }\r\n\r\n    // --- LA FUNCIN NUEVA QUE NECESITA DONACIONES ---\r\n    // Esta es la que faltaba para que funcione la conexin\r\n    function obtenerNombresApellidos(string memory _cedula) public view returns (string memory, string memory) {\r\n        uint256 id = ciAIdPersona[_cedula];\r\n        require(id != 0, \"Persona no encontrada en Civil\");\r\n        \r\n        Persona memory p = personas[id];\r\n        return (p.nombres, p.apellidos);\r\n    }\r\n}",
  "sourcePath": "/home/anders/Escritorio/Solidarity/BACK/smart-contracts/contracts/Persona.sol",
  "compiler": {
    "name": "solc",
    "version": "0.8.0+commit.c7dfd78e.Emscripten.clang"
  },
  "schemaVersion": "3.4.16",
  "updatedAt": "2025-12-16T12:51:23.021Z",
  "networkType": "ethereum",
  "devdoc": {
    "kind": "dev",
    "methods": {},
    "version": 1
  },
  "userdoc": {
    "kind": "user",
    "methods": {},
    "version": 1
  }
}